{
  "contractName": "BatteryProviderRole",
  "abi": [
    {
      "inputs": [],
      "payable": false,
      "stateMutability": "nonpayable",
      "type": "constructor",
      "signature": "constructor"
    },
    {
      "anonymous": false,
      "inputs": [
        {
          "indexed": false,
          "name": "_account",
          "type": "address"
        }
      ],
      "name": "AddBatteryProvider",
      "type": "event",
      "signature": "0x4f9c49fecaeeecdcde7968f21200434fa9ac1b2d99c6b5bf554408811bc0cd30"
    },
    {
      "anonymous": false,
      "inputs": [
        {
          "indexed": false,
          "name": "_account",
          "type": "address"
        }
      ],
      "name": "RemoveBatteryProvider",
      "type": "event",
      "signature": "0x47dff044c918bd680ac512e65fe98c7763e06c4b4f08509899407f5785db0ceb"
    },
    {
      "constant": true,
      "inputs": [
        {
          "name": "_account",
          "type": "address"
        }
      ],
      "name": "isBatteryProvider",
      "outputs": [
        {
          "name": "",
          "type": "bool"
        }
      ],
      "payable": false,
      "stateMutability": "view",
      "type": "function",
      "signature": "0xac69b748"
    },
    {
      "constant": false,
      "inputs": [
        {
          "name": "_account",
          "type": "address"
        }
      ],
      "name": "addBatteryProvider",
      "outputs": [],
      "payable": false,
      "stateMutability": "nonpayable",
      "type": "function",
      "signature": "0xbe4edc17"
    },
    {
      "constant": false,
      "inputs": [
        {
          "name": "_account",
          "type": "address"
        }
      ],
      "name": "removeBatteryProvider",
      "outputs": [],
      "payable": false,
      "stateMutability": "nonpayable",
      "type": "function",
      "signature": "0xeaeb7881"
    }
  ],
  "bytecode": "0x608060405234801561001057600080fd5b506104b1806100206000396000f300608060405260043610610057576000357c0100000000000000000000000000000000000000000000000000000000900463ffffffff168063ac69b7481461005c578063be4edc17146100b7578063eaeb7881146100fa575b600080fd5b34801561006857600080fd5b5061009d600480360381019080803573ffffffffffffffffffffffffffffffffffffffff16906020019092919050505061013d565b604051808215151515815260200191505060405180910390f35b3480156100c357600080fd5b506100f8600480360381019080803573ffffffffffffffffffffffffffffffffffffffff169060200190929190505050610186565b005b34801561010657600080fd5b5061013b600480360381019080803573ffffffffffffffffffffffffffffffffffffffff1690602001909291905050506101f5565b005b60008173ffffffffffffffffffffffffffffffffffffffff163373ffffffffffffffffffffffffffffffffffffffff16141561017c5760019050610181565b600090505b919050565b61018f81610264565b7f4f9c49fecaeeecdcde7968f21200434fa9ac1b2d99c6b5bf554408811bc0cd3081604051808273ffffffffffffffffffffffffffffffffffffffff1673ffffffffffffffffffffffffffffffffffffffff16815260200191505060405180910390a150565b6101fe8161027b565b7f47dff044c918bd680ac512e65fe98c7763e06c4b4f08509899407f5785db0ceb81604051808273ffffffffffffffffffffffffffffffffffffffff1673ffffffffffffffffffffffffffffffffffffffff16815260200191505060405180910390a150565b61027881600061029290919063ffffffff16565b50565b61028f81600061034290919063ffffffff16565b50565b600073ffffffffffffffffffffffffffffffffffffffff168173ffffffffffffffffffffffffffffffffffffffff16141515156102ce57600080fd5b6102d882826103f1565b1515156102e457600080fd5b60018260000160008373ffffffffffffffffffffffffffffffffffffffff1673ffffffffffffffffffffffffffffffffffffffff16815260200190815260200160002060006101000a81548160ff0219169083151502179055505050565b600073ffffffffffffffffffffffffffffffffffffffff168173ffffffffffffffffffffffffffffffffffffffff161415151561037e57600080fd5b61038882826103f1565b151561039357600080fd5b60008260000160008373ffffffffffffffffffffffffffffffffffffffff1673ffffffffffffffffffffffffffffffffffffffff16815260200190815260200160002060006101000a81548160ff0219169083151502179055505050565b60008073ffffffffffffffffffffffffffffffffffffffff168273ffffffffffffffffffffffffffffffffffffffff161415151561042e57600080fd5b8260000160008373ffffffffffffffffffffffffffffffffffffffff1673ffffffffffffffffffffffffffffffffffffffff16815260200190815260200160002060009054906101000a900460ff169050929150505600a165627a7a723058208f45b525b5ebea73d5a42e27fe7a61557dfa890aa9352509e47e3200175cbab50029",
  "source": "pragma solidity ^0.4.24;\n\nimport \"./Roles.sol\";\n\ncontract BatteryProviderRole {\n\n    // Define 2 events, one for Adding, and other for Removing\n    event AddBatteryProvider(address _account);\n    event RemoveBatteryProvider(address _account);\n\n    // Define a struct 'BatteryProvider' by inheriting from 'Roles' library, struct Role\n    using Roles\n    for Roles.Role;\n    Roles.Role batteryProvider;\n\n    constructor() public { }\n\n    // Define a modifier that checks to see if msg.sender has the appropriate role\n    modifier onlyBatteryProvider(address _provider) {\n        require(msg.sender == _provider);\n        _;\n    }\n\n    // Define a function 'isBatteryProvider' to check this role\n    function isBatteryProvider(address _account) public view returns(bool) {\n        if (msg.sender == _account) {\n            return true;\n        } else {\n            return false;\n        }\n    }\n\n    // Define a function 'addBatteryProvider' that adds this role\n    function addBatteryProvider(address _account) public {\n        _addBatteryProvider(_account);\n        emit AddBatteryProvider(_account);\n    }\n\n    // Define a function 'removeBatteryProvider' to remove this role\n    function removeBatteryProvider(address _account) public {\n        _removeBatteryProvider(_account);\n        emit RemoveBatteryProvider(_account);\n    }\n\n    // Define an internal function '_addBatteryProvider' to add this role, called by 'addBatteryProvider'\n    function _addBatteryProvider(address _account) internal {\n        batteryProvider.add(_account);\n    }\n\n    // Define an internal function '_removeBatteryProvider' to remove this role, called by 'removeBatteryProvider'\n    function _removeBatteryProvider(address _account) internal {\n        batteryProvider.remove(_account);\n    }\n\n}",
  "sourcePath": "/Users/knakayama/git/blockchain_smart_warranty_application/smart_contracts/contracts/batteryaccesscontrol/BatteryProviderRole.sol",
  "compiler": {
    "name": "solc",
    "version": "0.4.24+commit.e67f0147.Emscripten.clang"
  },
  "schemaVersion": "3.0.5",
  "updatedAt": "2019-03-27T18:33:17.187Z",
  "devdoc": {
    "methods": {}
  },
  "userdoc": {
    "methods": {}
  }
}