{
  "contractName": "BatteryUserRole",
  "abi": [
    {
      "inputs": [],
      "payable": false,
      "stateMutability": "nonpayable",
      "type": "constructor",
      "signature": "constructor"
    },
    {
      "anonymous": false,
      "inputs": [
        {
          "indexed": false,
          "name": "_account",
          "type": "address"
        }
      ],
      "name": "AddBatteryUser",
      "type": "event",
      "signature": "0xcbf9be33489122df962a55b1e1fe2fee6119e8a91ab4f8889f2643fe52ea15b7"
    },
    {
      "anonymous": false,
      "inputs": [
        {
          "indexed": false,
          "name": "_account",
          "type": "address"
        }
      ],
      "name": "RemoveBatteryUser",
      "type": "event",
      "signature": "0x68c8259a1758cd6d5384f165bcde8a204eb75d256a7b09eb3b76eccb883eab49"
    },
    {
      "constant": true,
      "inputs": [
        {
          "name": "_account",
          "type": "address"
        }
      ],
      "name": "isBatteryUser",
      "outputs": [
        {
          "name": "",
          "type": "bool"
        }
      ],
      "payable": false,
      "stateMutability": "view",
      "type": "function",
      "signature": "0xeb51741c"
    },
    {
      "constant": false,
      "inputs": [
        {
          "name": "_account",
          "type": "address"
        }
      ],
      "name": "addBatteryUser",
      "outputs": [],
      "payable": false,
      "stateMutability": "nonpayable",
      "type": "function",
      "signature": "0x8433fafa"
    },
    {
      "constant": false,
      "inputs": [
        {
          "name": "_account",
          "type": "address"
        }
      ],
      "name": "removeBatteryUser",
      "outputs": [],
      "payable": false,
      "stateMutability": "nonpayable",
      "type": "function",
      "signature": "0x264292a3"
    }
  ],
  "bytecode": "0x608060405234801561001057600080fd5b506104b1806100206000396000f300608060405260043610610057576000357c0100000000000000000000000000000000000000000000000000000000900463ffffffff168063264292a31461005c5780638433fafa1461009f578063eb51741c146100e2575b600080fd5b34801561006857600080fd5b5061009d600480360381019080803573ffffffffffffffffffffffffffffffffffffffff16906020019092919050505061013d565b005b3480156100ab57600080fd5b506100e0600480360381019080803573ffffffffffffffffffffffffffffffffffffffff1690602001909291905050506101ac565b005b3480156100ee57600080fd5b50610123600480360381019080803573ffffffffffffffffffffffffffffffffffffffff16906020019092919050505061021b565b604051808215151515815260200191505060405180910390f35b61014681610264565b7f68c8259a1758cd6d5384f165bcde8a204eb75d256a7b09eb3b76eccb883eab4981604051808273ffffffffffffffffffffffffffffffffffffffff1673ffffffffffffffffffffffffffffffffffffffff16815260200191505060405180910390a150565b6101b58161027b565b7fcbf9be33489122df962a55b1e1fe2fee6119e8a91ab4f8889f2643fe52ea15b781604051808273ffffffffffffffffffffffffffffffffffffffff1673ffffffffffffffffffffffffffffffffffffffff16815260200191505060405180910390a150565b60008173ffffffffffffffffffffffffffffffffffffffff163373ffffffffffffffffffffffffffffffffffffffff16141561025a576001905061025f565b600090505b919050565b61027881600061029290919063ffffffff16565b50565b61028f81600061034190919063ffffffff16565b50565b600073ffffffffffffffffffffffffffffffffffffffff168173ffffffffffffffffffffffffffffffffffffffff16141515156102ce57600080fd5b6102d882826103f1565b15156102e357600080fd5b60008260000160008373ffffffffffffffffffffffffffffffffffffffff1673ffffffffffffffffffffffffffffffffffffffff16815260200190815260200160002060006101000a81548160ff0219169083151502179055505050565b600073ffffffffffffffffffffffffffffffffffffffff168173ffffffffffffffffffffffffffffffffffffffff161415151561037d57600080fd5b61038782826103f1565b15151561039357600080fd5b60018260000160008373ffffffffffffffffffffffffffffffffffffffff1673ffffffffffffffffffffffffffffffffffffffff16815260200190815260200160002060006101000a81548160ff0219169083151502179055505050565b60008073ffffffffffffffffffffffffffffffffffffffff168273ffffffffffffffffffffffffffffffffffffffff161415151561042e57600080fd5b8260000160008373ffffffffffffffffffffffffffffffffffffffff1673ffffffffffffffffffffffffffffffffffffffff16815260200190815260200160002060009054906101000a900460ff169050929150505600a165627a7a723058200ffacd27bfeb06c10470c60e2448d7dafa761837c4b1dcc55db5c06f02313b4c0029",
  "source": "pragma solidity ^ 0.4 .24;\n\n// Import the library 'Roles'\nimport \"./Roles.sol\";\n\n// Define a contract 'BatteryUserRole' to manage this role - add, remove, check\ncontract BatteryUserRole {\n\n    // Define 2 events, one for Adding, and other for Removing\n    event AddBatteryUser(address _account);\n    event RemoveBatteryUser(address _account);\n\n    // Define a struct 'BatteryUser' by inheriting from 'Roles' library, struct Role\n    using Roles\n    for Roles.Role;\n    Roles.Role batteryUser;\n\n    // struct BatteryUser {\n    //   string ownerID;\n    //   string firstName;\n    //   string lastName;\n    //   string companyName;\n    // }\n\n    // uint userId = 1;\n    // mapping(uint => address) userIdToAddress;\n\n    // In the constructor make the address that deploys this contract the 1st consumer\n    constructor() public {\n\n    }\n\n    // Define a modifier that checks to see if msg.sender has the appropriate role\n    modifier onlyBatteryUser(address _user) {\n        require(msg.sender == _user);\n        _;\n    }\n\n    // Define a function 'isBatteryUser' to check this role\n    function isBatteryUser(address _account) public view returns(bool) {\n        if (msg.sender == _account) {\n            return true;\n        } else {\n            return false;\n        }\n    }\n\n    // Define a function 'addBatteryUser' that adds this role\n    function addBatteryUser(address _account) public {\n        // userIdToAddress[userId] = _account;\n        // userId++;\n        _addBatteryUser(_account);\n        emit AddBatteryUser(_account);\n    }\n\n    // Define a function 'removeBatteryUser' to remove this role\n    function removeBatteryUser(address _account) public {\n        _removeBatteryUser(_account);\n        emit RemoveBatteryUser(_account);\n    }\n\n    // Define an internal function '_addBatteryUser' to add this role, called by 'addBatteryUser'\n    function _addBatteryUser(address _account) internal {\n        batteryUser.add(_account);\n    }\n\n    // Define an internal function '_removeBatteryUser' to remove this role, called by 'removeBatteryUser'\n    function _removeBatteryUser(address _account) internal {\n        batteryUser.remove(_account);\n    }\n}",
  "sourcePath": "/Users/knakayama/git/blockchain_smart_warranty_application/smart_contracts/contracts/batteryaccesscontrol/BatteryUserRole.sol",
  "compiler": {
    "name": "solc",
    "version": "0.4.24+commit.e67f0147.Emscripten.clang"
  },
  "schemaVersion": "3.0.5",
  "updatedAt": "2019-03-27T18:33:17.188Z",
  "devdoc": {
    "methods": {}
  },
  "userdoc": {
    "methods": {}
  }
}