{
  "contractName": "EMSProviderRole",
  "abi": [
    {
      "inputs": [],
      "payable": false,
      "stateMutability": "nonpayable",
      "type": "constructor"
    },
    {
      "anonymous": false,
      "inputs": [
        {
          "indexed": false,
          "name": "_account",
          "type": "address"
        }
      ],
      "name": "AddEMSProvider",
      "type": "event"
    },
    {
      "anonymous": false,
      "inputs": [
        {
          "indexed": false,
          "name": "_account",
          "type": "address"
        }
      ],
      "name": "RemoveEMSProvider",
      "type": "event"
    },
    {
      "constant": true,
      "inputs": [
        {
          "name": "_account",
          "type": "address"
        }
      ],
      "name": "isEMSProvider",
      "outputs": [
        {
          "name": "",
          "type": "bool"
        }
      ],
      "payable": false,
      "stateMutability": "view",
      "type": "function"
    },
    {
      "constant": false,
      "inputs": [
        {
          "name": "_account",
          "type": "address"
        }
      ],
      "name": "addEMSProvider",
      "outputs": [],
      "payable": false,
      "stateMutability": "nonpayable",
      "type": "function"
    },
    {
      "constant": false,
      "inputs": [
        {
          "name": "_account",
          "type": "address"
        }
      ],
      "name": "removeEMSProvider",
      "outputs": [],
      "payable": false,
      "stateMutability": "nonpayable",
      "type": "function"
    }
  ],
  "bytecode": "0x608060405234801561001057600080fd5b506104b1806100206000396000f300608060405260043610610057576000357c0100000000000000000000000000000000000000000000000000000000900463ffffffff1680634f60fd161461005c578063ba352356146100b7578063f9db7713146100fa575b600080fd5b34801561006857600080fd5b5061009d600480360381019080803573ffffffffffffffffffffffffffffffffffffffff16906020019092919050505061013d565b604051808215151515815260200191505060405180910390f35b3480156100c357600080fd5b506100f8600480360381019080803573ffffffffffffffffffffffffffffffffffffffff169060200190929190505050610186565b005b34801561010657600080fd5b5061013b600480360381019080803573ffffffffffffffffffffffffffffffffffffffff1690602001909291905050506101f5565b005b60008173ffffffffffffffffffffffffffffffffffffffff163373ffffffffffffffffffffffffffffffffffffffff16141561017c5760019050610181565b600090505b919050565b61018f81610264565b7fe13ce930eff8f240abaf7e7de48f6c1b37877fa49ec0e0ceb141fa4401db28e181604051808273ffffffffffffffffffffffffffffffffffffffff1673ffffffffffffffffffffffffffffffffffffffff16815260200191505060405180910390a150565b6101fe8161027b565b7f60f400bae05a23a1f382b028b6d971171c6a806b98a9d564a2cebe15faddfd7781604051808273ffffffffffffffffffffffffffffffffffffffff1673ffffffffffffffffffffffffffffffffffffffff16815260200191505060405180910390a150565b61027881600061029290919063ffffffff16565b50565b61028f81600061034190919063ffffffff16565b50565b600073ffffffffffffffffffffffffffffffffffffffff168173ffffffffffffffffffffffffffffffffffffffff16141515156102ce57600080fd5b6102d882826103f1565b15156102e357600080fd5b60008260000160008373ffffffffffffffffffffffffffffffffffffffff1673ffffffffffffffffffffffffffffffffffffffff16815260200190815260200160002060006101000a81548160ff0219169083151502179055505050565b600073ffffffffffffffffffffffffffffffffffffffff168173ffffffffffffffffffffffffffffffffffffffff161415151561037d57600080fd5b61038782826103f1565b15151561039357600080fd5b60018260000160008373ffffffffffffffffffffffffffffffffffffffff1673ffffffffffffffffffffffffffffffffffffffff16815260200190815260200160002060006101000a81548160ff0219169083151502179055505050565b60008073ffffffffffffffffffffffffffffffffffffffff168273ffffffffffffffffffffffffffffffffffffffff161415151561042e57600080fd5b8260000160008373ffffffffffffffffffffffffffffffffffffffff1673ffffffffffffffffffffffffffffffffffffffff16815260200190815260200160002060009054906101000a900460ff169050929150505600a165627a7a7230582013f9208014c32bcd2debb02ea9e7657af5252874cd3a5dcdb6105a4482e6df180029",
  "source": "pragma solidity ^0.4.24;\r\n\r\nimport \"./Roles.sol\";\r\n\r\ncontract EMSProviderRole {\r\n\r\n    // Define 2 events, one for Adding, and other for Removing\r\n    event AddEMSProvider(address _account);\r\n    event RemoveEMSProvider(address _account);\r\n\r\n    // Define a struct 'EMSProvider' by inheriting from 'Roles' library, struct Role\r\n    using Roles\r\n    for Roles.Role;\r\n    Roles.Role emsProvider;\r\n\r\n  // EMS Provider information: need to be approved by the battery provider\r\n  // struct EnergyManagementSystemProvider {\r\n  //     address emsProvider;\r\n  //     bool isApproved;\r\n  // }\r\n\r\n    constructor() public {\r\n\r\n    }\r\n\r\n    // Define a modifier that checks to see if msg.sender has the appropriate role\r\n    modifier onlyEMSProvider(address _emsProvider) {\r\n        require(msg.sender == _emsProvider);\r\n        _;\r\n    }\r\n\r\n    // Define a function 'isEMSProvider' to check this role\r\n    function isEMSProvider(address _account) public view returns(bool) {\r\n        if (msg.sender == _account) {\r\n            return true;\r\n        } else {\r\n            return false;\r\n        }\r\n    }\r\n\r\n    // Define a function 'addEMSProvider' that adds this role\r\n    function addEMSProvider(address _account) public {\r\n        _addEMSProvider(_account);\r\n        emit AddEMSProvider(_account);\r\n    }\r\n\r\n    // Define a function 'removeEMSProvider' to remove this role\r\n    function removeEMSProvider(address _account) public {\r\n        _removeEMSProvider(_account);\r\n        emit RemoveEMSProvider(_account);\r\n    }\r\n\r\n    // Define an internal function '_addEMSProvider' to add this role, called by 'addEMSProvider'\r\n    function _addEMSProvider(address _account) internal {\r\n        emsProvider.add(_account);\r\n    }\r\n\r\n    // Define an internal function '_removeEMSProvider' to remove this role, called by 'removeEMSProvider'\r\n    function _removeEMSProvider(address _account) internal {\r\n        emsProvider.remove(_account);\r\n    }\r\n\r\n}",
  "sourcePath": "C:\\Users\\knakayama\\git\\SmartWarranty_ver1\\smart_contracts\\contracts\\batteryaccesscontrol\\EMSProviderRole.sol",
  "compiler": {
    "name": "solc",
    "version": "0.4.24+commit.e67f0147.Emscripten.clang"
  },
  "schemaVersion": "2.0.1",
  "updatedAt": "2019-03-20T23:52:27.297Z"
}