{
  "contractName": "SmartWarranty",
  "abi": [
    {
      "constant": true,
      "inputs": [],
      "name": "tokenId",
      "outputs": [
        {
          "name": "",
          "type": "uint256"
        }
      ],
      "payable": false,
      "stateMutability": "view",
      "type": "function"
    },
    {
      "inputs": [],
      "payable": false,
      "stateMutability": "nonpayable",
      "type": "constructor"
    },
    {
      "anonymous": false,
      "inputs": [
        {
          "indexed": false,
          "name": "tokenId",
          "type": "uint256"
        }
      ],
      "name": "ForSale",
      "type": "event"
    },
    {
      "anonymous": false,
      "inputs": [
        {
          "indexed": false,
          "name": "_tokenId",
          "type": "uint256"
        }
      ],
      "name": "Sold",
      "type": "event"
    },
    {
      "anonymous": false,
      "inputs": [
        {
          "indexed": false,
          "name": "_tokenId",
          "type": "uint256"
        }
      ],
      "name": "Installed",
      "type": "event"
    },
    {
      "anonymous": false,
      "inputs": [
        {
          "indexed": false,
          "name": "_tokenId",
          "type": "uint256"
        }
      ],
      "name": "Managed",
      "type": "event"
    },
    {
      "anonymous": false,
      "inputs": [
        {
          "indexed": false,
          "name": "_tokenId",
          "type": "uint256"
        }
      ],
      "name": "Activated",
      "type": "event"
    },
    {
      "constant": false,
      "inputs": [
        {
          "name": "_address",
          "type": "address"
        }
      ],
      "name": "registerTrustedEMSProvider",
      "outputs": [],
      "payable": false,
      "stateMutability": "nonpayable",
      "type": "function"
    },
    {
      "constant": false,
      "inputs": [
        {
          "name": "_batteryID",
          "type": "string"
        },
        {
          "name": "batteryOwner",
          "type": "address"
        },
        {
          "name": "trustedEMSProvider",
          "type": "address"
        },
        {
          "name": "capacity",
          "type": "uint256"
        },
        {
          "name": "power",
          "type": "uint256"
        },
        {
          "name": "year",
          "type": "uint256"
        },
        {
          "name": "warrantyPeriod",
          "type": "uint256"
        }
      ],
      "name": "registerBatteryInfo",
      "outputs": [],
      "payable": false,
      "stateMutability": "nonpayable",
      "type": "function"
    },
    {
      "constant": false,
      "inputs": [
        {
          "name": "_batteryID",
          "type": "string"
        },
        {
          "name": "_capacity",
          "type": "uint256"
        },
        {
          "name": "_power",
          "type": "uint256"
        },
        {
          "name": "_price",
          "type": "uint256"
        },
        {
          "name": "_year",
          "type": "uint256"
        },
        {
          "name": "_warrantyPeriod",
          "type": "uint256"
        }
      ],
      "name": "produceBattery",
      "outputs": [],
      "payable": false,
      "stateMutability": "nonpayable",
      "type": "function"
    },
    {
      "constant": false,
      "inputs": [
        {
          "name": "_tokenId",
          "type": "uint256"
        }
      ],
      "name": "addItem",
      "outputs": [],
      "payable": false,
      "stateMutability": "nonpayable",
      "type": "function"
    },
    {
      "constant": false,
      "inputs": [
        {
          "name": "_tokenId",
          "type": "uint256"
        }
      ],
      "name": "buyItem",
      "outputs": [],
      "payable": true,
      "stateMutability": "payable",
      "type": "function"
    },
    {
      "constant": false,
      "inputs": [
        {
          "name": "_tokenId",
          "type": "uint256"
        },
        {
          "name": "_address",
          "type": "address"
        }
      ],
      "name": "assignBatteryOwner",
      "outputs": [],
      "payable": false,
      "stateMutability": "nonpayable",
      "type": "function"
    },
    {
      "constant": false,
      "inputs": [
        {
          "name": "_tokenId",
          "type": "uint256"
        }
      ],
      "name": "installBattery",
      "outputs": [],
      "payable": false,
      "stateMutability": "nonpayable",
      "type": "function"
    },
    {
      "constant": false,
      "inputs": [
        {
          "name": "_tokenId",
          "type": "uint256"
        },
        {
          "name": "_emsProviderAddress",
          "type": "address"
        }
      ],
      "name": "manageBattery",
      "outputs": [],
      "payable": false,
      "stateMutability": "nonpayable",
      "type": "function"
    },
    {
      "constant": false,
      "inputs": [
        {
          "name": "_tokenId",
          "type": "uint256"
        }
      ],
      "name": "utilizeBattery",
      "outputs": [],
      "payable": false,
      "stateMutability": "nonpayable",
      "type": "function"
    },
    {
      "constant": false,
      "inputs": [
        {
          "name": "_tokenId",
          "type": "uint256"
        },
        {
          "name": "_year",
          "type": "uint256"
        },
        {
          "name": "_month",
          "type": "uint256"
        },
        {
          "name": "_day",
          "type": "uint256"
        },
        {
          "name": "_hour",
          "type": "uint256"
        },
        {
          "name": "_socValue",
          "type": "uint256"
        },
        {
          "name": "_aade",
          "type": "uint256"
        },
        {
          "name": "_peakDCPower",
          "type": "uint256"
        },
        {
          "name": "_averageDailyDCPower",
          "type": "uint256"
        }
      ],
      "name": "getUsageData",
      "outputs": [],
      "payable": false,
      "stateMutability": "nonpayable",
      "type": "function"
    },
    {
      "constant": false,
      "inputs": [
        {
          "name": "_tokenId",
          "type": "uint256"
        }
      ],
      "name": "checkWarranty",
      "outputs": [],
      "payable": false,
      "stateMutability": "nonpayable",
      "type": "function"
    },
    {
      "constant": false,
      "inputs": [
        {
          "name": "_tokenId",
          "type": "uint256"
        }
      ],
      "name": "checkAnnualAverageSOCWarranty",
      "outputs": [],
      "payable": false,
      "stateMutability": "nonpayable",
      "type": "function"
    },
    {
      "constant": false,
      "inputs": [
        {
          "name": "_tokenId",
          "type": "uint256"
        }
      ],
      "name": "checkAnnualAccumulatedDischargeEnergyWarranty",
      "outputs": [],
      "payable": false,
      "stateMutability": "nonpayable",
      "type": "function"
    },
    {
      "constant": false,
      "inputs": [
        {
          "name": "_tokenId",
          "type": "uint256"
        }
      ],
      "name": "checkPeakDCPowerPerRackWarranty",
      "outputs": [],
      "payable": false,
      "stateMutability": "nonpayable",
      "type": "function"
    },
    {
      "constant": false,
      "inputs": [
        {
          "name": "_tokenId",
          "type": "uint256"
        }
      ],
      "name": "checkDailyAverageDCPowerWarranty",
      "outputs": [],
      "payable": false,
      "stateMutability": "nonpayable",
      "type": "function"
    },
    {
      "constant": false,
      "inputs": [
        {
          "name": "_tokenId",
          "type": "uint256"
        }
      ],
      "name": "updateWarranty",
      "outputs": [],
      "payable": false,
      "stateMutability": "nonpayable",
      "type": "function"
    },
    {
      "constant": false,
      "inputs": [],
      "name": "testProduceBatteryAndEMSProvider",
      "outputs": [],
      "payable": false,
      "stateMutability": "nonpayable",
      "type": "function"
    },
    {
      "constant": false,
      "inputs": [
        {
          "name": "_tokenId",
          "type": "uint256"
        },
        {
          "name": "status",
          "type": "uint8"
        }
      ],
      "name": "modifyWarrantyState",
      "outputs": [],
      "payable": false,
      "stateMutability": "nonpayable",
      "type": "function"
    },
    {
      "constant": true,
      "inputs": [
        {
          "name": "_tokenId",
          "type": "uint256"
        }
      ],
      "name": "showBatteryInfo",
      "outputs": [
        {
          "name": "batteryID",
          "type": "string"
        },
        {
          "name": "owner",
          "type": "address"
        },
        {
          "name": "emsProvider",
          "type": "address"
        },
        {
          "name": "price",
          "type": "uint256"
        },
        {
          "name": "bolCapacity",
          "type": "uint256"
        },
        {
          "name": "maxPower",
          "type": "uint256"
        },
        {
          "name": "stateIs",
          "type": "string"
        },
        {
          "name": "warrantyStatus",
          "type": "string"
        },
        {
          "name": "currentYear",
          "type": "uint256"
        },
        {
          "name": "warrantyPeriod",
          "type": "uint256"
        }
      ],
      "payable": false,
      "stateMutability": "view",
      "type": "function"
    },
    {
      "constant": true,
      "inputs": [
        {
          "name": "_tokenId",
          "type": "uint256"
        }
      ],
      "name": "showBatteryViolationInfo",
      "outputs": [
        {
          "name": "batteryID",
          "type": "string"
        },
        {
          "name": "owner",
          "type": "address"
        },
        {
          "name": "emsProvider",
          "type": "address"
        },
        {
          "name": "annualAverageSOCViolation",
          "type": "bool"
        },
        {
          "name": "annualAccumulatedDischargeEnergyViolation",
          "type": "bool"
        },
        {
          "name": "peakDCPowerViolation",
          "type": "bool"
        },
        {
          "name": "dailyAverageDCPowerViolation",
          "type": "bool"
        }
      ],
      "payable": false,
      "stateMutability": "view",
      "type": "function"
    },
    {
      "constant": true,
      "inputs": [
        {
          "name": "_tokenId",
          "type": "uint256"
        },
        {
          "name": "_year",
          "type": "uint256"
        }
      ],
      "name": "showAnnualAverageSOC",
      "outputs": [
        {
          "name": "TokenID",
          "type": "uint256"
        },
        {
          "name": "year",
          "type": "uint256"
        },
        {
          "name": "annualAverageSOC",
          "type": "uint256"
        },
        {
          "name": "annualAverageSOCViolation",
          "type": "bool"
        }
      ],
      "payable": false,
      "stateMutability": "view",
      "type": "function"
    },
    {
      "constant": true,
      "inputs": [
        {
          "name": "_tokenId",
          "type": "uint256"
        }
      ],
      "name": "showVariables",
      "outputs": [
        {
          "name": "Max_Average_Soc",
          "type": "uint256"
        },
        {
          "name": "Peak_DC_Rack_Power",
          "type": "uint256"
        },
        {
          "name": "Daily_Avg_Rack_Power",
          "type": "uint256"
        },
        {
          "name": "Annual_Accum_Disch_Energy",
          "type": "uint256"
        }
      ],
      "payable": false,
      "stateMutability": "view",
      "type": "function"
    }
  ],
  "bytecode": "0x6080604052600160025534801561001557600080fd5b50336000806101000a81548173ffffffffffffffffffffffffffffffffffffffff021916908373ffffffffffffffffffffffffffffffffffffffff160217905550603560038190555061b266600481905550611db0600581905550612b2f8061007f6000396000f300608060405260043610610133576000357c0100000000000000000000000000000000000000000000000000000000900463ffffffff1680630d0b266a1461013857806317d70f7c146102705780631a059b7e1461029b5780631c5da9dc146102c85780633f73f78d146102f55780634b1ba3e21461034257806350debde3146103dd57806355e722ef1461043357806363a715931461046057806374f1fc611461048d5780638f100b3a146104ba578063a6193c161461051e578063bb18a0f61461054b578063be63404514610598578063bfc5d3b7146105c5578063cc3c0d8d146105dc578063cfbc6fba14610616578063da510e9c14610659578063e2174efe14610686578063e3ec567f1461088d578063e7fb74c7146108ba578063e8373df2146108da578063ff542149146109ab575b600080fd5b34801561014457600080fd5b5061016360048036038101908080359060200190929190505050610a28565b60405180806020018873ffffffffffffffffffffffffffffffffffffffff1673ffffffffffffffffffffffffffffffffffffffff1681526020018773ffffffffffffffffffffffffffffffffffffffff1673ffffffffffffffffffffffffffffffffffffffff16815260200186151515158152602001851515151581526020018415151515815260200183151515158152602001828103825289818151815260200191508051906020019080838360005b8381101561022f578082015181840152602081019050610214565b50505050905090810190601f16801561025c5780820380516001836020036101000a031916815260200191505b509850505050505050505060405180910390f35b34801561027c57600080fd5b50610285610ba2565b6040518082815260200191505060405180910390f35b3480156102a757600080fd5b506102c660048036038101908080359060200190929190505050610ba8565b005b3480156102d457600080fd5b506102f360048036038101908080359060200190929190505050610cd6565b005b34801561030157600080fd5b5061034060048036038101908080359060200190929190803573ffffffffffffffffffffffffffffffffffffffff169060200190929190505050610e4b565b005b34801561034e57600080fd5b506103db600480360381019080803590602001908201803590602001908080601f01602080910402602001604051908101604052809392919081815260200183838082843782019150505050505091929192908035906020019092919080359060200190929190803590602001909291908035906020019092919080359060200190929190505050610fb8565b005b3480156103e957600080fd5b50610408600480360381019080803590602001909291905050506111b0565b6040518085815260200184815260200183815260200182815260200194505050505060405180910390f35b34801561043f57600080fd5b5061045e600480360381019080803590602001909291905050506111e5565b005b34801561046c57600080fd5b5061048b600480360381019080803590602001909291905050506113ea565b005b34801561049957600080fd5b506104b86004803603810190808035906020019092919050505061155f565b005b3480156104c657600080fd5b506104ef60048036038101908080359060200190929190803590602001909291905050506116d4565b604051808581526020018481526020018381526020018215151515815260200194505050505060405180910390f35b34801561052a57600080fd5b5061054960048036038101908080359060200190929190505050611723565b005b34801561055757600080fd5b5061059660048036038101908080359060200190929190803573ffffffffffffffffffffffffffffffffffffffff1690602001909291905050506118ac565b005b3480156105a457600080fd5b506105c360048036038101908080359060200190929190505050611a19565b005b3480156105d157600080fd5b506105da611b2e565b005b3480156105e857600080fd5b5061061460048036038101908080359060200190929190803560ff169060200190929190505050611b96565b005b34801561062257600080fd5b50610657600480360381019080803573ffffffffffffffffffffffffffffffffffffffff169060200190929190505050611c32565b005b34801561066557600080fd5b5061068460048036038101908080359060200190929190505050611cd1565b005b34801561069257600080fd5b506106b160048036038101908080359060200190929190505050611dfe565b60405180806020018b73ffffffffffffffffffffffffffffffffffffffff1673ffffffffffffffffffffffffffffffffffffffff1681526020018a73ffffffffffffffffffffffffffffffffffffffff1673ffffffffffffffffffffffffffffffffffffffff168152602001898152602001888152602001878152602001806020018060200186815260200185815260200184810384528e818151815260200191508051906020019080838360005b8381101561077b578082015181840152602081019050610760565b50505050905090810190601f1680156107a85780820380516001836020036101000a031916815260200191505b50848103835288818151815260200191508051906020019080838360005b838110156107e15780820151818401526020810190506107c6565b50505050905090810190601f16801561080e5780820380516001836020036101000a031916815260200191505b50848103825287818151815260200191508051906020019080838360005b8381101561084757808201518184015260208101905061082c565b50505050905090810190601f1680156108745780820380516001836020036101000a031916815260200191505b509d505050505050505050505050505060405180910390f35b34801561089957600080fd5b506108b860048036038101908080359060200190929190505050612288565b005b6108d8600480360381019080803590602001909291905050506123b9565b005b3480156108e657600080fd5b506109a9600480360381019080803590602001908201803590602001908080601f0160208091040260200160405190810160405280939291908181526020018383808284378201915050505050509192919290803573ffffffffffffffffffffffffffffffffffffffff169060200190929190803573ffffffffffffffffffffffffffffffffffffffff1690602001909291908035906020019092919080359060200190929190803590602001909291908035906020019092919050505061257a565b005b3480156109b757600080fd5b50610a266004803603810190808035906020019092919080359060200190929190803590602001909291908035906020019092919080359060200190929190803590602001909291908035906020019092919080359060200190929190803590602001909291905050506127e2565b005b60606000806000806000806000600660008a81526020019081526020016000209050806000018160010160009054906101000a900473ffffffffffffffffffffffffffffffffffffffff168260020160009054906101000a900473ffffffffffffffffffffffffffffffffffffffff1683601e0160000160009054906101000a900460ff1684601e0160000160019054906101000a900460ff1685601e0160000160029054906101000a900460ff1686601e0160000160039054906101000a900460ff16868054600181600116156101000203166002900480601f016020809104026020016040519081016040528092919081815260200182805460018160011615610100020316600290048015610b815780601f10610b5657610100808354040283529160200191610b81565b820191906000526020600020905b815481529060010190602001808311610b6457829003601f168201915b50505050509650975097509750975097509750975050919395979092949650565b60025481565b8060036007811115610bb657fe5b6006600083815260200190815260200160002060080160009054906101000a900460ff166007811115610be557fe5b141515610bf157600080fd5b6006600083815260200190815260200160002060010160009054906101000a900473ffffffffffffffffffffffffffffffffffffffff168073ffffffffffffffffffffffffffffffffffffffff163373ffffffffffffffffffffffffffffffffffffffff16141515610c6257600080fd5b60046006600085815260200190815260200160002060080160006101000a81548160ff02191690836007811115610c9557fe5b02179055507f502749b8a684cf092b2cfff41a59b9aff2bde23e3a1aca4b3cde4a6fe6db817d836040518082815260200191505060405180910390a1505050565b6000808260066007811115610ce757fe5b6006600083815260200190815260200160002060080160009054906101000a900460ff166007811115610d1657fe5b141515610d2257600080fd5b6000809054906101000a900473ffffffffffffffffffffffffffffffffffffffff1673ffffffffffffffffffffffffffffffffffffffff163373ffffffffffffffffffffffffffffffffffffffff16141515610d7d57600080fd5b6001151560066000868152602001908152602001600020600b0160009054906101000a900460ff161515141515610db357600080fd5b6000925060066000858152602001908152602001600020601801600301549150600554821115610e145760016006600086815260200190815260200160002060180160040160006101000a81548160ff021916908315150217905550600192505b8260066000868152602001908152602001600020601e0160000160036101000a81548160ff02191690831515021790555050505050565b8160046007811115610e5957fe5b6006600083815260200190815260200160002060080160009054906101000a900460ff166007811115610e8857fe5b141515610e9457600080fd5b6000809054906101000a900473ffffffffffffffffffffffffffffffffffffffff1673ffffffffffffffffffffffffffffffffffffffff163373ffffffffffffffffffffffffffffffffffffffff16141515610eef57600080fd5b816006600085815260200190815260200160002060020160006101000a81548173ffffffffffffffffffffffffffffffffffffffff021916908373ffffffffffffffffffffffffffffffffffffffff16021790555060056006600085815260200190815260200160002060080160006101000a81548160ff02191690836007811115610f7757fe5b02179055507fbc5d71c5231a7ff8e7cc6e9cf79fcc6a1d2e91a2c5ec4d4f7cd4d6ba387a19c9836040518082815260200191505060405180910390a1505050565b6000809054906101000a900473ffffffffffffffffffffffffffffffffffffffff1673ffffffffffffffffffffffffffffffffffffffff163373ffffffffffffffffffffffffffffffffffffffff1614151561101357600080fd5b60006002541415151561102557600080fd5b856006600060025481526020019081526020016000206000019080519060200190611051929190612a5e565b508460066000600254815260200190815260200160002060030181905550836006600060025481526020019081526020016000206004018190555082600660006002548152602001908152602001600020600501819055508460066000600254815260200190815260200160002060060181905550846202ec890260066000600254815260200190815260200160002060070181905550600160066000600254815260200190815260200160002060080160006101000a81548160ff0219169083600781111561111d57fe5b0217905550600060066000600254815260200190815260200160002060080160016101000a81548160ff0219169083600181111561115757fe5b0217905550816006600060025481526020019081526020016000206009018190555080600660006002548152602001908152602001600020600a0181905550600260008154809291906001019190505550505050505050565b600080600080600354600454600554600660008981526020019081526020016000206007015493509350935093509193509193565b60008082600660078111156111f657fe5b6006600083815260200190815260200160002060080160009054906101000a900460ff16600781111561122557fe5b14151561123157600080fd5b6000809054906101000a900473ffffffffffffffffffffffffffffffffffffffff1673ffffffffffffffffffffffffffffffffffffffff163373ffffffffffffffffffffffffffffffffffffffff1614151561128c57600080fd5b6001151560066000868152602001908152602001600020601d0160009054906101000a900460ff1615151415156112c257600080fd5b60066000858152602001908152602001600020601e01925060009150600115158360000160009054906101000a900460ff16151514806113175750600115158360000160019054906101000a900460ff161515145b806113375750600115158360000160029054906101000a900460ff161515145b806113575750600115158360000160039054906101000a900460ff161515145b1561136157600191505b6001151582151514156113ab5760016006600086815260200190815260200160002060080160016101000a81548160ff021916908360018111156113a157fe5b02179055506113e4565b60006006600086815260200190815260200160002060080160016101000a81548160ff021916908360018111156113de57fe5b02179055505b50505050565b60008082600660078111156113fb57fe5b6006600083815260200190815260200160002060080160009054906101000a900460ff16600781111561142a57fe5b14151561143657600080fd5b6000809054906101000a900473ffffffffffffffffffffffffffffffffffffffff1673ffffffffffffffffffffffffffffffffffffffff163373ffffffffffffffffffffffffffffffffffffffff1614151561149157600080fd5b6001151560066000868152602001908152602001600020600b0160009054906101000a900460ff1615151415156114c757600080fd5b6000925060066000858152602001908152602001600020600c0160010154915060035482111561152857600160066000868152602001908152602001600020600c0160020160006101000a81548160ff021916908315150217905550600192505b8260066000868152602001908152602001600020601e0160000160006101000a81548160ff02191690831515021790555050505050565b600080826006600781111561157057fe5b6006600083815260200190815260200160002060080160009054906101000a900460ff16600781111561159f57fe5b1415156115ab57600080fd5b6000809054906101000a900473ffffffffffffffffffffffffffffffffffffffff1673ffffffffffffffffffffffffffffffffffffffff163373ffffffffffffffffffffffffffffffffffffffff1614151561160657600080fd5b6001151560066000868152602001908152602001600020600b0160009054906101000a900460ff16151514151561163c57600080fd5b600092506006600085815260200190815260200160002060120160040154915060045482111561169d5760016006600086815260200190815260200160002060120160050160006101000a81548160ff021916908315150217905550600192505b8260066000868152602001908152602001600020601e0160000160026101000a81548160ff02191690831515021790555050505050565b600080600080600060066000888152602001908152602001600020600c01905086816000015482600101548360020160009054906101000a900460ff1694509450945094505092959194509250565b600080826006600781111561173457fe5b6006600083815260200190815260200160002060080160009054906101000a900460ff16600781111561176357fe5b14151561176f57600080fd5b6000809054906101000a900473ffffffffffffffffffffffffffffffffffffffff1673ffffffffffffffffffffffffffffffffffffffff163373ffffffffffffffffffffffffffffffffffffffff161415156117ca57600080fd5b6001151560066000868152602001908152602001600020600b0160009054906101000a900460ff16151514151561180057600080fd5b6000925060066000858152602001908152602001600020600f01600101549150600660008581526020019081526020016000206007015482111561187557600160066000868152602001908152602001600020600f0160020160006101000a81548160ff021916908315150217905550600192505b8260066000868152602001908152602001600020601e0160000160016101000a81548160ff02191690831515021790555050505050565b81600260078111156118ba57fe5b6006600083815260200190815260200160002060080160009054906101000a900460ff1660078111156118e957fe5b1415156118f557600080fd5b6000809054906101000a900473ffffffffffffffffffffffffffffffffffffffff1673ffffffffffffffffffffffffffffffffffffffff163373ffffffffffffffffffffffffffffffffffffffff1614151561195057600080fd5b816006600085815260200190815260200160002060010160006101000a81548173ffffffffffffffffffffffffffffffffffffffff021916908373ffffffffffffffffffffffffffffffffffffffff16021790555060036006600085815260200190815260200160002060080160006101000a81548160ff021916908360078111156119d857fe5b02179055507f92f64ca637d023f354075a4be751b169c1a8a9ccb6d33cdd0cb3520543995727836040518082815260200191505060405180910390a1505050565b6000809054906101000a900473ffffffffffffffffffffffffffffffffffffffff1673ffffffffffffffffffffffffffffffffffffffff163373ffffffffffffffffffffffffffffffffffffffff16141515611a7457600080fd5b60016007811115611a8157fe5b6006600083815260200190815260200160002060080160009054906101000a900460ff166007811115611ab057fe5b141515611abc57600080fd5b7fa96ae0fc3224ebd79eebfe54bd130cc9cb94416cddd1f2386115e00b72532468816040518082815260200191505060405180910390a160026006600083815260200190815260200160002060080160006101000a81548160ff02191690836007811115611b2657fe5b021790555050565b611b4b7314723a09acff6d2a60dcdf7aa4aff308fddc160c611c32565b611b946040805190810160405280600c81526020017f746573744261747465727931000000000000000000000000000000000000000081525060aa606460506107e36003610fb8565b565b60008060009054906101000a900473ffffffffffffffffffffffffffffffffffffffff1673ffffffffffffffffffffffffffffffffffffffff163373ffffffffffffffffffffffffffffffffffffffff16141515611bf357600080fd5b600660008481526020019081526020016000209050818160080160016101000a81548160ff02191690836001811115611c2857fe5b0217905550505050565b6000809054906101000a900473ffffffffffffffffffffffffffffffffffffffff1673ffffffffffffffffffffffffffffffffffffffff163373ffffffffffffffffffffffffffffffffffffffff16141515611c8d57600080fd5b80600160006101000a81548173ffffffffffffffffffffffffffffffffffffffff021916908373ffffffffffffffffffffffffffffffffffffffff16021790555050565b8060056007811115611cdf57fe5b6006600083815260200190815260200160002060080160009054906101000a900460ff166007811115611d0e57fe5b141515611d1a57600080fd5b6006600083815260200190815260200160002060020160009054906101000a900473ffffffffffffffffffffffffffffffffffffffff168073ffffffffffffffffffffffffffffffffffffffff163373ffffffffffffffffffffffffffffffffffffffff16141515611d8b57600080fd5b600680600085815260200190815260200160002060080160006101000a81548160ff02191690836007811115611dbd57fe5b02179055507f3ec796be1be7d03bff3a62b9fa594a60e947c1809bced06d929f145308ae57ce836040518082815260200191505060405180910390a1505050565b606060008060008060006060806000806000806000600660008f815260200190815260200160002092508260080160009054906101000a900460ff166007811115611e4557fe5b91508260080160019054906101000a900460ff166001811115611e6457fe5b90506000821415611eac576040805190810160405280600781526020017f44656661756c740000000000000000000000000000000000000000000000000081525096506120d6565b6001821415611ef2576040805190810160405280600881526020017f50726f647563656400000000000000000000000000000000000000000000000081525096506120d5565b6002821415611f38576040805190810160405280600781526020017f466f7253616c650000000000000000000000000000000000000000000000000081525096506120d4565b6003821415611f7e576040805190810160405280600481526020017f536f6c640000000000000000000000000000000000000000000000000000000081525096506120d3565b6004821415611fc4576040805190810160405280600981526020017f496e7374616c6c6564000000000000000000000000000000000000000000000081525096506120d2565b600582141561200a576040805190810160405280600781526020017f4d616e616765640000000000000000000000000000000000000000000000000081525096506120d1565b6006821415612050576040805190810160405280600681526020017f416374697665000000000000000000000000000000000000000000000000000081525096506120d0565b6007821415612096576040805190810160405280600881526020017f52657475726e656400000000000000000000000000000000000000000000000081525096506120cf565b6040805190810160405280600981526020017f556e646566696e6564000000000000000000000000000000000000000000000081525096505b5b5b5b5b5b5b5b600081141561211c576040805190810160405280600e81526020017f556e6465722057617272616e7479000000000000000000000000000000000000815250955061215f565b600181141561215e576040805190810160405280600f81526020017f4f7574206f662057617272616e7479000000000000000000000000000000000081525095505b5b826000018360010160009054906101000a900473ffffffffffffffffffffffffffffffffffffffff168460020160009054906101000a900473ffffffffffffffffffffffffffffffffffffffff168560050154866003015487600401548c8c8a600901548b600a0154898054600181600116156101000203166002900480601f01602080910402602001604051908101604052809291908181526020018280546001816001161561010002031660029004801561225d5780601f106122325761010080835404028352916020019161225d565b820191906000526020600020905b81548152906001019060200180831161224057829003601f168201915b505050505099509c509c509c509c509c509c509c509c509c509c505050509193959799509193959799565b806006600781111561229657fe5b6006600083815260200190815260200160002060080160009054906101000a900460ff1660078111156122c557fe5b1415156122d157600080fd5b6000809054906101000a900473ffffffffffffffffffffffffffffffffffffffff1673ffffffffffffffffffffffffffffffffffffffff163373ffffffffffffffffffffffffffffffffffffffff1614151561232c57600080fd5b6001151560066000848152602001908152602001600020600b0160009054906101000a900460ff16151514151561236257600080fd5b61236b826113ea565b61237482611723565b61237d8261155f565b61238682610cd6565b600160066000848152602001908152602001600020601d0160006101000a81548160ff0219169083151502179055505050565b60008082600260078111156123ca57fe5b6006600083815260200190815260200160002060080160009054906101000a900460ff1660078111156123f957fe5b14151561240557600080fd5b600660008581526020019081526020016000206005015480341015151561242b57600080fd5b33935060066000868152602001908152602001600020600501549250836006600087815260200190815260200160002060010160006101000a81548173ffffffffffffffffffffffffffffffffffffffff021916908373ffffffffffffffffffffffffffffffffffffffff16021790555060036006600087815260200190815260200160002060080160006101000a81548160ff021916908360078111156124cf57fe5b02179055506000809054906101000a900473ffffffffffffffffffffffffffffffffffffffff1673ffffffffffffffffffffffffffffffffffffffff166108fc849081150290604051600060405180830381858888f1935050505015801561253b573d6000803e3d6000fd5b507f92f64ca637d023f354075a4be751b169c1a8a9ccb6d33cdd0cb3520543995727856040518082815260200191505060405180910390a15050505050565b6000809054906101000a900473ffffffffffffffffffffffffffffffffffffffff1673ffffffffffffffffffffffffffffffffffffffff163373ffffffffffffffffffffffffffffffffffffffff161415156125d557600080fd5b6000600254141515156125e757600080fd5b866006600060025481526020019081526020016000206000019080519060200190612613929190612a5e565b508560066000600254815260200190815260200160002060010160006101000a81548173ffffffffffffffffffffffffffffffffffffffff021916908373ffffffffffffffffffffffffffffffffffffffff1602179055508460066000600254815260200190815260200160002060020160006101000a81548173ffffffffffffffffffffffffffffffffffffffff021916908373ffffffffffffffffffffffffffffffffffffffff160217905550836006600060025481526020019081526020016000206003018190555082600660006002548152602001908152602001600020600401819055508360066000600254815260200190815260200160002060060181905550600160066000600254815260200190815260200160002060080160006101000a81548160ff0219169083600781111561274e57fe5b0217905550600060066000600254815260200190815260200160002060080160016101000a81548160ff0219169083600181111561278857fe5b0217905550816006600060025481526020019081526020016000206009018190555080600660006002548152602001908152602001600020600a018190555060026000815480929190600101919050555050505050505050565b88600660078111156127f057fe5b6006600083815260200190815260200160002060080160009054906101000a900460ff16600781111561281f57fe5b14151561282b57600080fd5b600660008b815260200190815260200160002060020160009054906101000a900473ffffffffffffffffffffffffffffffffffffffff168073ffffffffffffffffffffffffffffffffffffffff163373ffffffffffffffffffffffffffffffffffffffff1614151561289c57600080fd5b89600660008d8152602001908152602001600020600c016000018190555085600660008d8152602001908152602001600020600c016001018190555089600660008d8152602001908152602001600020600f016000018190555084600660008d8152602001908152602001600020600f016001018190555089600660008d81526020019081526020016000206012016000018190555088600660008d81526020019081526020016000206012016001018190555087600660008d81526020019081526020016000206012016002018190555086600660008d81526020019081526020016000206012016003018190555083600660008d81526020019081526020016000206012016004018190555089600660008d81526020019081526020016000206018016000018190555088600660008d81526020019081526020016000206018016001018190555087600660008d81526020019081526020016000206018016002018190555082600660008d8152602001908152602001600020601801600301819055506001600660008d8152602001908152602001600020600b0160006101000a81548160ff0219169083151502179055505050505050505050505050565b828054600181600116156101000203166002900490600052602060002090601f016020900481019282601f10612a9f57805160ff1916838001178555612acd565b82800160010185558215612acd579182015b82811115612acc578251825591602001919060010190612ab1565b5b509050612ada9190612ade565b5090565b612b0091905b80821115612afc576000816000905550600101612ae4565b5090565b905600a165627a7a723058204deb0624319c1548bdf17ae7ef0862337e6041ab1345ebb4061d625840ba24030029",
  "source": "pragma solidity ^0.4.9;\n// pragma solidity ^0.5.2;\n// pragma experimental ABIEncoderV2;\n\n//------------------------------------------------------------------------------\n// Decentralized EMS platform using Smart Contract for Warranty Application for \n//  - Battery Provider\n//  - Battery Owner\n//  - EMS Provider\n//------------------------------------------------------------------------------\n// Contract to manage Smart Warranty regarding  \n//  - Annual average SOC condition\n//  - Average hourly temperature condition\n//  - Annual accumulated discharge energy of the product\n//  - Peak DC power per rack\n//  - Daily average rack power\n//  - Substantial portion of all half-cycles\n//------------------------------------------------------------------------------\ncontract SmartWarranty {\n    \n    // Battery and Warranty Provider (e.g. LG Chem)\n    address batteryProvider;\n    \n    // Energy Management System (EMS) Provider (e.g. NEC Energy Solution)\n    address trustedEMSProvider;\n    \n    // Variable: tokenId for a battery that is used to distinguish all the batteries produced by the provider\n    uint public tokenId = 1;\n\n    // List of warranty parameters\n    uint max_average_soc;\n    uint peak_dc_rack_power;\n    uint daily_avg_rack_power;\n\n    // uint abs_min_enclosure_temp;\n    // uint nom_min_enclosure_temp;\n    // uint max_enclosure_temp;\n    // uint min_module_temp;\n    // uint max_average_enclosure_temp;\n    // uint abs_max_storage_temp;\n    // uint max_module_oper_temp;\n    // uint soc_penalty_factor;\n    // uint avg_temp_penalty_factor_1;\n    // uint avg_temp_penalty_factor_2;\n    // uint avg_temp_penalty_factor_3;\n    // uint peak_power_penalty_factor;\n    // uint avg_power_penalty_factor;\n    // uint max_dod;\n    \n    // Need to add DEFAULT\n    enum State {DEFAULT, PRODUCED, FORSALE, SOLD, INSTALLED, MANAGED, ACTIVE, RETURNED}\n    enum WarrantyStatus {UNDER_WARRANTY, OUT_OF_WARRANTY}\n\n    // Owner's Information\n    struct OwnerInfo {\n        string ownerID;\n        string firstName;\n        string lastName;\n        string companyName;\n    }\n    \n    // EMS Provider information: need to be approved by the battery provider\n    struct EnergyManagementSystemProvider {\n        address emsProvider;\n        bool isApproved;\n    }\n    \n    // Battery Information\n    struct BatteryInfo {\n        \n        // An arbitrary battery ID\n        string batteryID;\n        \n        // The onwer of the battery after sold\n        address owner;\n        \n        // Trusted EMS Provider (e.g. NEC)\n        address emsProvider;\n        \n        // Original Capacity in kWh\n        uint bolCapacity;\n        \n        // Maximum power (PCS) in kW\n        uint maxPower;\n        \n        // Battery price in Ether\n        uint price;\n        \n        // Degraded capacity\n        // If it reaches 60%, the battery is goint to be out of warranty\n        uint adjustedCapacity;\n        \n        uint annual_accum_disch_energy;\n        \n        // State: forSale, sold, managed, underControl, returned, etc.\n        State state;\n        \n        // WarrantyStatus: underWarranty or outOfWarranty\n        WarrantyStatus warrantyStatus;\n        \n        // Current year\n        uint currentYear;\n        \n        // Warranty period could be 3 years or 4-10 years with extension as long as 60% of the capacity remains\n        // If you want to extend, you have to pay for extension before the year\n        uint warrantyPeriod; \n        // uint extendedWarranty;\n    \n        // uint acceptedDate;\n        // uint operationStartDateTime;\n        // uint operationEndDateTime;\n        // uint warrantyViolatedDateTime;\n        \n        // In reality, this becomes much more complicated with the real-time Application, this is beta version of warranty app\n        // Later it is going to be updated to accomodate multi-year data\n        bool isDataReported;\n        AnnualAverageSOC annualAverageSOC;\n        AnnualAccumulatedDischargeEnergy aade;\n        PeakDCPower peakDCPower;\n        DailyAverageDCPower dailyAverageDCPower;\n        \n        // When the warranty contract should be expanded for multiple years\n        //mapping(uint => AnnualAverageSOC) yearToAnnualAverageSOCInfo;\n        //AnnualAverageSOC[] annualAverageSOCList;\n        \n        bool isWarrantyAnalyzed;\n        WarrantyAnalysisInfo warrantyAnalysisInfo;\n        \n    }\n    \n    // Annual average SOC information\n    struct AnnualAverageSOC {\n        uint year;\n        // uint startDate;\n        // uint endDate;\n        uint value;\n        bool violationFlag;\n    }\n    \n    // Annual Accumulated Discharge Energy Information\n    struct AnnualAccumulatedDischargeEnergy {\n        uint year;\n        uint value;\n        bool violationFlag;\n    }\n    \n    // Peak DC Power Information\n    struct PeakDCPower {\n        uint year;\n        uint month;\n        uint day;\n        uint hour;\n        uint value;\n        bool violationFlag;\n    }\n    \n    // Daily Average DC Power Information\n    struct DailyAverageDCPower {\n        uint year;\n        uint month;\n        uint day;\n        uint value;\n        bool violationFlag;\n    }\n\n    // Warranty Violation Information for each conditioin\n    // If one of following gets violated and becomes true, the warranty is out.\n    struct WarrantyAnalysisInfo {\n        bool annualAverageSOCViolation;\n        bool annualAccumulatedDischargeEnergyViolation;\n        bool peakDCPowerViolation;\n        bool dailyAverageDCPowerViolation;\n        //bool averageHourlyTemperatureViolation;\n    }\n    \n    //mapping(address => OwnerInfo) addressToOwnerInfo;\n    \n    mapping(uint256 => BatteryInfo) tokenIdToBatteryInfo;\n    //BatteryInfo[] public batteries; // Needed to deal with like an array\n    \n    // Events\n    event ForSale(uint tokenId);\n    event Sold(uint _tokenId);\n    event Installed(uint _tokenId);\n    event Managed(uint _tokenId);\n    event Activated(uint _tokenId);\n    \n    // Currently the modifier conditions are minimized for easier testing\n    modifier onlyProvider {\n        require(msg.sender == batteryProvider);\n        _;\n    }\n    \n    modifier onlyEMSProvider(address _emsProvider) {\n        require(msg.sender == _emsProvider);\n        _;\n    }\n    \n    modifier onlyOwner(address _owner) {\n        require(msg.sender == _owner);\n        _;\n    }\n    \n    // Define a modifier that verifies the Caller\n    modifier verifyCaller (address _address) {\n        require(msg.sender == _address);\n        _;\n    }\n\n    // Define a modifier that checks if the paid amount is sufficient to cover the price\n    modifier paidEnough(uint _price) {\n        require(msg.value >= _price);\n        _;\n    }\n\n    // Define a modifier that checks if the state of the item of _tokenId is ForSale\n    modifier forSale(uint _tokenId) {\n        require(tokenIdToBatteryInfo[_tokenId].state == State.FORSALE);\n        _;\n    }\n\n    // Define a modifier that checks if the state of the item of _tokenId is Sold\n    modifier sold(uint _tokenId) {\n        require(tokenIdToBatteryInfo[_tokenId].state == State.SOLD);\n        _;\n    }\n    \n    // Define a modifier that checks if the state of the item of _tokenId is Installed\n    modifier installed(uint _tokenId) {\n        require(tokenIdToBatteryInfo[_tokenId].state == State.INSTALLED);\n        _;\n    }\n    \n    // Define a modifier that checks if the state of the item of _tokenId is managed\n    modifier managed(uint _tokenId) {\n        require(tokenIdToBatteryInfo[_tokenId].state == State.MANAGED);\n        _;\n    }\n\n    // Define a modifier that checks if the state of the item of _tokenId is activated\n    modifier activated(uint _tokenId) {\n        require(tokenIdToBatteryInfo[_tokenId].state == State.ACTIVE);\n        _;\n    }\n    \n    // Define a modifier that checks if the state of the item of _tokenId is activated\n    modifier isDataReported(uint _tokenId) {\n        require(tokenIdToBatteryInfo[_tokenId].isDataReported == true);\n        _;\n    }\n\n    \n    // Constructor: variables are all initialized here\n    constructor() public {\n        \n        batteryProvider = msg.sender;\n        \n        max_average_soc = 53;\n        peak_dc_rack_power = 45670;\n        daily_avg_rack_power = 7600;\n        // abs_min_enclosure_temp = 15;\n        // nom_min_enclosure_temp = 18;\n        // max_enclosure_temp = 28;\n        // min_module_temp = 20;\n        // max_average_enclosure_temp = 25;\n        // abs_max_storage_temp = 60;\n        // max_module_oper_temp = 26500;\n        // annual_accum_disch_energy = 0;\n        // soc_penalty_factor = 2300;\n        // avg_temp_penalty_factor_1 = 4;\n        // avg_temp_penalty_factor_2 = 10;\n        // avg_temp_penalty_factor_3 = 80;\n        // peak_power_penalty_factor = 1;\n        // avg_power_penalty_factor = 9;\n        //max_dod = 100;\n        \n    }\n    \n    function registerTrustedEMSProvider(address _address) public onlyProvider {\n        trustedEMSProvider = _address;\n    }\n    \n    // Registering battery information\n    function registerBatteryInfo(string _batteryID, address batteryOwner, address trustedEMSProvider, uint capacity, uint power, uint year, uint warrantyPeriod) public onlyProvider {\n        \n        require(tokenId != 0);\n        \n        //BatteryInfo memory newBattery = BatteryInfo(_batteryID, batteryOwner, trustedEMSProvider, false, false, false, false, false);\n        //tokenIdToBatteryInfo[tokenId] = newBattery;\n        //tokenIdToBatteryInfo[tokenId].test[2013] = batteryOwner;\n        \n        tokenIdToBatteryInfo[tokenId].batteryID = _batteryID;\n        tokenIdToBatteryInfo[tokenId].owner = batteryOwner;\n        tokenIdToBatteryInfo[tokenId].emsProvider = trustedEMSProvider;\n        tokenIdToBatteryInfo[tokenId].bolCapacity = capacity;\n        tokenIdToBatteryInfo[tokenId].maxPower = power;\n        tokenIdToBatteryInfo[tokenId].adjustedCapacity = capacity;\n        tokenIdToBatteryInfo[tokenId].state = State.PRODUCED;\n        tokenIdToBatteryInfo[tokenId].warrantyStatus = WarrantyStatus.UNDER_WARRANTY;\n        tokenIdToBatteryInfo[tokenId].currentYear = year;\n        tokenIdToBatteryInfo[tokenId].warrantyPeriod  = warrantyPeriod;\n\n        tokenId ++;\n    }\n\n    \n    // Registering battery information\n    function produceBattery(string _batteryID, uint _capacity, uint _power, uint _price, uint _year, uint _warrantyPeriod) public onlyProvider {\n        \n        require(tokenId != 0);\n        \n        tokenIdToBatteryInfo[tokenId].batteryID = _batteryID;\n        tokenIdToBatteryInfo[tokenId].bolCapacity = _capacity;\n        tokenIdToBatteryInfo[tokenId].maxPower = _power;\n        tokenIdToBatteryInfo[tokenId].price = _price;\n        tokenIdToBatteryInfo[tokenId].adjustedCapacity = _capacity;\n        // if year is leap year, need to be 366\n        tokenIdToBatteryInfo[tokenId].annual_accum_disch_energy = 365 * 525 * _capacity;\n        tokenIdToBatteryInfo[tokenId].state = State.PRODUCED;\n        tokenIdToBatteryInfo[tokenId].warrantyStatus = WarrantyStatus.UNDER_WARRANTY;\n        tokenIdToBatteryInfo[tokenId].currentYear = _year;\n        tokenIdToBatteryInfo[tokenId].warrantyPeriod  = _warrantyPeriod;\n        \n        tokenId ++;\n    }\n    \n    function addItem(uint _tokenId) public onlyProvider {\n        require(tokenIdToBatteryInfo[_tokenId].state == State.PRODUCED);\n        \n        // Emit the appropriate event\n        emit ForSale(_tokenId);\n        \n        tokenIdToBatteryInfo[_tokenId].state = State.FORSALE;\n    }\n    \n    function buyItem(uint _tokenId) forSale(_tokenId) paidEnough(tokenIdToBatteryInfo[_tokenId].price) public payable {\n        //require(tokenIdToBatteryInfo[tokenId].state == State.FORSALE);\n        \n        address buyer = msg.sender;\n        uint price = tokenIdToBatteryInfo[_tokenId].price;\n\n        // Update Buyer\n        tokenIdToBatteryInfo[_tokenId].owner = buyer;\n\n        // Update State\n        tokenIdToBatteryInfo[_tokenId].state = State.SOLD;\n\n        // Transfer money to seller\n        batteryProvider.transfer(price);\n        //items[sku].seller.transfer(price);\n\n        // Emit the appropriate event\n        emit Sold(_tokenId);\n    }\n    \n    // Used only when the battery is transacted not using ether coins\n    // In this case, this function is called only by battery provider after confirming the payment\n    function assignBatteryOwner(uint _tokenId, address _address) forSale(_tokenId) onlyProvider public {\n\n        // Update Buyer\n        tokenIdToBatteryInfo[_tokenId].owner = _address;\n\n        // Update State\n        tokenIdToBatteryInfo[_tokenId].state = State.SOLD;\n\n        // Emit the appropriate event\n        emit Sold(_tokenId);\n    }\n    \n    // Once the battery is sold, the onwner needs to install the battery\n    function installBattery(uint _tokenId) sold(_tokenId) onlyOwner(tokenIdToBatteryInfo[_tokenId].owner) public {\n\n        // Update State\n        tokenIdToBatteryInfo[_tokenId].state = State.INSTALLED;\n        \n        // Emit the appropriate event\n        emit Installed(_tokenId);\n    }\n    \n    \n    function manageBattery(uint _tokenId, address _emsProviderAddress) installed(_tokenId) onlyProvider public {\n        \n        // If needed, verify if _addrress is recorded as the trustedEMSProvider\n        \n        // Update EMS Provider\n        tokenIdToBatteryInfo[_tokenId].emsProvider = _emsProviderAddress;\n        \n        // Update State\n        tokenIdToBatteryInfo[_tokenId].state = State.MANAGED;\n\n        // Emit the appropriate event\n        emit Managed(_tokenId);\n    }\n    \n    // EMS Provider should change the state of the battery to active when controling it\n    function utilizeBattery(uint _tokenId) managed(_tokenId) onlyEMSProvider(tokenIdToBatteryInfo[_tokenId].emsProvider) public {\n        \n        // Update State\n        tokenIdToBatteryInfo[_tokenId].state = State.ACTIVE;\n\n        // Emit the appropriate event\n        emit Activated(_tokenId);\n    }\n    \n    // EMS Provider can record important information for warranty analysis\n    function getUsageData(uint _tokenId, uint _year, uint _month, uint _day, uint _hour, uint _socValue, uint _aade, uint _peakDCPower, uint _averageDailyDCPower) activated(_tokenId) onlyEMSProvider(tokenIdToBatteryInfo[_tokenId].emsProvider) public {\n        \n        tokenIdToBatteryInfo[_tokenId].annualAverageSOC.year = _year;\n        tokenIdToBatteryInfo[_tokenId].annualAverageSOC.value = _socValue;\n\n        tokenIdToBatteryInfo[_tokenId].aade.year = _year;\n        tokenIdToBatteryInfo[_tokenId].aade.value = _aade;\n\n        tokenIdToBatteryInfo[_tokenId].peakDCPower.year = _year;\n        tokenIdToBatteryInfo[_tokenId].peakDCPower.month = _month;\n        tokenIdToBatteryInfo[_tokenId].peakDCPower.day = _day;\n        tokenIdToBatteryInfo[_tokenId].peakDCPower.hour = _hour;\n        tokenIdToBatteryInfo[_tokenId].peakDCPower.value = _peakDCPower;\n        \n        tokenIdToBatteryInfo[_tokenId].dailyAverageDCPower.year = _year;\n        tokenIdToBatteryInfo[_tokenId].dailyAverageDCPower.month = _month;\n        tokenIdToBatteryInfo[_tokenId].dailyAverageDCPower.day = _day;\n        tokenIdToBatteryInfo[_tokenId].dailyAverageDCPower.value = _averageDailyDCPower;\n        \n        tokenIdToBatteryInfo[_tokenId].isDataReported = true;\n    }\n    \n    // Once the warranty information is provided, the battery provider will check if the conditions are met\n    function checkWarranty(uint _tokenId) activated(_tokenId) onlyProvider public {\n        require(tokenIdToBatteryInfo[_tokenId].isDataReported == true);\n        \n        checkAnnualAverageSOCWarranty(_tokenId);\n        checkAnnualAccumulatedDischargeEnergyWarranty(_tokenId);\n        checkPeakDCPowerPerRackWarranty(_tokenId);\n        checkDailyAverageDCPowerWarranty(_tokenId);\n        \n        tokenIdToBatteryInfo[_tokenId].isWarrantyAnalyzed = true;\n    }\n    \n    // Checking Annual Average SOC Warranty\n    function checkAnnualAverageSOCWarranty(uint _tokenId) activated(_tokenId) onlyProvider public {\n        require(tokenIdToBatteryInfo[_tokenId].isDataReported == true);\n\n        bool violationFlag = false;\n        uint socValue = tokenIdToBatteryInfo[_tokenId].annualAverageSOC.value;\n\n        if (socValue > max_average_soc) {\n            tokenIdToBatteryInfo[_tokenId].annualAverageSOC.violationFlag = true;\n            violationFlag = true;\n        }\n        \n        tokenIdToBatteryInfo[_tokenId].warrantyAnalysisInfo.annualAverageSOCViolation = violationFlag;\n    }\n    \n    // Checking Annual Accumulated Discharge Energy Warranty\n    function checkAnnualAccumulatedDischargeEnergyWarranty(uint _tokenId) activated(_tokenId) onlyProvider public {\n\n        require(tokenIdToBatteryInfo[_tokenId].isDataReported == true);\n        \n        bool violationFlag = false;\n        uint aade = tokenIdToBatteryInfo[_tokenId].aade.value;\n        if (aade > tokenIdToBatteryInfo[_tokenId].annual_accum_disch_energy) {\n            tokenIdToBatteryInfo[_tokenId].aade.violationFlag = true;\n            violationFlag = true;\n        }\n        \n        tokenIdToBatteryInfo[_tokenId].warrantyAnalysisInfo.annualAccumulatedDischargeEnergyViolation = violationFlag;\n    }\n    \n    // Checking Peak DC Power per Rack Warranty\n    function checkPeakDCPowerPerRackWarranty(uint _tokenId) activated(_tokenId) onlyProvider public {\n        \n        require(tokenIdToBatteryInfo[_tokenId].isDataReported == true);\n        \n        bool violationFlag = false;\n        uint peakBatteryPower = tokenIdToBatteryInfo[_tokenId].peakDCPower.value;\n        if (peakBatteryPower > peak_dc_rack_power) {\n            tokenIdToBatteryInfo[_tokenId].peakDCPower.violationFlag = true;\n            violationFlag = true;\n        }\n        \n        tokenIdToBatteryInfo[_tokenId].warrantyAnalysisInfo.peakDCPowerViolation = violationFlag;\n    }\n    \n    // Checking Daily Average DC Power Warranty\n    function checkDailyAverageDCPowerWarranty(uint _tokenId) activated(_tokenId) onlyProvider public {\n        \n        require(tokenIdToBatteryInfo[_tokenId].isDataReported == true);\n\n        bool violationFlag = false;\n        uint dailyAverageDCPower = tokenIdToBatteryInfo[_tokenId].dailyAverageDCPower.value;\n        if (dailyAverageDCPower > daily_avg_rack_power) {\n            tokenIdToBatteryInfo[_tokenId].dailyAverageDCPower.violationFlag = true;\n            violationFlag = true;\n        }\n        \n        tokenIdToBatteryInfo[_tokenId].warrantyAnalysisInfo.dailyAverageDCPowerViolation = violationFlag;\n    }\n    \n    // Update warranty status if any violation is detected\n    function updateWarranty(uint _tokenId) activated(_tokenId) onlyProvider public {\n        \n        require(tokenIdToBatteryInfo[_tokenId].isWarrantyAnalyzed == true);\n        \n        WarrantyAnalysisInfo wInfo = tokenIdToBatteryInfo[_tokenId].warrantyAnalysisInfo;\n        \n        bool warrantyViolation = false;\n        \n        if (wInfo.annualAverageSOCViolation == true || wInfo.annualAccumulatedDischargeEnergyViolation == true || wInfo.peakDCPowerViolation == true || wInfo.dailyAverageDCPowerViolation == true) {\n            warrantyViolation = true;\n        }\n        \n        if (warrantyViolation == true) {\n            tokenIdToBatteryInfo[_tokenId].warrantyStatus = WarrantyStatus.OUT_OF_WARRANTY;\n        } else {\n            tokenIdToBatteryInfo[_tokenId].warrantyStatus = WarrantyStatus.UNDER_WARRANTY;\n        }\n    }\n\n    function testProduceBatteryAndEMSProvider() public {\n        \n        registerTrustedEMSProvider(0x14723a09acff6d2a60dcdf7aa4aff308fddc160c);\n        \n        // 1 eth ~= 130 as of 3/12/2019\n        produceBattery(\"testBattery1\", 170, 100, 80, 2019, 3);\n\n    }\n    \n    // function testRegisterBatteryInfo() public {\n    //     registerBatteryInfo(\"testBattery1\", 0x14723a09acff6d2a60dcdf7aa4aff308fddc160c, 0xca35b7d915458ef540ade6068dfe2f44e8fa733c, 570, 100, 2019, 3);\n    //     registerBatteryInfo(\"testBattery2\", 0x4b0897b0513fdc7c541b6d9d7e929c4e5364d2db, 0xca35b7d915458ef540ade6068dfe2f44e8fa733c, 80, 100, 2019, 4);\n    // }\n    \n    // function testAADE() public {\n    //     inputAnnualAccumulatedDischargeEnergy(1, 100);\n    // }\n\n    // The annual average SOC condition\n    // function inputAnnualAverageSOCInfo(uint _tokenId, uint year, uint acceptanceDate, uint endDate, uint socValue) public {\n        \n    //     require(tokenId > _tokenId);\n        \n    //     bool violationFlag = false;\n    //     if (socValue > max_average_soc) {\n    //         violationFlag = true;\n    //     }\n        \n    //     //AnnualAverageSOC memory socObj = AnnualAverageSOC(year, acceptanceDate, endDate, socValue, violationFlag);\n    //     AnnualAverageSOC memory socObj = AnnualAverageSOC(year, socValue, violationFlag);\n    //     tokenIdToAnnualAverageSOCList[_tokenId].push(socObj);\n        \n    //     tokenIdToBatteryInfo[_tokenId].annualAverageSOC = socObj;\n    //     //tokenIdToBatteryInfo[_tokenId].yearToAnnualAverageSOCInfo[year] = socObj;\n    //     tokenIdToBatteryInfo[_tokenId].warrantyAnalysisInfo.annualAverageSOCViolation = violationFlag;\n    // }\n    \n    // function inputAnnualAverageSOCInfo(uint _tokenId, uint year, uint socValue) public {\n    //     require(tokenId > _tokenId);\n    //     AnnualAverageSOC memory socObj = AnnualAverageSOC(year, socValue, false);\n    //     //tokenIdToAnnualAverageSOCList[_tokenId].push(socObj);\n    //     tokenIdToBatteryInfo[_tokenId].annualAverageSOC = socObj;\n    //     //tokenIdToBatteryInfo[_tokenId].yearToAnnualAverageSOCInfo[year] = socObj;\n    // }\n    \n    //TODO\n    // The average hourly temperature condition\n    /* function inputAverageHourlyTemperatureInsideBatteryEnclosure(uint _tokenId, uint averageHourlyTemperatureInsideBatteryEnclosure, uint moduleTemperature, uint averageDailyBatteryEnclosureTemperature) public {\n        \n        require(tokenId > _tokenId);\n        \n        bool violationFlag = false;\n        \n        // If the average daily battery enclosure temperature is less than max_average_enclosure_temp\n        if (averageDailyBatteryEnclosureTemperature < max_average_enclosure_temp) {\n\n            // If one or more module temperatures are greater than min_module_temp\n            if (moduleTemperature > min_module_temp) {\n                if (averageHourlyTemperatureInsideBatteryEnclosure < abs_min_enclosure_temp || max_enclosure_temp < averageHourlyTemperatureInsideBatteryEnclosure) {\n                    violationFlag = true;\n                }\n            } \n            \n            // If all of the module temperatures are less than min_module_temp\n            else {\n                if (averageHourlyTemperatureInsideBatteryEnclosure < nom_min_enclosure_temp || max_enclosure_temp < averageHourlyTemperatureInsideBatteryEnclosure) {\n                    violationFlag = true;\n                }\n            }\n            \n        } \n        \n        // If the average daily battery enclosure temperature is more than max_average_enclosure_temp\n        else {\n            violationFlag = true;\n        }\n        \n        BatteryInfo storage bInfo = tokenIdToBatteryInfo[_tokenId];\n        bInfo.warrantyAnalysisInfo.averageHourlyTemperatureViolation = violationFlag;\n    } */\n\n    \n    //TODO need modifier\n    function modifyWarrantyState(uint _tokenId, WarrantyStatus status) onlyProvider public {\n        \n        BatteryInfo storage bInfo = tokenIdToBatteryInfo[_tokenId];\n        bInfo.warrantyStatus = status;\n\n    }\n\n    function showBatteryInfo(uint _tokenId) public constant returns (string batteryID, address owner, address emsProvider, uint price, uint bolCapacity, uint maxPower, string stateIs, string warrantyStatus, uint currentYear, uint warrantyPeriod) {\n        BatteryInfo storage bInfo = tokenIdToBatteryInfo[_tokenId];\n        uint bstate = uint(bInfo.state);\n        uint wstatus = uint(bInfo.warrantyStatus);\n\n        // PRODUCED, FORSALE, SOLD, INSTALLED, MANAGED, RETURNED}\n        if (bstate == 0) {\n            stateIs = \"Default\";\n        } else if (bstate == 1) {\n            stateIs = \"Produced\";\n        } else if (bstate == 2) {\n            stateIs = \"ForSale\";\n        } else if (bstate == 3) {\n            stateIs = \"Sold\";\n        } else if (bstate == 4) {\n            stateIs = \"Installed\";\n        } else if (bstate == 5) {\n            stateIs = \"Managed\";\n        } else if (bstate == 6) {\n            stateIs = \"Active\";\n        } else if (bstate == 7) {\n            stateIs = \"Returned\";\n        } else {\n            stateIs = \"Undefined\";\n        }\n        \n        if (wstatus == 0) {\n            warrantyStatus = \"Under Warranty\";\n        } else if (wstatus == 1) {\n            warrantyStatus = \"Out of Warranty\";\n        } \n         \n        return (\n            bInfo.batteryID, \n            bInfo.owner,\n            bInfo.emsProvider,\n            bInfo.price,\n            bInfo.bolCapacity,\n            bInfo.maxPower,\n            stateIs,\n            warrantyStatus,\n            bInfo.currentYear,\n            bInfo.warrantyPeriod\n        );\n    }\n    \n    function showBatteryViolationInfo(uint _tokenId) public constant returns (string batteryID, address owner, address emsProvider, bool annualAverageSOCViolation, bool annualAccumulatedDischargeEnergyViolation, bool peakDCPowerViolation, bool dailyAverageDCPowerViolation) {\n        BatteryInfo storage bInfo = tokenIdToBatteryInfo[_tokenId];\n        \n        return (\n            bInfo.batteryID, \n            bInfo.owner,\n            bInfo.emsProvider,\n            bInfo.warrantyAnalysisInfo.annualAverageSOCViolation,\n            bInfo.warrantyAnalysisInfo.annualAccumulatedDischargeEnergyViolation,\n            bInfo.warrantyAnalysisInfo.peakDCPowerViolation,\n            bInfo.warrantyAnalysisInfo.dailyAverageDCPowerViolation\n            //bInfo.warrantyAnalysisInfo.averageHourlyTemperatureViolation,\n            //bInfo.test[2013]\n        );\n    }\n\n    function showAnnualAverageSOC(uint _tokenId, uint _year) public constant returns (uint TokenID, uint year, uint annualAverageSOC, bool annualAverageSOCViolation) {\n        \n        //AnnualAverageSOC[] socInfoList = tokenIdToAnnualAverageSOCList[_tokenId];\n        AnnualAverageSOC socInfo = tokenIdToBatteryInfo[_tokenId].annualAverageSOC;\n        \n        return (\n            _tokenId,\n            socInfo.year,\n            socInfo.value,\n            socInfo.violationFlag\n        );\n    }\n    \n    function showVariables(uint _tokenId) public constant returns (uint Max_Average_Soc, uint Peak_DC_Rack_Power, uint Daily_Avg_Rack_Power, uint Annual_Accum_Disch_Energy) {\n        return (\n            max_average_soc,\n            peak_dc_rack_power,\n            daily_avg_rack_power,\n            tokenIdToBatteryInfo[_tokenId].annual_accum_disch_energy\n        );\n    }\n    \n    // function showVariables() constant returns (uint, uint, uint, uint, uint, uint, uint, uint, uint, uint, uint, uint, uint, uint, uint, uint, uint, uint) {\n    //     return (\n    //         max_average_soc,\n    //         abs_min_enclosure_temp,\n    //         nom_min_enclosure_temp,\n    //         max_enclosure_temp,\n    //         min_module_temp,\n    //         max_average_enclosure_temp,\n    //         peak_dc_rack_power,\n    //         daily_avg_rack_power,\n    //         abs_max_storage_temp,\n    //         max_module_oper_temp,\n    //         annual_accum_disch_energy,\n    //         soc_penalty_factor,\n    //         avg_temp_penalty_factor_1,\n    //         avg_temp_penalty_factor_2,\n    //         avg_temp_penalty_factor_3,\n    //         peak_power_penalty_factor,\n    //         avg_power_penalty_factor,\n    //         max_dod\n    //     );\n    // }\n    \n}",
  "sourcePath": "/Users/knakayama/git/blockchain_smart_warranty_application/smart_contracts/contracts/SmartWarranty.sol",
  "compiler": {
    "name": "solc",
    "version": "0.4.24+commit.e67f0147.Emscripten.clang"
  },
  "schemaVersion": "3.0.5",
  "updatedAt": "2019-03-27T18:28:34.629Z",
  "devdoc": {
    "methods": {}
  },
  "userdoc": {
    "methods": {}
  }
}