{
  "contractName": "SupplyChain",
  "abi": [
    {
      "constant": true,
      "inputs": [],
      "name": "tokenId",
      "outputs": [
        {
          "name": "",
          "type": "uint256"
        }
      ],
      "payable": false,
      "stateMutability": "view",
      "type": "function"
    },
    {
      "constant": false,
      "inputs": [
        {
          "name": "_account",
          "type": "address"
        }
      ],
      "name": "removeBatteryUser",
      "outputs": [],
      "payable": false,
      "stateMutability": "nonpayable",
      "type": "function"
    },
    {
      "constant": true,
      "inputs": [
        {
          "name": "_account",
          "type": "address"
        }
      ],
      "name": "isEMSProvider",
      "outputs": [
        {
          "name": "",
          "type": "bool"
        }
      ],
      "payable": false,
      "stateMutability": "view",
      "type": "function"
    },
    {
      "constant": false,
      "inputs": [
        {
          "name": "_account",
          "type": "address"
        }
      ],
      "name": "addBatteryUser",
      "outputs": [],
      "payable": false,
      "stateMutability": "nonpayable",
      "type": "function"
    },
    {
      "constant": true,
      "inputs": [
        {
          "name": "_account",
          "type": "address"
        }
      ],
      "name": "isBatteryProvider",
      "outputs": [
        {
          "name": "",
          "type": "bool"
        }
      ],
      "payable": false,
      "stateMutability": "view",
      "type": "function"
    },
    {
      "constant": false,
      "inputs": [
        {
          "name": "_account",
          "type": "address"
        }
      ],
      "name": "removeEMSProvider",
      "outputs": [],
      "payable": false,
      "stateMutability": "nonpayable",
      "type": "function"
    },
    {
      "constant": false,
      "inputs": [
        {
          "name": "_account",
          "type": "address"
        }
      ],
      "name": "addBatteryProvider",
      "outputs": [],
      "payable": false,
      "stateMutability": "nonpayable",
      "type": "function"
    },
    {
      "constant": false,
      "inputs": [
        {
          "name": "_account",
          "type": "address"
        }
      ],
      "name": "removeBatteryProvider",
      "outputs": [],
      "payable": false,
      "stateMutability": "nonpayable",
      "type": "function"
    },
    {
      "constant": true,
      "inputs": [
        {
          "name": "_account",
          "type": "address"
        }
      ],
      "name": "isBatteryUser",
      "outputs": [
        {
          "name": "",
          "type": "bool"
        }
      ],
      "payable": false,
      "stateMutability": "view",
      "type": "function"
    },
    {
      "constant": false,
      "inputs": [
        {
          "name": "_account",
          "type": "address"
        }
      ],
      "name": "addEMSProvider",
      "outputs": [],
      "payable": false,
      "stateMutability": "nonpayable",
      "type": "function"
    },
    {
      "inputs": [],
      "payable": false,
      "stateMutability": "nonpayable",
      "type": "constructor"
    },
    {
      "anonymous": false,
      "inputs": [
        {
          "indexed": false,
          "name": "tokenId",
          "type": "uint256"
        }
      ],
      "name": "ForSale",
      "type": "event"
    },
    {
      "anonymous": false,
      "inputs": [
        {
          "indexed": false,
          "name": "_tokenId",
          "type": "uint256"
        }
      ],
      "name": "Sold",
      "type": "event"
    },
    {
      "anonymous": false,
      "inputs": [
        {
          "indexed": false,
          "name": "_tokenId",
          "type": "uint256"
        }
      ],
      "name": "Installed",
      "type": "event"
    },
    {
      "anonymous": false,
      "inputs": [
        {
          "indexed": false,
          "name": "_tokenId",
          "type": "uint256"
        }
      ],
      "name": "Managed",
      "type": "event"
    },
    {
      "anonymous": false,
      "inputs": [
        {
          "indexed": false,
          "name": "_tokenId",
          "type": "uint256"
        }
      ],
      "name": "Activated",
      "type": "event"
    },
    {
      "anonymous": false,
      "inputs": [
        {
          "indexed": false,
          "name": "_account",
          "type": "address"
        }
      ],
      "name": "AddEMSProvider",
      "type": "event"
    },
    {
      "anonymous": false,
      "inputs": [
        {
          "indexed": false,
          "name": "_account",
          "type": "address"
        }
      ],
      "name": "RemoveEMSProvider",
      "type": "event"
    },
    {
      "anonymous": false,
      "inputs": [
        {
          "indexed": false,
          "name": "_account",
          "type": "address"
        }
      ],
      "name": "AddBatteryProvider",
      "type": "event"
    },
    {
      "anonymous": false,
      "inputs": [
        {
          "indexed": false,
          "name": "_account",
          "type": "address"
        }
      ],
      "name": "RemoveBatteryProvider",
      "type": "event"
    },
    {
      "anonymous": false,
      "inputs": [
        {
          "indexed": false,
          "name": "_account",
          "type": "address"
        }
      ],
      "name": "AddBatteryUser",
      "type": "event"
    },
    {
      "anonymous": false,
      "inputs": [
        {
          "indexed": false,
          "name": "_account",
          "type": "address"
        }
      ],
      "name": "RemoveBatteryUser",
      "type": "event"
    },
    {
      "constant": false,
      "inputs": [
        {
          "name": "_address",
          "type": "address"
        }
      ],
      "name": "registerTrustedEMSProvider",
      "outputs": [],
      "payable": false,
      "stateMutability": "nonpayable",
      "type": "function"
    },
    {
      "constant": false,
      "inputs": [
        {
          "name": "_batteryID",
          "type": "string"
        },
        {
          "name": "batteryOwner",
          "type": "address"
        },
        {
          "name": "trustedEMSProvider",
          "type": "address"
        },
        {
          "name": "capacity",
          "type": "uint256"
        },
        {
          "name": "power",
          "type": "uint256"
        },
        {
          "name": "year",
          "type": "uint256"
        },
        {
          "name": "warrantyPeriod",
          "type": "uint256"
        }
      ],
      "name": "registerBatteryInfo",
      "outputs": [],
      "payable": false,
      "stateMutability": "nonpayable",
      "type": "function"
    },
    {
      "constant": false,
      "inputs": [
        {
          "name": "_batteryID",
          "type": "string"
        },
        {
          "name": "_capacity",
          "type": "uint256"
        },
        {
          "name": "_power",
          "type": "uint256"
        },
        {
          "name": "_price",
          "type": "uint256"
        },
        {
          "name": "_year",
          "type": "uint256"
        },
        {
          "name": "_warrantyPeriod",
          "type": "uint256"
        }
      ],
      "name": "produceBattery",
      "outputs": [],
      "payable": false,
      "stateMutability": "nonpayable",
      "type": "function"
    },
    {
      "constant": false,
      "inputs": [
        {
          "name": "_tokenId",
          "type": "uint256"
        }
      ],
      "name": "addItem",
      "outputs": [],
      "payable": false,
      "stateMutability": "nonpayable",
      "type": "function"
    },
    {
      "constant": false,
      "inputs": [
        {
          "name": "_tokenId",
          "type": "uint256"
        }
      ],
      "name": "buyItem",
      "outputs": [],
      "payable": true,
      "stateMutability": "payable",
      "type": "function"
    },
    {
      "constant": false,
      "inputs": [
        {
          "name": "_tokenId",
          "type": "uint256"
        },
        {
          "name": "_address",
          "type": "address"
        }
      ],
      "name": "assignBatteryOwner",
      "outputs": [],
      "payable": false,
      "stateMutability": "nonpayable",
      "type": "function"
    },
    {
      "constant": false,
      "inputs": [
        {
          "name": "_tokenId",
          "type": "uint256"
        }
      ],
      "name": "installBattery",
      "outputs": [],
      "payable": false,
      "stateMutability": "nonpayable",
      "type": "function"
    },
    {
      "constant": false,
      "inputs": [
        {
          "name": "_tokenId",
          "type": "uint256"
        },
        {
          "name": "_emsProviderAddress",
          "type": "address"
        }
      ],
      "name": "manageBattery",
      "outputs": [],
      "payable": false,
      "stateMutability": "nonpayable",
      "type": "function"
    },
    {
      "constant": false,
      "inputs": [
        {
          "name": "_tokenId",
          "type": "uint256"
        }
      ],
      "name": "utilizeBattery",
      "outputs": [],
      "payable": false,
      "stateMutability": "nonpayable",
      "type": "function"
    },
    {
      "constant": false,
      "inputs": [
        {
          "name": "_tokenId",
          "type": "uint256"
        },
        {
          "name": "_year",
          "type": "uint256"
        },
        {
          "name": "_month",
          "type": "uint256"
        },
        {
          "name": "_day",
          "type": "uint256"
        },
        {
          "name": "_hour",
          "type": "uint256"
        },
        {
          "name": "_socValue",
          "type": "uint256"
        },
        {
          "name": "_aade",
          "type": "uint256"
        },
        {
          "name": "_peakDCPower",
          "type": "uint256"
        },
        {
          "name": "_averageDailyDCPower",
          "type": "uint256"
        }
      ],
      "name": "getUsageData",
      "outputs": [],
      "payable": false,
      "stateMutability": "nonpayable",
      "type": "function"
    },
    {
      "constant": false,
      "inputs": [
        {
          "name": "_tokenId",
          "type": "uint256"
        }
      ],
      "name": "checkWarranty",
      "outputs": [],
      "payable": false,
      "stateMutability": "nonpayable",
      "type": "function"
    },
    {
      "constant": false,
      "inputs": [
        {
          "name": "_tokenId",
          "type": "uint256"
        }
      ],
      "name": "checkAnnualAverageSOCWarranty",
      "outputs": [],
      "payable": false,
      "stateMutability": "nonpayable",
      "type": "function"
    },
    {
      "constant": false,
      "inputs": [
        {
          "name": "_tokenId",
          "type": "uint256"
        }
      ],
      "name": "checkAnnualAccumulatedDischargeEnergyWarranty",
      "outputs": [],
      "payable": false,
      "stateMutability": "nonpayable",
      "type": "function"
    },
    {
      "constant": false,
      "inputs": [
        {
          "name": "_tokenId",
          "type": "uint256"
        }
      ],
      "name": "checkPeakDCPowerPerRackWarranty",
      "outputs": [],
      "payable": false,
      "stateMutability": "nonpayable",
      "type": "function"
    },
    {
      "constant": false,
      "inputs": [
        {
          "name": "_tokenId",
          "type": "uint256"
        }
      ],
      "name": "checkDailyAverageDCPowerWarranty",
      "outputs": [],
      "payable": false,
      "stateMutability": "nonpayable",
      "type": "function"
    },
    {
      "constant": false,
      "inputs": [
        {
          "name": "_tokenId",
          "type": "uint256"
        }
      ],
      "name": "updateWarranty",
      "outputs": [],
      "payable": false,
      "stateMutability": "nonpayable",
      "type": "function"
    },
    {
      "constant": false,
      "inputs": [],
      "name": "testProduceBatteryAndEMSProvider",
      "outputs": [],
      "payable": false,
      "stateMutability": "nonpayable",
      "type": "function"
    },
    {
      "constant": false,
      "inputs": [
        {
          "name": "_tokenId",
          "type": "uint256"
        },
        {
          "name": "status",
          "type": "uint8"
        }
      ],
      "name": "modifyWarrantyState",
      "outputs": [],
      "payable": false,
      "stateMutability": "nonpayable",
      "type": "function"
    },
    {
      "constant": true,
      "inputs": [
        {
          "name": "_tokenId",
          "type": "uint256"
        }
      ],
      "name": "showBatteryInfo",
      "outputs": [
        {
          "name": "batteryID",
          "type": "string"
        },
        {
          "name": "owner",
          "type": "address"
        },
        {
          "name": "emsProvider",
          "type": "address"
        },
        {
          "name": "price",
          "type": "uint256"
        },
        {
          "name": "bolCapacity",
          "type": "uint256"
        },
        {
          "name": "maxPower",
          "type": "uint256"
        },
        {
          "name": "stateIs",
          "type": "string"
        },
        {
          "name": "warrantyStatus",
          "type": "string"
        },
        {
          "name": "currentYear",
          "type": "uint256"
        },
        {
          "name": "warrantyPeriod",
          "type": "uint256"
        }
      ],
      "payable": false,
      "stateMutability": "view",
      "type": "function"
    },
    {
      "constant": true,
      "inputs": [
        {
          "name": "_tokenId",
          "type": "uint256"
        }
      ],
      "name": "showBatteryDataReportStatus",
      "outputs": [
        {
          "name": "isDataReported",
          "type": "bool"
        }
      ],
      "payable": false,
      "stateMutability": "view",
      "type": "function"
    },
    {
      "constant": true,
      "inputs": [
        {
          "name": "_tokenId",
          "type": "uint256"
        }
      ],
      "name": "showBatteryWarrantyAnalyzeStatus",
      "outputs": [
        {
          "name": "isWarrantyAnalyzed",
          "type": "bool"
        }
      ],
      "payable": false,
      "stateMutability": "view",
      "type": "function"
    },
    {
      "constant": true,
      "inputs": [
        {
          "name": "_tokenId",
          "type": "uint256"
        }
      ],
      "name": "showBatteryViolationInfo",
      "outputs": [
        {
          "name": "batteryID",
          "type": "string"
        },
        {
          "name": "owner",
          "type": "address"
        },
        {
          "name": "emsProvider",
          "type": "address"
        },
        {
          "name": "annualAverageSOCViolation",
          "type": "bool"
        },
        {
          "name": "annualAccumulatedDischargeEnergyViolation",
          "type": "bool"
        },
        {
          "name": "peakDCPowerViolation",
          "type": "bool"
        },
        {
          "name": "dailyAverageDCPowerViolation",
          "type": "bool"
        }
      ],
      "payable": false,
      "stateMutability": "view",
      "type": "function"
    },
    {
      "constant": true,
      "inputs": [
        {
          "name": "_tokenId",
          "type": "uint256"
        },
        {
          "name": "_year",
          "type": "uint256"
        }
      ],
      "name": "showAnnualAverageSOC",
      "outputs": [
        {
          "name": "TokenID",
          "type": "uint256"
        },
        {
          "name": "year",
          "type": "uint256"
        },
        {
          "name": "annualAverageSOC",
          "type": "uint256"
        },
        {
          "name": "annualAverageSOCViolation",
          "type": "bool"
        }
      ],
      "payable": false,
      "stateMutability": "view",
      "type": "function"
    },
    {
      "constant": true,
      "inputs": [
        {
          "name": "_tokenId",
          "type": "uint256"
        }
      ],
      "name": "showVariables",
      "outputs": [
        {
          "name": "Max_Average_Soc",
          "type": "uint256"
        },
        {
          "name": "Peak_DC_Rack_Power",
          "type": "uint256"
        },
        {
          "name": "Daily_Avg_Rack_Power",
          "type": "uint256"
        },
        {
          "name": "Annual_Accum_Disch_Energy",
          "type": "uint256"
        }
      ],
      "payable": false,
      "stateMutability": "view",
      "type": "function"
    }
  ],
  "bytecode": "0x6080604052600160055534801561001557600080fd5b5033600360006101000a81548173ffffffffffffffffffffffffffffffffffffffff021916908373ffffffffffffffffffffffffffffffffffffffff160217905550603560068190555061b266600781905550611db060088190555061354a806100806000396000f3006080604052600436106101ac576000357c0100000000000000000000000000000000000000000000000000000000900463ffffffff1680630d0b266a146101b157806317d70f7c146102e95780631a059b7e146103145780631c5da9dc14610341578063264292a31461036e5780633f73f78d146103b15780634b1ba3e2146103fe5780634f60fd161461049957806350debde3146104f457806355e722ef1461054a57806363a715931461057757806374f1fc61146105a45780638433fafa146105d15780638f100b3a14610614578063a6193c1614610678578063ac69b748146106a5578063ba35235614610700578063bb18a0f614610743578063be4edc1714610790578063be634045146107d3578063bfc5d3b714610800578063cc3c0d8d14610817578063cfbc6fba14610851578063da510e9c14610894578063e2174efe146108c1578063e3ec567f14610ac8578063e7fb74c714610af5578063e8373df214610b15578063eaeb788114610be6578063eb51741c14610c29578063ef04ea3414610c84578063f187173e14610cc9578063f9db771314610d0e578063ff54214914610d51575b600080fd5b3480156101bd57600080fd5b506101dc60048036038101908080359060200190929190505050610dce565b60405180806020018873ffffffffffffffffffffffffffffffffffffffff1673ffffffffffffffffffffffffffffffffffffffff1681526020018773ffffffffffffffffffffffffffffffffffffffff1673ffffffffffffffffffffffffffffffffffffffff16815260200186151515158152602001851515151581526020018415151515815260200183151515158152602001828103825289818151815260200191508051906020019080838360005b838110156102a857808201518184015260208101905061028d565b50505050905090810190601f1680156102d55780820380516001836020036101000a031916815260200191505b509850505050505050505060405180910390f35b3480156102f557600080fd5b506102fe610f48565b6040518082815260200191505060405180910390f35b34801561032057600080fd5b5061033f60048036038101908080359060200190929190505050610f4e565b005b34801561034d57600080fd5b5061036c6004803603810190808035906020019092919050505061107c565b005b34801561037a57600080fd5b506103af600480360381019080803573ffffffffffffffffffffffffffffffffffffffff1690602001909291905050506111f4565b005b3480156103bd57600080fd5b506103fc60048036038101908080359060200190929190803573ffffffffffffffffffffffffffffffffffffffff169060200190929190505050611263565b005b34801561040a57600080fd5b50610497600480360381019080803590602001908201803590602001908080601f016020809104026020016040519081016040528093929190818152602001838380828437820191505050505050919291929080359060200190929190803590602001909291908035906020019092919080359060200190929190803590602001909291905050506113d3565b005b3480156104a557600080fd5b506104da600480360381019080803573ffffffffffffffffffffffffffffffffffffffff1690602001909291905050506115ce565b604051808215151515815260200191505060405180910390f35b34801561050057600080fd5b5061051f60048036038101908080359060200190929190505050611617565b6040518085815260200184815260200183815260200182815260200194505050505060405180910390f35b34801561055657600080fd5b506105756004803603810190808035906020019092919050505061164c565b005b34801561058357600080fd5b506105a260048036038101908080359060200190929190505050611854565b005b3480156105b057600080fd5b506105cf600480360381019080803590602001909291905050506119cc565b005b3480156105dd57600080fd5b50610612600480360381019080803573ffffffffffffffffffffffffffffffffffffffff169060200190929190505050611b44565b005b34801561062057600080fd5b506106496004803603810190808035906020019092919080359060200190929190505050611bb3565b604051808581526020018481526020018381526020018215151515815260200194505050505060405180910390f35b34801561068457600080fd5b506106a360048036038101908080359060200190929190505050611c02565b005b3480156106b157600080fd5b506106e6600480360381019080803573ffffffffffffffffffffffffffffffffffffffff169060200190929190505050611d8e565b604051808215151515815260200191505060405180910390f35b34801561070c57600080fd5b50610741600480360381019080803573ffffffffffffffffffffffffffffffffffffffff169060200190929190505050611dd7565b005b34801561074f57600080fd5b5061078e60048036038101908080359060200190929190803573ffffffffffffffffffffffffffffffffffffffff169060200190929190505050611e46565b005b34801561079c57600080fd5b506107d1600480360381019080803573ffffffffffffffffffffffffffffffffffffffff169060200190929190505050611fb6565b005b3480156107df57600080fd5b506107fe60048036038101908080359060200190929190505050612025565b005b34801561080c57600080fd5b5061081561213d565b005b34801561082357600080fd5b5061084f60048036038101908080359060200190929190803560ff1690602001909291905050506121a5565b005b34801561085d57600080fd5b50610892600480360381019080803573ffffffffffffffffffffffffffffffffffffffff169060200190929190505050612244565b005b3480156108a057600080fd5b506108bf600480360381019080803590602001909291905050506122e6565b005b3480156108cd57600080fd5b506108ec60048036038101908080359060200190929190505050612414565b60405180806020018b73ffffffffffffffffffffffffffffffffffffffff1673ffffffffffffffffffffffffffffffffffffffff1681526020018a73ffffffffffffffffffffffffffffffffffffffff1673ffffffffffffffffffffffffffffffffffffffff168152602001898152602001888152602001878152602001806020018060200186815260200185815260200184810384528e818151815260200191508051906020019080838360005b838110156109b657808201518184015260208101905061099b565b50505050905090810190601f1680156109e35780820380516001836020036101000a031916815260200191505b50848103835288818151815260200191508051906020019080838360005b83811015610a1c578082015181840152602081019050610a01565b50505050905090810190601f168015610a495780820380516001836020036101000a031916815260200191505b50848103825287818151815260200191508051906020019080838360005b83811015610a82578082015181840152602081019050610a67565b50505050905090810190601f168015610aaf5780820380516001836020036101000a031916815260200191505b509d505050505050505050505050505060405180910390f35b348015610ad457600080fd5b50610af36004803603810190808035906020019092919050505061289e565b005b610b13600480360381019080803590602001909291905050506129d2565b005b348015610b2157600080fd5b50610be4600480360381019080803590602001908201803590602001908080601f0160208091040260200160405190810160405280939291908181526020018383808284378201915050505050509192919290803573ffffffffffffffffffffffffffffffffffffffff169060200190929190803573ffffffffffffffffffffffffffffffffffffffff16906020019092919080359060200190929190803590602001909291908035906020019092919080359060200190929190505050612b94565b005b348015610bf257600080fd5b50610c27600480360381019080803573ffffffffffffffffffffffffffffffffffffffff169060200190929190505050612dff565b005b348015610c3557600080fd5b50610c6a600480360381019080803573ffffffffffffffffffffffffffffffffffffffff169060200190929190505050612e6e565b604051808215151515815260200191505060405180910390f35b348015610c9057600080fd5b50610caf60048036038101908080359060200190929190505050612eb7565b604051808215151515815260200191505060405180910390f35b348015610cd557600080fd5b50610cf460048036038101908080359060200190929190505050612ee4565b604051808215151515815260200191505060405180910390f35b348015610d1a57600080fd5b50610d4f600480360381019080803573ffffffffffffffffffffffffffffffffffffffff169060200190929190505050612f11565b005b348015610d5d57600080fd5b50610dcc600480360381019080803590602001909291908035906020019092919080359060200190929190803590602001909291908035906020019092919080359060200190929190803590602001909291908035906020019092919080359060200190929190505050612f80565b005b60606000806000806000806000600960008a81526020019081526020016000209050806000018160010160009054906101000a900473ffffffffffffffffffffffffffffffffffffffff168260020160009054906101000a900473ffffffffffffffffffffffffffffffffffffffff1683601e0160000160009054906101000a900460ff1684601e0160000160019054906101000a900460ff1685601e0160000160029054906101000a900460ff1686601e0160000160039054906101000a900460ff16868054600181600116156101000203166002900480601f016020809104026020016040519081016040528092919081815260200182805460018160011615610100020316600290048015610f275780601f10610efc57610100808354040283529160200191610f27565b820191906000526020600020905b815481529060010190602001808311610f0a57829003601f168201915b50505050509650975097509750975097509750975050919395979092949650565b60055481565b8060036007811115610f5c57fe5b6009600083815260200190815260200160002060080160009054906101000a900460ff166007811115610f8b57fe5b141515610f9757600080fd5b6009600083815260200190815260200160002060010160009054906101000a900473ffffffffffffffffffffffffffffffffffffffff168073ffffffffffffffffffffffffffffffffffffffff163373ffffffffffffffffffffffffffffffffffffffff1614151561100857600080fd5b60046009600085815260200190815260200160002060080160006101000a81548160ff0219169083600781111561103b57fe5b02179055507f502749b8a684cf092b2cfff41a59b9aff2bde23e3a1aca4b3cde4a6fe6db817d836040518082815260200191505060405180910390a1505050565b600080826006600781111561108d57fe5b6009600083815260200190815260200160002060080160009054906101000a900460ff1660078111156110bc57fe5b1415156110c857600080fd5b600360009054906101000a900473ffffffffffffffffffffffffffffffffffffffff168073ffffffffffffffffffffffffffffffffffffffff163373ffffffffffffffffffffffffffffffffffffffff1614151561112557600080fd5b6001151560096000878152602001908152602001600020600b0160009054906101000a900460ff16151514151561115b57600080fd5b60009350600960008681526020019081526020016000206018016003015492506008548311156111bc5760016009600087815260200190815260200160002060180160040160006101000a81548160ff021916908315150217905550600193505b8360096000878152602001908152602001600020601e0160000160036101000a81548160ff0219169083151502179055505050505050565b6111fd816131fc565b7f68c8259a1758cd6d5384f165bcde8a204eb75d256a7b09eb3b76eccb883eab4981604051808273ffffffffffffffffffffffffffffffffffffffff1673ffffffffffffffffffffffffffffffffffffffff16815260200191505060405180910390a150565b816004600781111561127157fe5b6009600083815260200190815260200160002060080160009054906101000a900460ff1660078111156112a057fe5b1415156112ac57600080fd5b600360009054906101000a900473ffffffffffffffffffffffffffffffffffffffff168073ffffffffffffffffffffffffffffffffffffffff163373ffffffffffffffffffffffffffffffffffffffff1614151561130957600080fd5b826009600086815260200190815260200160002060020160006101000a81548173ffffffffffffffffffffffffffffffffffffffff021916908373ffffffffffffffffffffffffffffffffffffffff16021790555060056009600086815260200190815260200160002060080160006101000a81548160ff0219169083600781111561139157fe5b02179055507fbc5d71c5231a7ff8e7cc6e9cf79fcc6a1d2e91a2c5ec4d4f7cd4d6ba387a19c9846040518082815260200191505060405180910390a150505050565b600360009054906101000a900473ffffffffffffffffffffffffffffffffffffffff168073ffffffffffffffffffffffffffffffffffffffff163373ffffffffffffffffffffffffffffffffffffffff1614151561143057600080fd5b60006005541415151561144257600080fd5b86600960006005548152602001908152602001600020600001908051906020019061146e929190613479565b508560096000600554815260200190815260200160002060030181905550846009600060055481526020019081526020016000206004018190555083600960006005548152602001908152602001600020600501819055508560096000600554815260200190815260200160002060060181905550856202ec890260096000600554815260200190815260200160002060070181905550600160096000600554815260200190815260200160002060080160006101000a81548160ff0219169083600781111561153a57fe5b0217905550600060096000600554815260200190815260200160002060080160016101000a81548160ff0219169083600181111561157457fe5b0217905550826009600060055481526020019081526020016000206009018190555081600960006005548152602001908152602001600020600a018190555060056000815480929190600101919050555050505050505050565b60008173ffffffffffffffffffffffffffffffffffffffff163373ffffffffffffffffffffffffffffffffffffffff16141561160d5760019050611612565b600090505b919050565b600080600080600654600754600854600960008981526020019081526020016000206007015493509350935093509193509193565b600080826006600781111561165d57fe5b6009600083815260200190815260200160002060080160009054906101000a900460ff16600781111561168c57fe5b14151561169857600080fd5b600360009054906101000a900473ffffffffffffffffffffffffffffffffffffffff168073ffffffffffffffffffffffffffffffffffffffff163373ffffffffffffffffffffffffffffffffffffffff161415156116f557600080fd5b6001151560096000878152602001908152602001600020601d0160009054906101000a900460ff16151514151561172b57600080fd5b60096000868152602001908152602001600020601e01935060009250600115158460000160009054906101000a900460ff16151514806117805750600115158460000160019054906101000a900460ff161515145b806117a05750600115158460000160029054906101000a900460ff161515145b806117c05750600115158460000160039054906101000a900460ff161515145b156117ca57600192505b6001151583151514156118145760016009600087815260200190815260200160002060080160016101000a81548160ff0219169083600181111561180a57fe5b021790555061184d565b60006009600087815260200190815260200160002060080160016101000a81548160ff0219169083600181111561184757fe5b02179055505b5050505050565b600080826006600781111561186557fe5b6009600083815260200190815260200160002060080160009054906101000a900460ff16600781111561189457fe5b1415156118a057600080fd5b600360009054906101000a900473ffffffffffffffffffffffffffffffffffffffff168073ffffffffffffffffffffffffffffffffffffffff163373ffffffffffffffffffffffffffffffffffffffff161415156118fd57600080fd5b6001151560096000878152602001908152602001600020600b0160009054906101000a900460ff16151514151561193357600080fd5b6000935060096000868152602001908152602001600020600c0160010154925060065483111561199457600160096000878152602001908152602001600020600c0160020160006101000a81548160ff021916908315150217905550600193505b8360096000878152602001908152602001600020601e0160000160006101000a81548160ff0219169083151502179055505050505050565b60008082600660078111156119dd57fe5b6009600083815260200190815260200160002060080160009054906101000a900460ff166007811115611a0c57fe5b141515611a1857600080fd5b600360009054906101000a900473ffffffffffffffffffffffffffffffffffffffff168073ffffffffffffffffffffffffffffffffffffffff163373ffffffffffffffffffffffffffffffffffffffff16141515611a7557600080fd5b6001151560096000878152602001908152602001600020600b0160009054906101000a900460ff161515141515611aab57600080fd5b6000935060096000868152602001908152602001600020601201600401549250600754831115611b0c5760016009600087815260200190815260200160002060120160050160006101000a81548160ff021916908315150217905550600193505b8360096000878152602001908152602001600020601e0160000160026101000a81548160ff0219169083151502179055505050505050565b611b4d81613213565b7fcbf9be33489122df962a55b1e1fe2fee6119e8a91ab4f8889f2643fe52ea15b781604051808273ffffffffffffffffffffffffffffffffffffffff1673ffffffffffffffffffffffffffffffffffffffff16815260200191505060405180910390a150565b600080600080600060096000888152602001908152602001600020600c01905086816000015482600101548360020160009054906101000a900460ff1694509450945094505092959194509250565b6000808260066007811115611c1357fe5b6009600083815260200190815260200160002060080160009054906101000a900460ff166007811115611c4257fe5b141515611c4e57600080fd5b600360009054906101000a900473ffffffffffffffffffffffffffffffffffffffff168073ffffffffffffffffffffffffffffffffffffffff163373ffffffffffffffffffffffffffffffffffffffff16141515611cab57600080fd5b6001151560096000878152602001908152602001600020600b0160009054906101000a900460ff161515141515611ce157600080fd5b6000935060096000868152602001908152602001600020600f016001015492506009600086815260200190815260200160002060070154831115611d5657600160096000878152602001908152602001600020600f0160020160006101000a81548160ff021916908315150217905550600193505b8360096000878152602001908152602001600020601e0160000160016101000a81548160ff0219169083151502179055505050505050565b60008173ffffffffffffffffffffffffffffffffffffffff163373ffffffffffffffffffffffffffffffffffffffff161415611dcd5760019050611dd2565b600090505b919050565b611de08161322a565b7fe13ce930eff8f240abaf7e7de48f6c1b37877fa49ec0e0ceb141fa4401db28e181604051808273ffffffffffffffffffffffffffffffffffffffff1673ffffffffffffffffffffffffffffffffffffffff16815260200191505060405180910390a150565b8160026007811115611e5457fe5b6009600083815260200190815260200160002060080160009054906101000a900460ff166007811115611e8357fe5b141515611e8f57600080fd5b600360009054906101000a900473ffffffffffffffffffffffffffffffffffffffff168073ffffffffffffffffffffffffffffffffffffffff163373ffffffffffffffffffffffffffffffffffffffff16141515611eec57600080fd5b826009600086815260200190815260200160002060010160006101000a81548173ffffffffffffffffffffffffffffffffffffffff021916908373ffffffffffffffffffffffffffffffffffffffff16021790555060036009600086815260200190815260200160002060080160006101000a81548160ff02191690836007811115611f7457fe5b02179055507f92f64ca637d023f354075a4be751b169c1a8a9ccb6d33cdd0cb3520543995727846040518082815260200191505060405180910390a150505050565b611fbf81613241565b7f4f9c49fecaeeecdcde7968f21200434fa9ac1b2d99c6b5bf554408811bc0cd3081604051808273ffffffffffffffffffffffffffffffffffffffff1673ffffffffffffffffffffffffffffffffffffffff16815260200191505060405180910390a150565b600360009054906101000a900473ffffffffffffffffffffffffffffffffffffffff168073ffffffffffffffffffffffffffffffffffffffff163373ffffffffffffffffffffffffffffffffffffffff1614151561208257600080fd5b6001600781111561208f57fe5b6009600084815260200190815260200160002060080160009054906101000a900460ff1660078111156120be57fe5b1415156120ca57600080fd5b7fa96ae0fc3224ebd79eebfe54bd130cc9cb94416cddd1f2386115e00b72532468826040518082815260200191505060405180910390a160026009600084815260200190815260200160002060080160006101000a81548160ff0219169083600781111561213457fe5b02179055505050565b61215a7314723a09acff6d2a60dcdf7aa4aff308fddc160c612244565b6121a36040805190810160405280600c81526020017f746573744261747465727931000000000000000000000000000000000000000081525060aa606460506107e360036113d3565b565b6000600360009054906101000a900473ffffffffffffffffffffffffffffffffffffffff168073ffffffffffffffffffffffffffffffffffffffff163373ffffffffffffffffffffffffffffffffffffffff1614151561220457600080fd5b600960008581526020019081526020016000209150828260080160016101000a81548160ff0219169083600181111561223957fe5b021790555050505050565b600360009054906101000a900473ffffffffffffffffffffffffffffffffffffffff168073ffffffffffffffffffffffffffffffffffffffff163373ffffffffffffffffffffffffffffffffffffffff161415156122a157600080fd5b81600460006101000a81548173ffffffffffffffffffffffffffffffffffffffff021916908373ffffffffffffffffffffffffffffffffffffffff1602179055505050565b80600560078111156122f457fe5b6009600083815260200190815260200160002060080160009054906101000a900460ff16600781111561232357fe5b14151561232f57600080fd5b6009600083815260200190815260200160002060020160009054906101000a900473ffffffffffffffffffffffffffffffffffffffff168073ffffffffffffffffffffffffffffffffffffffff163373ffffffffffffffffffffffffffffffffffffffff161415156123a057600080fd5b60066009600085815260200190815260200160002060080160006101000a81548160ff021916908360078111156123d357fe5b02179055507f3ec796be1be7d03bff3a62b9fa594a60e947c1809bced06d929f145308ae57ce836040518082815260200191505060405180910390a1505050565b606060008060008060006060806000806000806000600960008f815260200190815260200160002092508260080160009054906101000a900460ff16600781111561245b57fe5b91508260080160019054906101000a900460ff16600181111561247a57fe5b905060008214156124c2576040805190810160405280600781526020017f44656661756c740000000000000000000000000000000000000000000000000081525096506126ec565b6001821415612508576040805190810160405280600881526020017f50726f647563656400000000000000000000000000000000000000000000000081525096506126eb565b600282141561254e576040805190810160405280600781526020017f466f7253616c650000000000000000000000000000000000000000000000000081525096506126ea565b6003821415612594576040805190810160405280600481526020017f536f6c640000000000000000000000000000000000000000000000000000000081525096506126e9565b60048214156125da576040805190810160405280600981526020017f496e7374616c6c6564000000000000000000000000000000000000000000000081525096506126e8565b6005821415612620576040805190810160405280600781526020017f4d616e616765640000000000000000000000000000000000000000000000000081525096506126e7565b6006821415612666576040805190810160405280600681526020017f416374697665000000000000000000000000000000000000000000000000000081525096506126e6565b60078214156126ac576040805190810160405280600881526020017f52657475726e656400000000000000000000000000000000000000000000000081525096506126e5565b6040805190810160405280600981526020017f556e646566696e6564000000000000000000000000000000000000000000000081525096505b5b5b5b5b5b5b5b6000811415612732576040805190810160405280600e81526020017f556e6465722057617272616e74790000000000000000000000000000000000008152509550612775565b6001811415612774576040805190810160405280600f81526020017f4f7574206f662057617272616e7479000000000000000000000000000000000081525095505b5b826000018360010160009054906101000a900473ffffffffffffffffffffffffffffffffffffffff168460020160009054906101000a900473ffffffffffffffffffffffffffffffffffffffff168560050154866003015487600401548c8c8a600901548b600a0154898054600181600116156101000203166002900480601f0160208091040260200160405190810160405280929190818152602001828054600181600116156101000203166002900480156128735780601f1061284857610100808354040283529160200191612873565b820191906000526020600020905b81548152906001019060200180831161285657829003601f168201915b505050505099509c509c509c509c509c509c509c509c509c509c505050509193959799509193959799565b80600660078111156128ac57fe5b6009600083815260200190815260200160002060080160009054906101000a900460ff1660078111156128db57fe5b1415156128e757600080fd5b600360009054906101000a900473ffffffffffffffffffffffffffffffffffffffff168073ffffffffffffffffffffffffffffffffffffffff163373ffffffffffffffffffffffffffffffffffffffff1614151561294457600080fd5b6001151560096000858152602001908152602001600020600b0160009054906101000a900460ff16151514151561297a57600080fd5b61298383611854565b61298c83611c02565b612995836119cc565b61299e8361107c565b600160096000858152602001908152602001600020601d0160006101000a81548160ff021916908315150217905550505050565b60008082600260078111156129e357fe5b6009600083815260200190815260200160002060080160009054906101000a900460ff166007811115612a1257fe5b141515612a1e57600080fd5b6009600085815260200190815260200160002060050154803410151515612a4457600080fd5b33935060096000868152602001908152602001600020600501549250836009600087815260200190815260200160002060010160006101000a81548173ffffffffffffffffffffffffffffffffffffffff021916908373ffffffffffffffffffffffffffffffffffffffff16021790555060036009600087815260200190815260200160002060080160006101000a81548160ff02191690836007811115612ae857fe5b0217905550600360009054906101000a900473ffffffffffffffffffffffffffffffffffffffff1673ffffffffffffffffffffffffffffffffffffffff166108fc849081150290604051600060405180830381858888f19350505050158015612b55573d6000803e3d6000fd5b507f92f64ca637d023f354075a4be751b169c1a8a9ccb6d33cdd0cb3520543995727856040518082815260200191505060405180910390a15050505050565b600360009054906101000a900473ffffffffffffffffffffffffffffffffffffffff168073ffffffffffffffffffffffffffffffffffffffff163373ffffffffffffffffffffffffffffffffffffffff16141515612bf157600080fd5b600060055414151515612c0357600080fd5b876009600060055481526020019081526020016000206000019080519060200190612c2f929190613479565b508660096000600554815260200190815260200160002060010160006101000a81548173ffffffffffffffffffffffffffffffffffffffff021916908373ffffffffffffffffffffffffffffffffffffffff1602179055508560096000600554815260200190815260200160002060020160006101000a81548173ffffffffffffffffffffffffffffffffffffffff021916908373ffffffffffffffffffffffffffffffffffffffff160217905550846009600060055481526020019081526020016000206003018190555083600960006005548152602001908152602001600020600401819055508460096000600554815260200190815260200160002060060181905550600160096000600554815260200190815260200160002060080160006101000a81548160ff02191690836007811115612d6a57fe5b0217905550600060096000600554815260200190815260200160002060080160016101000a81548160ff02191690836001811115612da457fe5b0217905550826009600060055481526020019081526020016000206009018190555081600960006005548152602001908152602001600020600a01819055506005600081548092919060010191905055505050505050505050565b612e0881613258565b7f47dff044c918bd680ac512e65fe98c7763e06c4b4f08509899407f5785db0ceb81604051808273ffffffffffffffffffffffffffffffffffffffff1673ffffffffffffffffffffffffffffffffffffffff16815260200191505060405180910390a150565b60008173ffffffffffffffffffffffffffffffffffffffff163373ffffffffffffffffffffffffffffffffffffffff161415612ead5760019050612eb2565b600090505b919050565b600060096000838152602001908152602001600020600b0160009054906101000a900460ff169050919050565b600060096000838152602001908152602001600020601d0160009054906101000a900460ff169050919050565b612f1a8161326f565b7f60f400bae05a23a1f382b028b6d971171c6a806b98a9d564a2cebe15faddfd7781604051808273ffffffffffffffffffffffffffffffffffffffff1673ffffffffffffffffffffffffffffffffffffffff16815260200191505060405180910390a150565b8860066007811115612f8e57fe5b6009600083815260200190815260200160002060080160009054906101000a900460ff166007811115612fbd57fe5b141515612fc957600080fd5b600960008b815260200190815260200160002060020160009054906101000a900473ffffffffffffffffffffffffffffffffffffffff168073ffffffffffffffffffffffffffffffffffffffff163373ffffffffffffffffffffffffffffffffffffffff1614151561303a57600080fd5b89600960008d8152602001908152602001600020600c016000018190555085600960008d8152602001908152602001600020600c016001018190555089600960008d8152602001908152602001600020600f016000018190555084600960008d8152602001908152602001600020600f016001018190555089600960008d81526020019081526020016000206012016000018190555088600960008d81526020019081526020016000206012016001018190555087600960008d81526020019081526020016000206012016002018190555086600960008d81526020019081526020016000206012016003018190555083600960008d81526020019081526020016000206012016004018190555089600960008d81526020019081526020016000206018016000018190555088600960008d81526020019081526020016000206018016001018190555087600960008d81526020019081526020016000206018016002018190555082600960008d8152602001908152602001600020601801600301819055506001600960008d8152602001908152602001600020600b0160006101000a81548160ff0219169083151502179055505050505050505050505050565b61321081600061328690919063ffffffff16565b50565b61322781600061333590919063ffffffff16565b50565b61323e81600261328690919063ffffffff16565b50565b61325581600161333590919063ffffffff16565b50565b61326c81600161328690919063ffffffff16565b50565b61328381600261333590919063ffffffff16565b50565b600073ffffffffffffffffffffffffffffffffffffffff168173ffffffffffffffffffffffffffffffffffffffff16141515156132c257600080fd5b6132cc82826133e5565b15156132d757600080fd5b60008260000160008373ffffffffffffffffffffffffffffffffffffffff1673ffffffffffffffffffffffffffffffffffffffff16815260200190815260200160002060006101000a81548160ff0219169083151502179055505050565b600073ffffffffffffffffffffffffffffffffffffffff168173ffffffffffffffffffffffffffffffffffffffff161415151561337157600080fd5b61337b82826133e5565b15151561338757600080fd5b60018260000160008373ffffffffffffffffffffffffffffffffffffffff1673ffffffffffffffffffffffffffffffffffffffff16815260200190815260200160002060006101000a81548160ff0219169083151502179055505050565b60008073ffffffffffffffffffffffffffffffffffffffff168273ffffffffffffffffffffffffffffffffffffffff161415151561342257600080fd5b8260000160008373ffffffffffffffffffffffffffffffffffffffff1673ffffffffffffffffffffffffffffffffffffffff16815260200190815260200160002060009054906101000a900460ff16905092915050565b828054600181600116156101000203166002900490600052602060002090601f016020900481019282601f106134ba57805160ff19168380011785556134e8565b828001600101855582156134e8579182015b828111156134e75782518255916020019190600101906134cc565b5b5090506134f591906134f9565b5090565b61351b91905b808211156135175760008160009055506001016134ff565b5090565b905600a165627a7a72305820b64ce4fd6a72963c1719cf0f86d106c2ae95848470468da5626d758e75298bcf0029",
  "source": "pragma solidity ^0.4.24;\r\n// pragma solidity ^0.5.2;\r\n// pragma experimental ABIEncoderV2;\r\n\r\nimport \"../batteryaccesscontrol/BatteryUserRole.sol\";\r\nimport \"../batteryaccesscontrol/BatteryProviderRole.sol\";\r\nimport \"../batteryaccesscontrol/EMSProviderRole.sol\";\r\n\r\n//------------------------------------------------------------------------------\r\n// Decentralized EMS platform using Smart Contract for Warranty Application for \r\n//  - Battery Provider\r\n//  - Battery Owner\r\n//  - EMS Provider\r\n//------------------------------------------------------------------------------\r\n// Contract to manage Smart Warranty regarding  \r\n//  - Annual average SOC condition\r\n//  - Average hourly temperature condition\r\n//  - Annual accumulated discharge energy of the product\r\n//  - Peak DC power per rack\r\n//  - Daily average rack power\r\n//  - Substantial portion of all half-cycles\r\n//------------------------------------------------------------------------------\r\ncontract SupplyChain is BatteryUserRole, BatteryProviderRole, EMSProviderRole {\r\n    \r\n    // Battery and Warranty Provider (e.g. LG Chem)\r\n    address batteryProvider;\r\n    \r\n    // Energy Management System (EMS) Provider (e.g. NEC Energy Solution)\r\n    address trustedEMSProvider;\r\n    \r\n    // Variable: tokenId for a battery that is used to distinguish all the batteries produced by the provider\r\n    uint public tokenId = 1;\r\n\r\n    // List of warranty parameters\r\n    uint max_average_soc;\r\n    uint peak_dc_rack_power;\r\n    uint daily_avg_rack_power;\r\n\r\n    // uint abs_min_enclosure_temp;\r\n    // uint nom_min_enclosure_temp;\r\n    // uint max_enclosure_temp;\r\n    // uint min_module_temp;\r\n    // uint max_average_enclosure_temp;\r\n    // uint abs_max_storage_temp;\r\n    // uint max_module_oper_temp;\r\n    // uint soc_penalty_factor;\r\n    // uint avg_temp_penalty_factor_1;\r\n    // uint avg_temp_penalty_factor_2;\r\n    // uint avg_temp_penalty_factor_3;\r\n    // uint peak_power_penalty_factor;\r\n    // uint avg_power_penalty_factor;\r\n    // uint max_dod;\r\n    \r\n    // Need to add DEFAULT\r\n    enum State {DEFAULT, PRODUCED, FORSALE, SOLD, INSTALLED, MANAGED, ACTIVE, RETURNED}\r\n    enum WarrantyStatus {UNDER_WARRANTY, OUT_OF_WARRANTY}\r\n\r\n    // Battery Information\r\n    struct BatteryInfo {\r\n        \r\n        // An arbitrary battery ID\r\n        string batteryID;\r\n        \r\n        // The onwer of the battery after sold\r\n        address owner;\r\n        \r\n        // Trusted EMS Provider (e.g. NEC)\r\n        address emsProvider;\r\n        \r\n        // Original Capacity in kWh\r\n        uint bolCapacity;\r\n        \r\n        // Maximum power (PCS) in kW\r\n        uint maxPower;\r\n        \r\n        // Battery price in Ether\r\n        uint price;\r\n        \r\n        // Degraded capacity\r\n        // If it reaches 60%, the battery is goint to be out of warranty\r\n        uint adjustedCapacity;\r\n        \r\n        uint annual_accum_disch_energy;\r\n        \r\n        // State: forSale, sold, managed, underControl, returned, etc.\r\n        State state;\r\n        \r\n        // WarrantyStatus: underWarranty or outOfWarranty\r\n        WarrantyStatus warrantyStatus;\r\n        \r\n        // Current year\r\n        uint currentYear;\r\n        \r\n        // Warranty period could be 3 years or 4-10 years with extension as long as 60% of the capacity remains\r\n        // If you want to extend, you have to pay for extension before the year\r\n        uint warrantyPeriod; \r\n        // uint extendedWarranty;\r\n    \r\n        // uint acceptedDate;\r\n        // uint operationStartDateTime;\r\n        // uint operationEndDateTime;\r\n        // uint warrantyViolatedDateTime;\r\n        \r\n        // In reality, this becomes much more complicated with the real-time Application, this is beta version of warranty app\r\n        // Later it is going to be updated to accomodate multi-year data\r\n        bool isDataReported;\r\n        AnnualAverageSOC annualAverageSOC;\r\n        AnnualAccumulatedDischargeEnergy aade;\r\n        PeakDCPower peakDCPower;\r\n        DailyAverageDCPower dailyAverageDCPower;\r\n        \r\n        // When the warranty contract should be expanded for multiple years\r\n        //mapping(uint => AnnualAverageSOC) yearToAnnualAverageSOCInfo;\r\n        //AnnualAverageSOC[] annualAverageSOCList;\r\n        \r\n        bool isWarrantyAnalyzed;\r\n        WarrantyAnalysisInfo warrantyAnalysisInfo;\r\n        \r\n    }\r\n    \r\n    // Annual average SOC information\r\n    struct AnnualAverageSOC {\r\n        uint year;\r\n        // uint startDate;\r\n        // uint endDate;\r\n        uint value;\r\n        bool violationFlag;\r\n    }\r\n    \r\n    // Annual Accumulated Discharge Energy Information\r\n    struct AnnualAccumulatedDischargeEnergy {\r\n        uint year;\r\n        uint value;\r\n        bool violationFlag;\r\n    }\r\n    \r\n    // Peak DC Power Information\r\n    struct PeakDCPower {\r\n        uint year;\r\n        uint month;\r\n        uint day;\r\n        uint hour;\r\n        uint value;\r\n        bool violationFlag;\r\n    }\r\n    \r\n    // Daily Average DC Power Information\r\n    struct DailyAverageDCPower {\r\n        uint year;\r\n        uint month;\r\n        uint day;\r\n        uint value;\r\n        bool violationFlag;\r\n    }\r\n\r\n    // Warranty Violation Information for each conditioin\r\n    // If one of following gets violated and becomes true, the warranty is out.\r\n    struct WarrantyAnalysisInfo {\r\n        bool annualAverageSOCViolation;\r\n        bool annualAccumulatedDischargeEnergyViolation;\r\n        bool peakDCPowerViolation;\r\n        bool dailyAverageDCPowerViolation;\r\n        //bool averageHourlyTemperatureViolation;\r\n    }\r\n    \r\n    //mapping(address => OwnerInfo) addressToOwnerInfo;\r\n    \r\n    mapping(uint256 => BatteryInfo) tokenIdToBatteryInfo;\r\n    //BatteryInfo[] public batteries; // Needed to deal with like an array\r\n    \r\n    // Events\r\n    event ForSale(uint tokenId);\r\n    event Sold(uint _tokenId);\r\n    event Installed(uint _tokenId);\r\n    event Managed(uint _tokenId);\r\n    event Activated(uint _tokenId);\r\n    \r\n    // Currently the modifier conditions are minimized for easier testing\r\n    // modifier onlyBatteryProvider {\r\n    //     require(msg.sender == batteryProvider);\r\n    //     _;\r\n    // }\r\n    \r\n    // modifier onlyEMSProvider(address _emsProvider) {\r\n    //     require(msg.sender == _emsProvider);\r\n    //     _;\r\n    // }\r\n    \r\n    // modifier onlyOwner(address _owner) {\r\n    //     require(msg.sender == _owner);\r\n    //     _;\r\n    // }\r\n    \r\n    // Define a modifier that verifies the Caller\r\n    modifier verifyCaller (address _address) {\r\n        require(msg.sender == _address);\r\n        _;\r\n    }\r\n\r\n    // Define a modifier that checks if the paid amount is sufficient to cover the price\r\n    modifier paidEnough(uint _price) {\r\n        require(msg.value >= _price);\r\n        _;\r\n    }\r\n\r\n    // Define a modifier that checks if the state of the item of _tokenId is ForSale\r\n    modifier forSale(uint _tokenId) {\r\n        require(tokenIdToBatteryInfo[_tokenId].state == State.FORSALE);\r\n        _;\r\n    }\r\n\r\n    // Define a modifier that checks if the state of the item of _tokenId is Sold\r\n    modifier sold(uint _tokenId) {\r\n        require(tokenIdToBatteryInfo[_tokenId].state == State.SOLD);\r\n        _;\r\n    }\r\n    \r\n    // Define a modifier that checks if the state of the item of _tokenId is Installed\r\n    modifier installed(uint _tokenId) {\r\n        require(tokenIdToBatteryInfo[_tokenId].state == State.INSTALLED);\r\n        _;\r\n    }\r\n    \r\n    // Define a modifier that checks if the state of the item of _tokenId is managed\r\n    modifier managed(uint _tokenId) {\r\n        require(tokenIdToBatteryInfo[_tokenId].state == State.MANAGED);\r\n        _;\r\n    }\r\n\r\n    // Define a modifier that checks if the state of the item of _tokenId is activated\r\n    modifier activated(uint _tokenId) {\r\n        require(tokenIdToBatteryInfo[_tokenId].state == State.ACTIVE);\r\n        _;\r\n    }\r\n    \r\n    // Define a modifier that checks if the state of the item of _tokenId is activated\r\n    modifier isDataReported(uint _tokenId) {\r\n        require(tokenIdToBatteryInfo[_tokenId].isDataReported == true);\r\n        _;\r\n    }\r\n\r\n    \r\n    // Constructor: variables are all initialized here\r\n    constructor() public {\r\n        \r\n        batteryProvider = msg.sender;\r\n        \r\n        max_average_soc = 53;\r\n        peak_dc_rack_power = 45670;\r\n        daily_avg_rack_power = 7600;\r\n        // abs_min_enclosure_temp = 15;\r\n        // nom_min_enclosure_temp = 18;\r\n        // max_enclosure_temp = 28;\r\n        // min_module_temp = 20;\r\n        // max_average_enclosure_temp = 25;\r\n        // abs_max_storage_temp = 60;\r\n        // max_module_oper_temp = 26500;\r\n        // annual_accum_disch_energy = 0;\r\n        // soc_penalty_factor = 2300;\r\n        // avg_temp_penalty_factor_1 = 4;\r\n        // avg_temp_penalty_factor_2 = 10;\r\n        // avg_temp_penalty_factor_3 = 80;\r\n        // peak_power_penalty_factor = 1;\r\n        // avg_power_penalty_factor = 9;\r\n        //max_dod = 100;\r\n        \r\n    }\r\n    \r\n    function registerTrustedEMSProvider(address _address) public onlyBatteryProvider(batteryProvider) {\r\n        trustedEMSProvider = _address;\r\n    }\r\n    \r\n    // Registering battery information\r\n    function registerBatteryInfo(string _batteryID, address batteryOwner, address trustedEMSProvider, uint capacity, uint power, uint year, uint warrantyPeriod) public onlyBatteryProvider(batteryProvider) {\r\n        \r\n        require(tokenId != 0);\r\n        \r\n        //BatteryInfo memory newBattery = BatteryInfo(_batteryID, batteryOwner, trustedEMSProvider, false, false, false, false, false);\r\n        //tokenIdToBatteryInfo[tokenId] = newBattery;\r\n        //tokenIdToBatteryInfo[tokenId].test[2013] = batteryOwner;\r\n        \r\n        tokenIdToBatteryInfo[tokenId].batteryID = _batteryID;\r\n        tokenIdToBatteryInfo[tokenId].owner = batteryOwner;\r\n        tokenIdToBatteryInfo[tokenId].emsProvider = trustedEMSProvider;\r\n        tokenIdToBatteryInfo[tokenId].bolCapacity = capacity;\r\n        tokenIdToBatteryInfo[tokenId].maxPower = power;\r\n        tokenIdToBatteryInfo[tokenId].adjustedCapacity = capacity;\r\n        tokenIdToBatteryInfo[tokenId].state = State.PRODUCED;\r\n        tokenIdToBatteryInfo[tokenId].warrantyStatus = WarrantyStatus.UNDER_WARRANTY;\r\n        tokenIdToBatteryInfo[tokenId].currentYear = year;\r\n        tokenIdToBatteryInfo[tokenId].warrantyPeriod  = warrantyPeriod;\r\n\r\n        tokenId ++;\r\n    }\r\n\r\n    \r\n    // Registering battery information\r\n    function produceBattery(string _batteryID, uint _capacity, uint _power, uint _price, uint _year, uint _warrantyPeriod) public onlyBatteryProvider(batteryProvider) {\r\n        \r\n        require(tokenId != 0);\r\n        \r\n        tokenIdToBatteryInfo[tokenId].batteryID = _batteryID;\r\n        tokenIdToBatteryInfo[tokenId].bolCapacity = _capacity;\r\n        tokenIdToBatteryInfo[tokenId].maxPower = _power;\r\n        tokenIdToBatteryInfo[tokenId].price = _price;\r\n        tokenIdToBatteryInfo[tokenId].adjustedCapacity = _capacity;\r\n        // if year is leap year, need to be 366\r\n        tokenIdToBatteryInfo[tokenId].annual_accum_disch_energy = 365 * 525 * _capacity;\r\n        tokenIdToBatteryInfo[tokenId].state = State.PRODUCED;\r\n        tokenIdToBatteryInfo[tokenId].warrantyStatus = WarrantyStatus.UNDER_WARRANTY;\r\n        tokenIdToBatteryInfo[tokenId].currentYear = _year;\r\n        tokenIdToBatteryInfo[tokenId].warrantyPeriod  = _warrantyPeriod;\r\n        \r\n        tokenId ++;\r\n    }\r\n    \r\n    function addItem(uint _tokenId) public onlyBatteryProvider(batteryProvider) {\r\n        require(tokenIdToBatteryInfo[_tokenId].state == State.PRODUCED);\r\n        \r\n        // Emit the appropriate event\r\n        emit ForSale(_tokenId);\r\n        \r\n        tokenIdToBatteryInfo[_tokenId].state = State.FORSALE;\r\n    }\r\n    \r\n    function buyItem(uint _tokenId) forSale(_tokenId) paidEnough(tokenIdToBatteryInfo[_tokenId].price) public payable {\r\n        //require(tokenIdToBatteryInfo[tokenId].state == State.FORSALE);\r\n        \r\n        address buyer = msg.sender;\r\n        uint price = tokenIdToBatteryInfo[_tokenId].price;\r\n\r\n        // Update Buyer\r\n        tokenIdToBatteryInfo[_tokenId].owner = buyer;\r\n\r\n        // Update State\r\n        tokenIdToBatteryInfo[_tokenId].state = State.SOLD;\r\n\r\n        // Transfer money to seller\r\n        batteryProvider.transfer(price);\r\n        //items[sku].seller.transfer(price);\r\n\r\n        // Emit the appropriate event\r\n        emit Sold(_tokenId);\r\n    }\r\n    \r\n    // Used only when the battery is transacted not using ether coins\r\n    // In this case, this function is called only by battery provider after confirming the payment\r\n    function assignBatteryOwner(uint _tokenId, address _address) forSale(_tokenId) onlyBatteryProvider(batteryProvider) public {\r\n\r\n        // Update Buyer\r\n        tokenIdToBatteryInfo[_tokenId].owner = _address;\r\n\r\n        // Update State\r\n        tokenIdToBatteryInfo[_tokenId].state = State.SOLD;\r\n\r\n        // Emit the appropriate event\r\n        emit Sold(_tokenId);\r\n    }\r\n    \r\n    // Once the battery is sold, the onwner needs to install the battery\r\n    function installBattery(uint _tokenId) sold(_tokenId) onlyBatteryUser(tokenIdToBatteryInfo[_tokenId].owner) public {\r\n\r\n        // Update State\r\n        tokenIdToBatteryInfo[_tokenId].state = State.INSTALLED;\r\n        \r\n        // Emit the appropriate event\r\n        emit Installed(_tokenId);\r\n    }\r\n    \r\n    \r\n    function manageBattery(uint _tokenId, address _emsProviderAddress) installed(_tokenId) onlyBatteryProvider(batteryProvider) public {\r\n        \r\n        // If needed, verify if _addrress is recorded as the trustedEMSProvider\r\n        \r\n        // Update EMS Provider\r\n        tokenIdToBatteryInfo[_tokenId].emsProvider = _emsProviderAddress;\r\n        \r\n        // Update State\r\n        tokenIdToBatteryInfo[_tokenId].state = State.MANAGED;\r\n\r\n        // Emit the appropriate event\r\n        emit Managed(_tokenId);\r\n    }\r\n    \r\n    // EMS Provider should change the state of the battery to active when controling it\r\n    function utilizeBattery(uint _tokenId) managed(_tokenId) onlyEMSProvider(tokenIdToBatteryInfo[_tokenId].emsProvider) public {\r\n        \r\n        // Update State\r\n        tokenIdToBatteryInfo[_tokenId].state = State.ACTIVE;\r\n\r\n        // Emit the appropriate event\r\n        emit Activated(_tokenId);\r\n    }\r\n    \r\n    // EMS Provider can record important information for warranty analysis\r\n    function getUsageData(uint _tokenId, uint _year, uint _month, uint _day, uint _hour, uint _socValue, uint _aade, uint _peakDCPower, uint _averageDailyDCPower) activated(_tokenId) onlyEMSProvider(tokenIdToBatteryInfo[_tokenId].emsProvider) public {\r\n        \r\n        tokenIdToBatteryInfo[_tokenId].annualAverageSOC.year = _year;\r\n        tokenIdToBatteryInfo[_tokenId].annualAverageSOC.value = _socValue;\r\n\r\n        tokenIdToBatteryInfo[_tokenId].aade.year = _year;\r\n        tokenIdToBatteryInfo[_tokenId].aade.value = _aade;\r\n\r\n        tokenIdToBatteryInfo[_tokenId].peakDCPower.year = _year;\r\n        tokenIdToBatteryInfo[_tokenId].peakDCPower.month = _month;\r\n        tokenIdToBatteryInfo[_tokenId].peakDCPower.day = _day;\r\n        tokenIdToBatteryInfo[_tokenId].peakDCPower.hour = _hour;\r\n        tokenIdToBatteryInfo[_tokenId].peakDCPower.value = _peakDCPower;\r\n        \r\n        tokenIdToBatteryInfo[_tokenId].dailyAverageDCPower.year = _year;\r\n        tokenIdToBatteryInfo[_tokenId].dailyAverageDCPower.month = _month;\r\n        tokenIdToBatteryInfo[_tokenId].dailyAverageDCPower.day = _day;\r\n        tokenIdToBatteryInfo[_tokenId].dailyAverageDCPower.value = _averageDailyDCPower;\r\n        \r\n        tokenIdToBatteryInfo[_tokenId].isDataReported = true;\r\n    }\r\n    \r\n    // Once the warranty information is provided, the battery provider will check if the conditions are met\r\n    function checkWarranty(uint _tokenId) activated(_tokenId) onlyBatteryProvider(batteryProvider) public {\r\n        require(tokenIdToBatteryInfo[_tokenId].isDataReported == true);\r\n        \r\n        checkAnnualAverageSOCWarranty(_tokenId);\r\n        checkAnnualAccumulatedDischargeEnergyWarranty(_tokenId);\r\n        checkPeakDCPowerPerRackWarranty(_tokenId);\r\n        checkDailyAverageDCPowerWarranty(_tokenId);\r\n        \r\n        tokenIdToBatteryInfo[_tokenId].isWarrantyAnalyzed = true;\r\n    }\r\n    \r\n    // Checking Annual Average SOC Warranty\r\n    function checkAnnualAverageSOCWarranty(uint _tokenId) activated(_tokenId) onlyBatteryProvider(batteryProvider) public {\r\n        require(tokenIdToBatteryInfo[_tokenId].isDataReported == true);\r\n\r\n        bool violationFlag = false;\r\n        uint socValue = tokenIdToBatteryInfo[_tokenId].annualAverageSOC.value;\r\n\r\n        if (socValue > max_average_soc) {\r\n            tokenIdToBatteryInfo[_tokenId].annualAverageSOC.violationFlag = true;\r\n            violationFlag = true;\r\n        }\r\n        \r\n        tokenIdToBatteryInfo[_tokenId].warrantyAnalysisInfo.annualAverageSOCViolation = violationFlag;\r\n    }\r\n    \r\n    // Checking Annual Accumulated Discharge Energy Warranty\r\n    function checkAnnualAccumulatedDischargeEnergyWarranty(uint _tokenId) activated(_tokenId) onlyBatteryProvider(batteryProvider) public {\r\n\r\n        require(tokenIdToBatteryInfo[_tokenId].isDataReported == true);\r\n        \r\n        bool violationFlag = false;\r\n        uint aade = tokenIdToBatteryInfo[_tokenId].aade.value;\r\n        if (aade > tokenIdToBatteryInfo[_tokenId].annual_accum_disch_energy) {\r\n            tokenIdToBatteryInfo[_tokenId].aade.violationFlag = true;\r\n            violationFlag = true;\r\n        }\r\n        \r\n        tokenIdToBatteryInfo[_tokenId].warrantyAnalysisInfo.annualAccumulatedDischargeEnergyViolation = violationFlag;\r\n    }\r\n    \r\n    // Checking Peak DC Power per Rack Warranty\r\n    function checkPeakDCPowerPerRackWarranty(uint _tokenId) activated(_tokenId) onlyBatteryProvider(batteryProvider) public {\r\n        \r\n        require(tokenIdToBatteryInfo[_tokenId].isDataReported == true);\r\n        \r\n        bool violationFlag = false;\r\n        uint peakBatteryPower = tokenIdToBatteryInfo[_tokenId].peakDCPower.value;\r\n        if (peakBatteryPower > peak_dc_rack_power) {\r\n            tokenIdToBatteryInfo[_tokenId].peakDCPower.violationFlag = true;\r\n            violationFlag = true;\r\n        }\r\n        \r\n        tokenIdToBatteryInfo[_tokenId].warrantyAnalysisInfo.peakDCPowerViolation = violationFlag;\r\n    }\r\n    \r\n    // Checking Daily Average DC Power Warranty\r\n    function checkDailyAverageDCPowerWarranty(uint _tokenId) activated(_tokenId) onlyBatteryProvider(batteryProvider) public {\r\n        \r\n        require(tokenIdToBatteryInfo[_tokenId].isDataReported == true);\r\n\r\n        bool violationFlag = false;\r\n        uint dailyAverageDCPower = tokenIdToBatteryInfo[_tokenId].dailyAverageDCPower.value;\r\n        if (dailyAverageDCPower > daily_avg_rack_power) {\r\n            tokenIdToBatteryInfo[_tokenId].dailyAverageDCPower.violationFlag = true;\r\n            violationFlag = true;\r\n        }\r\n        \r\n        tokenIdToBatteryInfo[_tokenId].warrantyAnalysisInfo.dailyAverageDCPowerViolation = violationFlag;\r\n    }\r\n    \r\n    // Update warranty status if any violation is detected\r\n    function updateWarranty(uint _tokenId) activated(_tokenId) onlyBatteryProvider(batteryProvider) public {\r\n        \r\n        require(tokenIdToBatteryInfo[_tokenId].isWarrantyAnalyzed == true);\r\n        \r\n        WarrantyAnalysisInfo wInfo = tokenIdToBatteryInfo[_tokenId].warrantyAnalysisInfo;\r\n        \r\n        bool warrantyViolation = false;\r\n        \r\n        if (wInfo.annualAverageSOCViolation == true || wInfo.annualAccumulatedDischargeEnergyViolation == true || wInfo.peakDCPowerViolation == true || wInfo.dailyAverageDCPowerViolation == true) {\r\n            warrantyViolation = true;\r\n        }\r\n        \r\n        if (warrantyViolation == true) {\r\n            tokenIdToBatteryInfo[_tokenId].warrantyStatus = WarrantyStatus.OUT_OF_WARRANTY;\r\n        } else {\r\n            tokenIdToBatteryInfo[_tokenId].warrantyStatus = WarrantyStatus.UNDER_WARRANTY;\r\n        }\r\n    }\r\n\r\n    function testProduceBatteryAndEMSProvider() public {\r\n        \r\n        registerTrustedEMSProvider(0x14723a09acff6d2a60dcdf7aa4aff308fddc160c);\r\n        \r\n        // 1 eth ~= 130 as of 3/12/2019\r\n        produceBattery(\"testBattery1\", 170, 100, 80, 2019, 3);\r\n\r\n    }\r\n    \r\n    //TODO need modifier\r\n    function modifyWarrantyState(uint _tokenId, WarrantyStatus status) onlyBatteryProvider(batteryProvider) public {\r\n        \r\n        BatteryInfo storage bInfo = tokenIdToBatteryInfo[_tokenId];\r\n        bInfo.warrantyStatus = status;\r\n\r\n    }\r\n\r\n    function showBatteryInfo(uint _tokenId) public constant returns (string batteryID, address owner, address emsProvider, uint price, uint bolCapacity, uint maxPower, string stateIs, string warrantyStatus, uint currentYear, uint warrantyPeriod) {\r\n        BatteryInfo storage bInfo = tokenIdToBatteryInfo[_tokenId];\r\n        uint bstate = uint(bInfo.state);\r\n        uint wstatus = uint(bInfo.warrantyStatus);\r\n\r\n        // PRODUCED, FORSALE, SOLD, INSTALLED, MANAGED, RETURNED}\r\n        if (bstate == 0) {\r\n            stateIs = \"Default\";\r\n        } else if (bstate == 1) {\r\n            stateIs = \"Produced\";\r\n        } else if (bstate == 2) {\r\n            stateIs = \"ForSale\";\r\n        } else if (bstate == 3) {\r\n            stateIs = \"Sold\";\r\n        } else if (bstate == 4) {\r\n            stateIs = \"Installed\";\r\n        } else if (bstate == 5) {\r\n            stateIs = \"Managed\";\r\n        } else if (bstate == 6) {\r\n            stateIs = \"Active\";\r\n        } else if (bstate == 7) {\r\n            stateIs = \"Returned\";\r\n        } else {\r\n            stateIs = \"Undefined\";\r\n        }\r\n        \r\n        if (wstatus == 0) {\r\n            warrantyStatus = \"Under Warranty\";\r\n        } else if (wstatus == 1) {\r\n            warrantyStatus = \"Out of Warranty\";\r\n        } \r\n         \r\n        return (\r\n            bInfo.batteryID, \r\n            bInfo.owner,\r\n            bInfo.emsProvider,\r\n            bInfo.price,\r\n            bInfo.bolCapacity,\r\n            bInfo.maxPower,\r\n            stateIs,\r\n            warrantyStatus,\r\n            bInfo.currentYear,\r\n            bInfo.warrantyPeriod\r\n        );\r\n    }\r\n    \r\n    function showBatteryDataReportStatus(uint _tokenId) public constant returns (bool isDataReported) {\r\n        return ( tokenIdToBatteryInfo[_tokenId].isDataReported );\r\n    }\r\n\r\n    function showBatteryWarrantyAnalyzeStatus(uint _tokenId) public constant returns (bool isWarrantyAnalyzed) {\r\n        return ( tokenIdToBatteryInfo[_tokenId].isWarrantyAnalyzed );\r\n    }\r\n\r\n    function showBatteryViolationInfo(uint _tokenId) public constant returns (string batteryID, address owner, address emsProvider, bool annualAverageSOCViolation, bool annualAccumulatedDischargeEnergyViolation, bool peakDCPowerViolation, bool dailyAverageDCPowerViolation) {\r\n        BatteryInfo storage bInfo = tokenIdToBatteryInfo[_tokenId];\r\n        \r\n        return (\r\n            bInfo.batteryID, \r\n            bInfo.owner,\r\n            bInfo.emsProvider,\r\n            bInfo.warrantyAnalysisInfo.annualAverageSOCViolation,\r\n            bInfo.warrantyAnalysisInfo.annualAccumulatedDischargeEnergyViolation,\r\n            bInfo.warrantyAnalysisInfo.peakDCPowerViolation,\r\n            bInfo.warrantyAnalysisInfo.dailyAverageDCPowerViolation\r\n            //bInfo.warrantyAnalysisInfo.averageHourlyTemperatureViolation,\r\n            //bInfo.test[2013]\r\n        );\r\n    }\r\n\r\n    function showAnnualAverageSOC(uint _tokenId, uint _year) public constant returns (uint TokenID, uint year, uint annualAverageSOC, bool annualAverageSOCViolation) {\r\n        \r\n        //AnnualAverageSOC[] socInfoList = tokenIdToAnnualAverageSOCList[_tokenId];\r\n        AnnualAverageSOC socInfo = tokenIdToBatteryInfo[_tokenId].annualAverageSOC;\r\n        \r\n        return (\r\n            _tokenId,\r\n            socInfo.year,\r\n            socInfo.value,\r\n            socInfo.violationFlag\r\n        );\r\n    }\r\n    \r\n    function showVariables(uint _tokenId) public constant returns (uint Max_Average_Soc, uint Peak_DC_Rack_Power, uint Daily_Avg_Rack_Power, uint Annual_Accum_Disch_Energy) {\r\n        return (\r\n            max_average_soc,\r\n            peak_dc_rack_power,\r\n            daily_avg_rack_power,\r\n            tokenIdToBatteryInfo[_tokenId].annual_accum_disch_energy\r\n        );\r\n    }\r\n}",
  "sourcePath": "C:\\Users\\knakayama\\git\\SmartWarranty_ver1\\smart_contracts\\contracts\\batterybase\\SupplyChain.sol",
  "compiler": {
    "name": "solc",
    "version": "0.4.24+commit.e67f0147.Emscripten.clang"
  },
  "schemaVersion": "2.0.1",
  "updatedAt": "2019-03-20T23:52:27.288Z"
}