{
  "contractName": "SupplyChain",
  "abi": [
    {
      "constant": true,
      "inputs": [],
      "name": "tokenId",
      "outputs": [
        {
          "name": "",
          "type": "uint256"
        }
      ],
      "payable": false,
      "stateMutability": "view",
      "type": "function"
    },
    {
      "inputs": [],
      "payable": false,
      "stateMutability": "nonpayable",
      "type": "constructor"
    },
    {
      "anonymous": false,
      "inputs": [
        {
          "indexed": false,
          "name": "tokenId",
          "type": "uint256"
        }
      ],
      "name": "ForSale",
      "type": "event"
    },
    {
      "anonymous": false,
      "inputs": [
        {
          "indexed": false,
          "name": "_tokenId",
          "type": "uint256"
        }
      ],
      "name": "Sold",
      "type": "event"
    },
    {
      "anonymous": false,
      "inputs": [
        {
          "indexed": false,
          "name": "_tokenId",
          "type": "uint256"
        }
      ],
      "name": "Installed",
      "type": "event"
    },
    {
      "anonymous": false,
      "inputs": [
        {
          "indexed": false,
          "name": "_tokenId",
          "type": "uint256"
        }
      ],
      "name": "Managed",
      "type": "event"
    },
    {
      "anonymous": false,
      "inputs": [
        {
          "indexed": false,
          "name": "_tokenId",
          "type": "uint256"
        }
      ],
      "name": "Activated",
      "type": "event"
    },
    {
      "constant": false,
      "inputs": [
        {
          "name": "_address",
          "type": "address"
        }
      ],
      "name": "registerTrustedEMSProvider",
      "outputs": [],
      "payable": false,
      "stateMutability": "nonpayable",
      "type": "function"
    },
    {
      "constant": false,
      "inputs": [
        {
          "name": "_batteryID",
          "type": "string"
        },
        {
          "name": "batteryOwner",
          "type": "address"
        },
        {
          "name": "trustedEMSProvider",
          "type": "address"
        },
        {
          "name": "capacity",
          "type": "uint256"
        },
        {
          "name": "power",
          "type": "uint256"
        },
        {
          "name": "year",
          "type": "uint256"
        },
        {
          "name": "warrantyPeriod",
          "type": "uint256"
        }
      ],
      "name": "registerBatteryInfo",
      "outputs": [],
      "payable": false,
      "stateMutability": "nonpayable",
      "type": "function"
    },
    {
      "constant": false,
      "inputs": [
        {
          "name": "_batteryID",
          "type": "string"
        },
        {
          "name": "_capacity",
          "type": "uint256"
        },
        {
          "name": "_power",
          "type": "uint256"
        },
        {
          "name": "_price",
          "type": "uint256"
        },
        {
          "name": "_year",
          "type": "uint256"
        },
        {
          "name": "_warrantyPeriod",
          "type": "uint256"
        }
      ],
      "name": "produceBattery",
      "outputs": [],
      "payable": false,
      "stateMutability": "nonpayable",
      "type": "function"
    },
    {
      "constant": false,
      "inputs": [
        {
          "name": "_tokenId",
          "type": "uint256"
        }
      ],
      "name": "addItem",
      "outputs": [],
      "payable": false,
      "stateMutability": "nonpayable",
      "type": "function"
    },
    {
      "constant": false,
      "inputs": [
        {
          "name": "_tokenId",
          "type": "uint256"
        }
      ],
      "name": "buyItem",
      "outputs": [],
      "payable": true,
      "stateMutability": "payable",
      "type": "function"
    },
    {
      "constant": false,
      "inputs": [
        {
          "name": "_tokenId",
          "type": "uint256"
        },
        {
          "name": "_address",
          "type": "address"
        }
      ],
      "name": "assignBatteryOwner",
      "outputs": [],
      "payable": false,
      "stateMutability": "nonpayable",
      "type": "function"
    },
    {
      "constant": false,
      "inputs": [
        {
          "name": "_tokenId",
          "type": "uint256"
        }
      ],
      "name": "installBattery",
      "outputs": [],
      "payable": false,
      "stateMutability": "nonpayable",
      "type": "function"
    },
    {
      "constant": false,
      "inputs": [
        {
          "name": "_tokenId",
          "type": "uint256"
        },
        {
          "name": "_emsProviderAddress",
          "type": "address"
        }
      ],
      "name": "manageBattery",
      "outputs": [],
      "payable": false,
      "stateMutability": "nonpayable",
      "type": "function"
    },
    {
      "constant": false,
      "inputs": [
        {
          "name": "_tokenId",
          "type": "uint256"
        }
      ],
      "name": "utilizeBattery",
      "outputs": [],
      "payable": false,
      "stateMutability": "nonpayable",
      "type": "function"
    },
    {
      "constant": false,
      "inputs": [
        {
          "name": "_tokenId",
          "type": "uint256"
        },
        {
          "name": "_year",
          "type": "uint256"
        },
        {
          "name": "_month",
          "type": "uint256"
        },
        {
          "name": "_day",
          "type": "uint256"
        },
        {
          "name": "_hour",
          "type": "uint256"
        },
        {
          "name": "_socValue",
          "type": "uint256"
        },
        {
          "name": "_aade",
          "type": "uint256"
        },
        {
          "name": "_peakDCPower",
          "type": "uint256"
        },
        {
          "name": "_averageDailyDCPower",
          "type": "uint256"
        }
      ],
      "name": "getUsageData",
      "outputs": [],
      "payable": false,
      "stateMutability": "nonpayable",
      "type": "function"
    },
    {
      "constant": false,
      "inputs": [
        {
          "name": "_tokenId",
          "type": "uint256"
        }
      ],
      "name": "checkWarranty",
      "outputs": [],
      "payable": false,
      "stateMutability": "nonpayable",
      "type": "function"
    },
    {
      "constant": false,
      "inputs": [
        {
          "name": "_tokenId",
          "type": "uint256"
        }
      ],
      "name": "checkAnnualAverageSOCWarranty",
      "outputs": [],
      "payable": false,
      "stateMutability": "nonpayable",
      "type": "function"
    },
    {
      "constant": false,
      "inputs": [
        {
          "name": "_tokenId",
          "type": "uint256"
        }
      ],
      "name": "checkAnnualAccumulatedDischargeEnergyWarranty",
      "outputs": [],
      "payable": false,
      "stateMutability": "nonpayable",
      "type": "function"
    },
    {
      "constant": false,
      "inputs": [
        {
          "name": "_tokenId",
          "type": "uint256"
        }
      ],
      "name": "checkPeakDCPowerPerRackWarranty",
      "outputs": [],
      "payable": false,
      "stateMutability": "nonpayable",
      "type": "function"
    },
    {
      "constant": false,
      "inputs": [
        {
          "name": "_tokenId",
          "type": "uint256"
        }
      ],
      "name": "checkDailyAverageDCPowerWarranty",
      "outputs": [],
      "payable": false,
      "stateMutability": "nonpayable",
      "type": "function"
    },
    {
      "constant": false,
      "inputs": [
        {
          "name": "_tokenId",
          "type": "uint256"
        }
      ],
      "name": "updateWarranty",
      "outputs": [],
      "payable": false,
      "stateMutability": "nonpayable",
      "type": "function"
    },
    {
      "constant": false,
      "inputs": [],
      "name": "testProduceBatteryAndEMSProvider",
      "outputs": [],
      "payable": false,
      "stateMutability": "nonpayable",
      "type": "function"
    },
    {
      "constant": false,
      "inputs": [
        {
          "name": "_tokenId",
          "type": "uint256"
        },
        {
          "name": "status",
          "type": "uint8"
        }
      ],
      "name": "modifyWarrantyState",
      "outputs": [],
      "payable": false,
      "stateMutability": "nonpayable",
      "type": "function"
    },
    {
      "constant": true,
      "inputs": [
        {
          "name": "_tokenId",
          "type": "uint256"
        }
      ],
      "name": "showBatteryInfo",
      "outputs": [
        {
          "name": "batteryID",
          "type": "string"
        },
        {
          "name": "owner",
          "type": "address"
        },
        {
          "name": "emsProvider",
          "type": "address"
        },
        {
          "name": "price",
          "type": "uint256"
        },
        {
          "name": "bolCapacity",
          "type": "uint256"
        },
        {
          "name": "maxPower",
          "type": "uint256"
        },
        {
          "name": "stateIs",
          "type": "string"
        },
        {
          "name": "warrantyStatus",
          "type": "string"
        },
        {
          "name": "currentYear",
          "type": "uint256"
        },
        {
          "name": "warrantyPeriod",
          "type": "uint256"
        }
      ],
      "payable": false,
      "stateMutability": "view",
      "type": "function"
    },
    {
      "constant": true,
      "inputs": [
        {
          "name": "_tokenId",
          "type": "uint256"
        }
      ],
      "name": "showBatteryDataReportStatus",
      "outputs": [
        {
          "name": "isDataReported",
          "type": "bool"
        }
      ],
      "payable": false,
      "stateMutability": "view",
      "type": "function"
    },
    {
      "constant": true,
      "inputs": [
        {
          "name": "_tokenId",
          "type": "uint256"
        }
      ],
      "name": "showBatteryWarrantyAnalyzeStatus",
      "outputs": [
        {
          "name": "isWarrantyAnalyzed",
          "type": "bool"
        }
      ],
      "payable": false,
      "stateMutability": "view",
      "type": "function"
    },
    {
      "constant": true,
      "inputs": [
        {
          "name": "_tokenId",
          "type": "uint256"
        }
      ],
      "name": "showBatteryViolationInfo",
      "outputs": [
        {
          "name": "batteryID",
          "type": "string"
        },
        {
          "name": "owner",
          "type": "address"
        },
        {
          "name": "emsProvider",
          "type": "address"
        },
        {
          "name": "annualAverageSOCViolation",
          "type": "bool"
        },
        {
          "name": "annualAccumulatedDischargeEnergyViolation",
          "type": "bool"
        },
        {
          "name": "peakDCPowerViolation",
          "type": "bool"
        },
        {
          "name": "dailyAverageDCPowerViolation",
          "type": "bool"
        }
      ],
      "payable": false,
      "stateMutability": "view",
      "type": "function"
    },
    {
      "constant": true,
      "inputs": [
        {
          "name": "_tokenId",
          "type": "uint256"
        },
        {
          "name": "_year",
          "type": "uint256"
        }
      ],
      "name": "showAnnualAverageSOC",
      "outputs": [
        {
          "name": "TokenID",
          "type": "uint256"
        },
        {
          "name": "year",
          "type": "uint256"
        },
        {
          "name": "annualAverageSOC",
          "type": "uint256"
        },
        {
          "name": "annualAverageSOCViolation",
          "type": "bool"
        }
      ],
      "payable": false,
      "stateMutability": "view",
      "type": "function"
    },
    {
      "constant": true,
      "inputs": [
        {
          "name": "_tokenId",
          "type": "uint256"
        }
      ],
      "name": "showVariables",
      "outputs": [
        {
          "name": "Max_Average_Soc",
          "type": "uint256"
        },
        {
          "name": "Peak_DC_Rack_Power",
          "type": "uint256"
        },
        {
          "name": "Daily_Avg_Rack_Power",
          "type": "uint256"
        },
        {
          "name": "Annual_Accum_Disch_Energy",
          "type": "uint256"
        }
      ],
      "payable": false,
      "stateMutability": "view",
      "type": "function"
    }
  ],
  "bytecode": "0x6080604052600160025534801561001557600080fd5b50336000806101000a81548173ffffffffffffffffffffffffffffffffffffffff021916908373ffffffffffffffffffffffffffffffffffffffff160217905550603560038190555061b266600481905550611db0600581905550612c298061007f6000396000f300608060405260043610610149576000357c0100000000000000000000000000000000000000000000000000000000900463ffffffff1680630d0b266a1461014e57806317d70f7c146102865780631a059b7e146102b15780631c5da9dc146102de5780633f73f78d1461030b5780634b1ba3e21461035857806350debde3146103f357806355e722ef1461044957806363a715931461047657806374f1fc61146104a35780638f100b3a146104d0578063a6193c1614610534578063bb18a0f614610561578063be634045146105ae578063bfc5d3b7146105db578063cc3c0d8d146105f2578063cfbc6fba1461062c578063da510e9c1461066f578063e2174efe1461069c578063e3ec567f146108a3578063e7fb74c7146108d0578063e8373df2146108f0578063ef04ea34146109c1578063f187173e14610a06578063ff54214914610a4b575b600080fd5b34801561015a57600080fd5b5061017960048036038101908080359060200190929190505050610ac8565b60405180806020018873ffffffffffffffffffffffffffffffffffffffff1673ffffffffffffffffffffffffffffffffffffffff1681526020018773ffffffffffffffffffffffffffffffffffffffff1673ffffffffffffffffffffffffffffffffffffffff16815260200186151515158152602001851515151581526020018415151515815260200183151515158152602001828103825289818151815260200191508051906020019080838360005b8381101561024557808201518184015260208101905061022a565b50505050905090810190601f1680156102725780820380516001836020036101000a031916815260200191505b509850505050505050505060405180910390f35b34801561029257600080fd5b5061029b610c42565b6040518082815260200191505060405180910390f35b3480156102bd57600080fd5b506102dc60048036038101908080359060200190929190505050610c48565b005b3480156102ea57600080fd5b5061030960048036038101908080359060200190929190505050610d76565b005b34801561031757600080fd5b5061035660048036038101908080359060200190929190803573ffffffffffffffffffffffffffffffffffffffff169060200190929190505050610eeb565b005b34801561036457600080fd5b506103f1600480360381019080803590602001908201803590602001908080601f01602080910402602001604051908101604052809392919081815260200183838082843782019150505050505091929192908035906020019092919080359060200190929190803590602001909291908035906020019092919080359060200190929190505050611058565b005b3480156103ff57600080fd5b5061041e60048036038101908080359060200190929190505050611250565b6040518085815260200184815260200183815260200182815260200194505050505060405180910390f35b34801561045557600080fd5b5061047460048036038101908080359060200190929190505050611285565b005b34801561048257600080fd5b506104a16004803603810190808035906020019092919050505061148a565b005b3480156104af57600080fd5b506104ce600480360381019080803590602001909291905050506115ff565b005b3480156104dc57600080fd5b506105056004803603810190808035906020019092919080359060200190929190505050611774565b604051808581526020018481526020018381526020018215151515815260200194505050505060405180910390f35b34801561054057600080fd5b5061055f600480360381019080803590602001909291905050506117c3565b005b34801561056d57600080fd5b506105ac60048036038101908080359060200190929190803573ffffffffffffffffffffffffffffffffffffffff16906020019092919050505061194c565b005b3480156105ba57600080fd5b506105d960048036038101908080359060200190929190505050611ab9565b005b3480156105e757600080fd5b506105f0611bce565b005b3480156105fe57600080fd5b5061062a60048036038101908080359060200190929190803560ff169060200190929190505050611c36565b005b34801561063857600080fd5b5061066d600480360381019080803573ffffffffffffffffffffffffffffffffffffffff169060200190929190505050611cd2565b005b34801561067b57600080fd5b5061069a60048036038101908080359060200190929190505050611d71565b005b3480156106a857600080fd5b506106c760048036038101908080359060200190929190505050611e9e565b60405180806020018b73ffffffffffffffffffffffffffffffffffffffff1673ffffffffffffffffffffffffffffffffffffffff1681526020018a73ffffffffffffffffffffffffffffffffffffffff1673ffffffffffffffffffffffffffffffffffffffff168152602001898152602001888152602001878152602001806020018060200186815260200185815260200184810384528e818151815260200191508051906020019080838360005b83811015610791578082015181840152602081019050610776565b50505050905090810190601f1680156107be5780820380516001836020036101000a031916815260200191505b50848103835288818151815260200191508051906020019080838360005b838110156107f75780820151818401526020810190506107dc565b50505050905090810190601f1680156108245780820380516001836020036101000a031916815260200191505b50848103825287818151815260200191508051906020019080838360005b8381101561085d578082015181840152602081019050610842565b50505050905090810190601f16801561088a5780820380516001836020036101000a031916815260200191505b509d505050505050505050505050505060405180910390f35b3480156108af57600080fd5b506108ce60048036038101908080359060200190929190505050612328565b005b6108ee60048036038101908080359060200190929190505050612459565b005b3480156108fc57600080fd5b506109bf600480360381019080803590602001908201803590602001908080601f0160208091040260200160405190810160405280939291908181526020018383808284378201915050505050509192919290803573ffffffffffffffffffffffffffffffffffffffff169060200190929190803573ffffffffffffffffffffffffffffffffffffffff1690602001909291908035906020019092919080359060200190929190803590602001909291908035906020019092919050505061261a565b005b3480156109cd57600080fd5b506109ec60048036038101908080359060200190929190505050612882565b604051808215151515815260200191505060405180910390f35b348015610a1257600080fd5b50610a31600480360381019080803590602001909291905050506128af565b604051808215151515815260200191505060405180910390f35b348015610a5757600080fd5b50610ac66004803603810190808035906020019092919080359060200190929190803590602001909291908035906020019092919080359060200190929190803590602001909291908035906020019092919080359060200190929190803590602001909291905050506128dc565b005b60606000806000806000806000600660008a81526020019081526020016000209050806000018160010160009054906101000a900473ffffffffffffffffffffffffffffffffffffffff168260020160009054906101000a900473ffffffffffffffffffffffffffffffffffffffff1683601e0160000160009054906101000a900460ff1684601e0160000160019054906101000a900460ff1685601e0160000160029054906101000a900460ff1686601e0160000160039054906101000a900460ff16868054600181600116156101000203166002900480601f016020809104026020016040519081016040528092919081815260200182805460018160011615610100020316600290048015610c215780601f10610bf657610100808354040283529160200191610c21565b820191906000526020600020905b815481529060010190602001808311610c0457829003601f168201915b50505050509650975097509750975097509750975050919395979092949650565b60025481565b8060036007811115610c5657fe5b6006600083815260200190815260200160002060080160009054906101000a900460ff166007811115610c8557fe5b141515610c9157600080fd5b6006600083815260200190815260200160002060010160009054906101000a900473ffffffffffffffffffffffffffffffffffffffff168073ffffffffffffffffffffffffffffffffffffffff163373ffffffffffffffffffffffffffffffffffffffff16141515610d0257600080fd5b60046006600085815260200190815260200160002060080160006101000a81548160ff02191690836007811115610d3557fe5b02179055507f502749b8a684cf092b2cfff41a59b9aff2bde23e3a1aca4b3cde4a6fe6db817d836040518082815260200191505060405180910390a1505050565b6000808260066007811115610d8757fe5b6006600083815260200190815260200160002060080160009054906101000a900460ff166007811115610db657fe5b141515610dc257600080fd5b6000809054906101000a900473ffffffffffffffffffffffffffffffffffffffff1673ffffffffffffffffffffffffffffffffffffffff163373ffffffffffffffffffffffffffffffffffffffff16141515610e1d57600080fd5b6001151560066000868152602001908152602001600020600b0160009054906101000a900460ff161515141515610e5357600080fd5b6000925060066000858152602001908152602001600020601801600301549150600554821115610eb45760016006600086815260200190815260200160002060180160040160006101000a81548160ff021916908315150217905550600192505b8260066000868152602001908152602001600020601e0160000160036101000a81548160ff02191690831515021790555050505050565b8160046007811115610ef957fe5b6006600083815260200190815260200160002060080160009054906101000a900460ff166007811115610f2857fe5b141515610f3457600080fd5b6000809054906101000a900473ffffffffffffffffffffffffffffffffffffffff1673ffffffffffffffffffffffffffffffffffffffff163373ffffffffffffffffffffffffffffffffffffffff16141515610f8f57600080fd5b816006600085815260200190815260200160002060020160006101000a81548173ffffffffffffffffffffffffffffffffffffffff021916908373ffffffffffffffffffffffffffffffffffffffff16021790555060056006600085815260200190815260200160002060080160006101000a81548160ff0219169083600781111561101757fe5b02179055507fbc5d71c5231a7ff8e7cc6e9cf79fcc6a1d2e91a2c5ec4d4f7cd4d6ba387a19c9836040518082815260200191505060405180910390a1505050565b6000809054906101000a900473ffffffffffffffffffffffffffffffffffffffff1673ffffffffffffffffffffffffffffffffffffffff163373ffffffffffffffffffffffffffffffffffffffff161415156110b357600080fd5b6000600254141515156110c557600080fd5b8560066000600254815260200190815260200160002060000190805190602001906110f1929190612b58565b508460066000600254815260200190815260200160002060030181905550836006600060025481526020019081526020016000206004018190555082600660006002548152602001908152602001600020600501819055508460066000600254815260200190815260200160002060060181905550846202ec890260066000600254815260200190815260200160002060070181905550600160066000600254815260200190815260200160002060080160006101000a81548160ff021916908360078111156111bd57fe5b0217905550600060066000600254815260200190815260200160002060080160016101000a81548160ff021916908360018111156111f757fe5b0217905550816006600060025481526020019081526020016000206009018190555080600660006002548152602001908152602001600020600a0181905550600260008154809291906001019190505550505050505050565b600080600080600354600454600554600660008981526020019081526020016000206007015493509350935093509193509193565b600080826006600781111561129657fe5b6006600083815260200190815260200160002060080160009054906101000a900460ff1660078111156112c557fe5b1415156112d157600080fd5b6000809054906101000a900473ffffffffffffffffffffffffffffffffffffffff1673ffffffffffffffffffffffffffffffffffffffff163373ffffffffffffffffffffffffffffffffffffffff1614151561132c57600080fd5b6001151560066000868152602001908152602001600020601d0160009054906101000a900460ff16151514151561136257600080fd5b60066000858152602001908152602001600020601e01925060009150600115158360000160009054906101000a900460ff16151514806113b75750600115158360000160019054906101000a900460ff161515145b806113d75750600115158360000160029054906101000a900460ff161515145b806113f75750600115158360000160039054906101000a900460ff161515145b1561140157600191505b60011515821515141561144b5760016006600086815260200190815260200160002060080160016101000a81548160ff0219169083600181111561144157fe5b0217905550611484565b60006006600086815260200190815260200160002060080160016101000a81548160ff0219169083600181111561147e57fe5b02179055505b50505050565b600080826006600781111561149b57fe5b6006600083815260200190815260200160002060080160009054906101000a900460ff1660078111156114ca57fe5b1415156114d657600080fd5b6000809054906101000a900473ffffffffffffffffffffffffffffffffffffffff1673ffffffffffffffffffffffffffffffffffffffff163373ffffffffffffffffffffffffffffffffffffffff1614151561153157600080fd5b6001151560066000868152602001908152602001600020600b0160009054906101000a900460ff16151514151561156757600080fd5b6000925060066000858152602001908152602001600020600c016001015491506003548211156115c857600160066000868152602001908152602001600020600c0160020160006101000a81548160ff021916908315150217905550600192505b8260066000868152602001908152602001600020601e0160000160006101000a81548160ff02191690831515021790555050505050565b600080826006600781111561161057fe5b6006600083815260200190815260200160002060080160009054906101000a900460ff16600781111561163f57fe5b14151561164b57600080fd5b6000809054906101000a900473ffffffffffffffffffffffffffffffffffffffff1673ffffffffffffffffffffffffffffffffffffffff163373ffffffffffffffffffffffffffffffffffffffff161415156116a657600080fd5b6001151560066000868152602001908152602001600020600b0160009054906101000a900460ff1615151415156116dc57600080fd5b600092506006600085815260200190815260200160002060120160040154915060045482111561173d5760016006600086815260200190815260200160002060120160050160006101000a81548160ff021916908315150217905550600192505b8260066000868152602001908152602001600020601e0160000160026101000a81548160ff02191690831515021790555050505050565b600080600080600060066000888152602001908152602001600020600c01905086816000015482600101548360020160009054906101000a900460ff1694509450945094505092959194509250565b60008082600660078111156117d457fe5b6006600083815260200190815260200160002060080160009054906101000a900460ff16600781111561180357fe5b14151561180f57600080fd5b6000809054906101000a900473ffffffffffffffffffffffffffffffffffffffff1673ffffffffffffffffffffffffffffffffffffffff163373ffffffffffffffffffffffffffffffffffffffff1614151561186a57600080fd5b6001151560066000868152602001908152602001600020600b0160009054906101000a900460ff1615151415156118a057600080fd5b6000925060066000858152602001908152602001600020600f01600101549150600660008581526020019081526020016000206007015482111561191557600160066000868152602001908152602001600020600f0160020160006101000a81548160ff021916908315150217905550600192505b8260066000868152602001908152602001600020601e0160000160016101000a81548160ff02191690831515021790555050505050565b816002600781111561195a57fe5b6006600083815260200190815260200160002060080160009054906101000a900460ff16600781111561198957fe5b14151561199557600080fd5b6000809054906101000a900473ffffffffffffffffffffffffffffffffffffffff1673ffffffffffffffffffffffffffffffffffffffff163373ffffffffffffffffffffffffffffffffffffffff161415156119f057600080fd5b816006600085815260200190815260200160002060010160006101000a81548173ffffffffffffffffffffffffffffffffffffffff021916908373ffffffffffffffffffffffffffffffffffffffff16021790555060036006600085815260200190815260200160002060080160006101000a81548160ff02191690836007811115611a7857fe5b02179055507f92f64ca637d023f354075a4be751b169c1a8a9ccb6d33cdd0cb3520543995727836040518082815260200191505060405180910390a1505050565b6000809054906101000a900473ffffffffffffffffffffffffffffffffffffffff1673ffffffffffffffffffffffffffffffffffffffff163373ffffffffffffffffffffffffffffffffffffffff16141515611b1457600080fd5b60016007811115611b2157fe5b6006600083815260200190815260200160002060080160009054906101000a900460ff166007811115611b5057fe5b141515611b5c57600080fd5b7fa96ae0fc3224ebd79eebfe54bd130cc9cb94416cddd1f2386115e00b72532468816040518082815260200191505060405180910390a160026006600083815260200190815260200160002060080160006101000a81548160ff02191690836007811115611bc657fe5b021790555050565b611beb7314723a09acff6d2a60dcdf7aa4aff308fddc160c611cd2565b611c346040805190810160405280600c81526020017f746573744261747465727931000000000000000000000000000000000000000081525060aa606460506107e36003611058565b565b60008060009054906101000a900473ffffffffffffffffffffffffffffffffffffffff1673ffffffffffffffffffffffffffffffffffffffff163373ffffffffffffffffffffffffffffffffffffffff16141515611c9357600080fd5b600660008481526020019081526020016000209050818160080160016101000a81548160ff02191690836001811115611cc857fe5b0217905550505050565b6000809054906101000a900473ffffffffffffffffffffffffffffffffffffffff1673ffffffffffffffffffffffffffffffffffffffff163373ffffffffffffffffffffffffffffffffffffffff16141515611d2d57600080fd5b80600160006101000a81548173ffffffffffffffffffffffffffffffffffffffff021916908373ffffffffffffffffffffffffffffffffffffffff16021790555050565b8060056007811115611d7f57fe5b6006600083815260200190815260200160002060080160009054906101000a900460ff166007811115611dae57fe5b141515611dba57600080fd5b6006600083815260200190815260200160002060020160009054906101000a900473ffffffffffffffffffffffffffffffffffffffff168073ffffffffffffffffffffffffffffffffffffffff163373ffffffffffffffffffffffffffffffffffffffff16141515611e2b57600080fd5b600680600085815260200190815260200160002060080160006101000a81548160ff02191690836007811115611e5d57fe5b02179055507f3ec796be1be7d03bff3a62b9fa594a60e947c1809bced06d929f145308ae57ce836040518082815260200191505060405180910390a1505050565b606060008060008060006060806000806000806000600660008f815260200190815260200160002092508260080160009054906101000a900460ff166007811115611ee557fe5b91508260080160019054906101000a900460ff166001811115611f0457fe5b90506000821415611f4c576040805190810160405280600781526020017f44656661756c74000000000000000000000000000000000000000000000000008152509650612176565b6001821415611f92576040805190810160405280600881526020017f50726f64756365640000000000000000000000000000000000000000000000008152509650612175565b6002821415611fd8576040805190810160405280600781526020017f466f7253616c65000000000000000000000000000000000000000000000000008152509650612174565b600382141561201e576040805190810160405280600481526020017f536f6c64000000000000000000000000000000000000000000000000000000008152509650612173565b6004821415612064576040805190810160405280600981526020017f496e7374616c6c656400000000000000000000000000000000000000000000008152509650612172565b60058214156120aa576040805190810160405280600781526020017f4d616e61676564000000000000000000000000000000000000000000000000008152509650612171565b60068214156120f0576040805190810160405280600681526020017f41637469766500000000000000000000000000000000000000000000000000008152509650612170565b6007821415612136576040805190810160405280600881526020017f52657475726e6564000000000000000000000000000000000000000000000000815250965061216f565b6040805190810160405280600981526020017f556e646566696e6564000000000000000000000000000000000000000000000081525096505b5b5b5b5b5b5b5b60008114156121bc576040805190810160405280600e81526020017f556e6465722057617272616e747900000000000000000000000000000000000081525095506121ff565b60018114156121fe576040805190810160405280600f81526020017f4f7574206f662057617272616e7479000000000000000000000000000000000081525095505b5b826000018360010160009054906101000a900473ffffffffffffffffffffffffffffffffffffffff168460020160009054906101000a900473ffffffffffffffffffffffffffffffffffffffff168560050154866003015487600401548c8c8a600901548b600a0154898054600181600116156101000203166002900480601f0160208091040260200160405190810160405280929190818152602001828054600181600116156101000203166002900480156122fd5780601f106122d2576101008083540402835291602001916122fd565b820191906000526020600020905b8154815290600101906020018083116122e057829003601f168201915b505050505099509c509c509c509c509c509c509c509c509c509c505050509193959799509193959799565b806006600781111561233657fe5b6006600083815260200190815260200160002060080160009054906101000a900460ff16600781111561236557fe5b14151561237157600080fd5b6000809054906101000a900473ffffffffffffffffffffffffffffffffffffffff1673ffffffffffffffffffffffffffffffffffffffff163373ffffffffffffffffffffffffffffffffffffffff161415156123cc57600080fd5b6001151560066000848152602001908152602001600020600b0160009054906101000a900460ff16151514151561240257600080fd5b61240b8261148a565b612414826117c3565b61241d826115ff565b61242682610d76565b600160066000848152602001908152602001600020601d0160006101000a81548160ff0219169083151502179055505050565b600080826002600781111561246a57fe5b6006600083815260200190815260200160002060080160009054906101000a900460ff16600781111561249957fe5b1415156124a557600080fd5b60066000858152602001908152602001600020600501548034101515156124cb57600080fd5b33935060066000868152602001908152602001600020600501549250836006600087815260200190815260200160002060010160006101000a81548173ffffffffffffffffffffffffffffffffffffffff021916908373ffffffffffffffffffffffffffffffffffffffff16021790555060036006600087815260200190815260200160002060080160006101000a81548160ff0219169083600781111561256f57fe5b02179055506000809054906101000a900473ffffffffffffffffffffffffffffffffffffffff1673ffffffffffffffffffffffffffffffffffffffff166108fc849081150290604051600060405180830381858888f193505050501580156125db573d6000803e3d6000fd5b507f92f64ca637d023f354075a4be751b169c1a8a9ccb6d33cdd0cb3520543995727856040518082815260200191505060405180910390a15050505050565b6000809054906101000a900473ffffffffffffffffffffffffffffffffffffffff1673ffffffffffffffffffffffffffffffffffffffff163373ffffffffffffffffffffffffffffffffffffffff1614151561267557600080fd5b60006002541415151561268757600080fd5b8660066000600254815260200190815260200160002060000190805190602001906126b3929190612b58565b508560066000600254815260200190815260200160002060010160006101000a81548173ffffffffffffffffffffffffffffffffffffffff021916908373ffffffffffffffffffffffffffffffffffffffff1602179055508460066000600254815260200190815260200160002060020160006101000a81548173ffffffffffffffffffffffffffffffffffffffff021916908373ffffffffffffffffffffffffffffffffffffffff160217905550836006600060025481526020019081526020016000206003018190555082600660006002548152602001908152602001600020600401819055508360066000600254815260200190815260200160002060060181905550600160066000600254815260200190815260200160002060080160006101000a81548160ff021916908360078111156127ee57fe5b0217905550600060066000600254815260200190815260200160002060080160016101000a81548160ff0219169083600181111561282857fe5b0217905550816006600060025481526020019081526020016000206009018190555080600660006002548152602001908152602001600020600a018190555060026000815480929190600101919050555050505050505050565b600060066000838152602001908152602001600020600b0160009054906101000a900460ff169050919050565b600060066000838152602001908152602001600020601d0160009054906101000a900460ff169050919050565b88600660078111156128ea57fe5b6006600083815260200190815260200160002060080160009054906101000a900460ff16600781111561291957fe5b14151561292557600080fd5b600660008b815260200190815260200160002060020160009054906101000a900473ffffffffffffffffffffffffffffffffffffffff168073ffffffffffffffffffffffffffffffffffffffff163373ffffffffffffffffffffffffffffffffffffffff1614151561299657600080fd5b89600660008d8152602001908152602001600020600c016000018190555085600660008d8152602001908152602001600020600c016001018190555089600660008d8152602001908152602001600020600f016000018190555084600660008d8152602001908152602001600020600f016001018190555089600660008d81526020019081526020016000206012016000018190555088600660008d81526020019081526020016000206012016001018190555087600660008d81526020019081526020016000206012016002018190555086600660008d81526020019081526020016000206012016003018190555083600660008d81526020019081526020016000206012016004018190555089600660008d81526020019081526020016000206018016000018190555088600660008d81526020019081526020016000206018016001018190555087600660008d81526020019081526020016000206018016002018190555082600660008d8152602001908152602001600020601801600301819055506001600660008d8152602001908152602001600020600b0160006101000a81548160ff0219169083151502179055505050505050505050505050565b828054600181600116156101000203166002900490600052602060002090601f016020900481019282601f10612b9957805160ff1916838001178555612bc7565b82800160010185558215612bc7579182015b82811115612bc6578251825591602001919060010190612bab565b5b509050612bd49190612bd8565b5090565b612bfa91905b80821115612bf6576000816000905550600101612bde565b5090565b905600a165627a7a723058203fa7fd9d488136f986953c1a59aa196969ef69b38ebeb3b388b77828489b02350029",
  "source": "pragma solidity ^0.4.9;\r\n// pragma solidity ^0.5.2;\r\n// pragma experimental ABIEncoderV2;\r\n\r\nimport \"../batteryaccesscontrol/BatteryUserRole.sol\";\r\n\r\n//------------------------------------------------------------------------------\r\n// Decentralized EMS platform using Smart Contract for Warranty Application for \r\n//  - Battery Provider\r\n//  - Battery Owner\r\n//  - EMS Provider\r\n//------------------------------------------------------------------------------\r\n// Contract to manage Smart Warranty regarding  \r\n//  - Annual average SOC condition\r\n//  - Average hourly temperature condition\r\n//  - Annual accumulated discharge energy of the product\r\n//  - Peak DC power per rack\r\n//  - Daily average rack power\r\n//  - Substantial portion of all half-cycles\r\n//------------------------------------------------------------------------------\r\ncontract SupplyChain {\r\n    \r\n    // Battery and Warranty Provider (e.g. LG Chem)\r\n    address batteryProvider;\r\n    \r\n    // Energy Management System (EMS) Provider (e.g. NEC Energy Solution)\r\n    address trustedEMSProvider;\r\n    \r\n    // Variable: tokenId for a battery that is used to distinguish all the batteries produced by the provider\r\n    uint public tokenId = 1;\r\n\r\n    // List of warranty parameters\r\n    uint max_average_soc;\r\n    uint peak_dc_rack_power;\r\n    uint daily_avg_rack_power;\r\n\r\n    // uint abs_min_enclosure_temp;\r\n    // uint nom_min_enclosure_temp;\r\n    // uint max_enclosure_temp;\r\n    // uint min_module_temp;\r\n    // uint max_average_enclosure_temp;\r\n    // uint abs_max_storage_temp;\r\n    // uint max_module_oper_temp;\r\n    // uint soc_penalty_factor;\r\n    // uint avg_temp_penalty_factor_1;\r\n    // uint avg_temp_penalty_factor_2;\r\n    // uint avg_temp_penalty_factor_3;\r\n    // uint peak_power_penalty_factor;\r\n    // uint avg_power_penalty_factor;\r\n    // uint max_dod;\r\n    \r\n    // Need to add DEFAULT\r\n    enum State {DEFAULT, PRODUCED, FORSALE, SOLD, INSTALLED, MANAGED, ACTIVE, RETURNED}\r\n    enum WarrantyStatus {UNDER_WARRANTY, OUT_OF_WARRANTY}\r\n\r\n    // Owner's Information\r\n    struct OwnerInfo {\r\n        string ownerID;\r\n        string firstName;\r\n        string lastName;\r\n        string companyName;\r\n    }\r\n    \r\n    // EMS Provider information: need to be approved by the battery provider\r\n    struct EnergyManagementSystemProvider {\r\n        address emsProvider;\r\n        bool isApproved;\r\n    }\r\n    \r\n    // Battery Information\r\n    struct BatteryInfo {\r\n        \r\n        // An arbitrary battery ID\r\n        string batteryID;\r\n        \r\n        // The onwer of the battery after sold\r\n        address owner;\r\n        \r\n        // Trusted EMS Provider (e.g. NEC)\r\n        address emsProvider;\r\n        \r\n        // Original Capacity in kWh\r\n        uint bolCapacity;\r\n        \r\n        // Maximum power (PCS) in kW\r\n        uint maxPower;\r\n        \r\n        // Battery price in Ether\r\n        uint price;\r\n        \r\n        // Degraded capacity\r\n        // If it reaches 60%, the battery is goint to be out of warranty\r\n        uint adjustedCapacity;\r\n        \r\n        uint annual_accum_disch_energy;\r\n        \r\n        // State: forSale, sold, managed, underControl, returned, etc.\r\n        State state;\r\n        \r\n        // WarrantyStatus: underWarranty or outOfWarranty\r\n        WarrantyStatus warrantyStatus;\r\n        \r\n        // Current year\r\n        uint currentYear;\r\n        \r\n        // Warranty period could be 3 years or 4-10 years with extension as long as 60% of the capacity remains\r\n        // If you want to extend, you have to pay for extension before the year\r\n        uint warrantyPeriod; \r\n        // uint extendedWarranty;\r\n    \r\n        // uint acceptedDate;\r\n        // uint operationStartDateTime;\r\n        // uint operationEndDateTime;\r\n        // uint warrantyViolatedDateTime;\r\n        \r\n        // In reality, this becomes much more complicated with the real-time Application, this is beta version of warranty app\r\n        // Later it is going to be updated to accomodate multi-year data\r\n        bool isDataReported;\r\n        AnnualAverageSOC annualAverageSOC;\r\n        AnnualAccumulatedDischargeEnergy aade;\r\n        PeakDCPower peakDCPower;\r\n        DailyAverageDCPower dailyAverageDCPower;\r\n        \r\n        // When the warranty contract should be expanded for multiple years\r\n        //mapping(uint => AnnualAverageSOC) yearToAnnualAverageSOCInfo;\r\n        //AnnualAverageSOC[] annualAverageSOCList;\r\n        \r\n        bool isWarrantyAnalyzed;\r\n        WarrantyAnalysisInfo warrantyAnalysisInfo;\r\n        \r\n    }\r\n    \r\n    // Annual average SOC information\r\n    struct AnnualAverageSOC {\r\n        uint year;\r\n        // uint startDate;\r\n        // uint endDate;\r\n        uint value;\r\n        bool violationFlag;\r\n    }\r\n    \r\n    // Annual Accumulated Discharge Energy Information\r\n    struct AnnualAccumulatedDischargeEnergy {\r\n        uint year;\r\n        uint value;\r\n        bool violationFlag;\r\n    }\r\n    \r\n    // Peak DC Power Information\r\n    struct PeakDCPower {\r\n        uint year;\r\n        uint month;\r\n        uint day;\r\n        uint hour;\r\n        uint value;\r\n        bool violationFlag;\r\n    }\r\n    \r\n    // Daily Average DC Power Information\r\n    struct DailyAverageDCPower {\r\n        uint year;\r\n        uint month;\r\n        uint day;\r\n        uint value;\r\n        bool violationFlag;\r\n    }\r\n\r\n    // Warranty Violation Information for each conditioin\r\n    // If one of following gets violated and becomes true, the warranty is out.\r\n    struct WarrantyAnalysisInfo {\r\n        bool annualAverageSOCViolation;\r\n        bool annualAccumulatedDischargeEnergyViolation;\r\n        bool peakDCPowerViolation;\r\n        bool dailyAverageDCPowerViolation;\r\n        //bool averageHourlyTemperatureViolation;\r\n    }\r\n    \r\n    //mapping(address => OwnerInfo) addressToOwnerInfo;\r\n    \r\n    mapping(uint256 => BatteryInfo) tokenIdToBatteryInfo;\r\n    //BatteryInfo[] public batteries; // Needed to deal with like an array\r\n    \r\n    // Events\r\n    event ForSale(uint tokenId);\r\n    event Sold(uint _tokenId);\r\n    event Installed(uint _tokenId);\r\n    event Managed(uint _tokenId);\r\n    event Activated(uint _tokenId);\r\n    \r\n    // Currently the modifier conditions are minimized for easier testing\r\n    modifier onlyProvider {\r\n        require(msg.sender == batteryProvider);\r\n        _;\r\n    }\r\n    \r\n    modifier onlyEMSProvider(address _emsProvider) {\r\n        require(msg.sender == _emsProvider);\r\n        _;\r\n    }\r\n    \r\n    modifier onlyOwner(address _owner) {\r\n        require(msg.sender == _owner);\r\n        _;\r\n    }\r\n    \r\n    // Define a modifier that verifies the Caller\r\n    modifier verifyCaller (address _address) {\r\n        require(msg.sender == _address);\r\n        _;\r\n    }\r\n\r\n    // Define a modifier that checks if the paid amount is sufficient to cover the price\r\n    modifier paidEnough(uint _price) {\r\n        require(msg.value >= _price);\r\n        _;\r\n    }\r\n\r\n    // Define a modifier that checks if the state of the item of _tokenId is ForSale\r\n    modifier forSale(uint _tokenId) {\r\n        require(tokenIdToBatteryInfo[_tokenId].state == State.FORSALE);\r\n        _;\r\n    }\r\n\r\n    // Define a modifier that checks if the state of the item of _tokenId is Sold\r\n    modifier sold(uint _tokenId) {\r\n        require(tokenIdToBatteryInfo[_tokenId].state == State.SOLD);\r\n        _;\r\n    }\r\n    \r\n    // Define a modifier that checks if the state of the item of _tokenId is Installed\r\n    modifier installed(uint _tokenId) {\r\n        require(tokenIdToBatteryInfo[_tokenId].state == State.INSTALLED);\r\n        _;\r\n    }\r\n    \r\n    // Define a modifier that checks if the state of the item of _tokenId is managed\r\n    modifier managed(uint _tokenId) {\r\n        require(tokenIdToBatteryInfo[_tokenId].state == State.MANAGED);\r\n        _;\r\n    }\r\n\r\n    // Define a modifier that checks if the state of the item of _tokenId is activated\r\n    modifier activated(uint _tokenId) {\r\n        require(tokenIdToBatteryInfo[_tokenId].state == State.ACTIVE);\r\n        _;\r\n    }\r\n    \r\n    // Define a modifier that checks if the state of the item of _tokenId is activated\r\n    modifier isDataReported(uint _tokenId) {\r\n        require(tokenIdToBatteryInfo[_tokenId].isDataReported == true);\r\n        _;\r\n    }\r\n\r\n    \r\n    // Constructor: variables are all initialized here\r\n    constructor() public {\r\n        \r\n        batteryProvider = msg.sender;\r\n        \r\n        max_average_soc = 53;\r\n        peak_dc_rack_power = 45670;\r\n        daily_avg_rack_power = 7600;\r\n        // abs_min_enclosure_temp = 15;\r\n        // nom_min_enclosure_temp = 18;\r\n        // max_enclosure_temp = 28;\r\n        // min_module_temp = 20;\r\n        // max_average_enclosure_temp = 25;\r\n        // abs_max_storage_temp = 60;\r\n        // max_module_oper_temp = 26500;\r\n        // annual_accum_disch_energy = 0;\r\n        // soc_penalty_factor = 2300;\r\n        // avg_temp_penalty_factor_1 = 4;\r\n        // avg_temp_penalty_factor_2 = 10;\r\n        // avg_temp_penalty_factor_3 = 80;\r\n        // peak_power_penalty_factor = 1;\r\n        // avg_power_penalty_factor = 9;\r\n        //max_dod = 100;\r\n        \r\n    }\r\n    \r\n    function registerTrustedEMSProvider(address _address) public onlyProvider {\r\n        trustedEMSProvider = _address;\r\n    }\r\n    \r\n    // Registering battery information\r\n    function registerBatteryInfo(string _batteryID, address batteryOwner, address trustedEMSProvider, uint capacity, uint power, uint year, uint warrantyPeriod) public onlyProvider {\r\n        \r\n        require(tokenId != 0);\r\n        \r\n        //BatteryInfo memory newBattery = BatteryInfo(_batteryID, batteryOwner, trustedEMSProvider, false, false, false, false, false);\r\n        //tokenIdToBatteryInfo[tokenId] = newBattery;\r\n        //tokenIdToBatteryInfo[tokenId].test[2013] = batteryOwner;\r\n        \r\n        tokenIdToBatteryInfo[tokenId].batteryID = _batteryID;\r\n        tokenIdToBatteryInfo[tokenId].owner = batteryOwner;\r\n        tokenIdToBatteryInfo[tokenId].emsProvider = trustedEMSProvider;\r\n        tokenIdToBatteryInfo[tokenId].bolCapacity = capacity;\r\n        tokenIdToBatteryInfo[tokenId].maxPower = power;\r\n        tokenIdToBatteryInfo[tokenId].adjustedCapacity = capacity;\r\n        tokenIdToBatteryInfo[tokenId].state = State.PRODUCED;\r\n        tokenIdToBatteryInfo[tokenId].warrantyStatus = WarrantyStatus.UNDER_WARRANTY;\r\n        tokenIdToBatteryInfo[tokenId].currentYear = year;\r\n        tokenIdToBatteryInfo[tokenId].warrantyPeriod  = warrantyPeriod;\r\n\r\n        tokenId ++;\r\n    }\r\n\r\n    \r\n    // Registering battery information\r\n    function produceBattery(string _batteryID, uint _capacity, uint _power, uint _price, uint _year, uint _warrantyPeriod) public onlyProvider {\r\n        \r\n        require(tokenId != 0);\r\n        \r\n        tokenIdToBatteryInfo[tokenId].batteryID = _batteryID;\r\n        tokenIdToBatteryInfo[tokenId].bolCapacity = _capacity;\r\n        tokenIdToBatteryInfo[tokenId].maxPower = _power;\r\n        tokenIdToBatteryInfo[tokenId].price = _price;\r\n        tokenIdToBatteryInfo[tokenId].adjustedCapacity = _capacity;\r\n        // if year is leap year, need to be 366\r\n        tokenIdToBatteryInfo[tokenId].annual_accum_disch_energy = 365 * 525 * _capacity;\r\n        tokenIdToBatteryInfo[tokenId].state = State.PRODUCED;\r\n        tokenIdToBatteryInfo[tokenId].warrantyStatus = WarrantyStatus.UNDER_WARRANTY;\r\n        tokenIdToBatteryInfo[tokenId].currentYear = _year;\r\n        tokenIdToBatteryInfo[tokenId].warrantyPeriod  = _warrantyPeriod;\r\n        \r\n        tokenId ++;\r\n    }\r\n    \r\n    function addItem(uint _tokenId) public onlyProvider {\r\n        require(tokenIdToBatteryInfo[_tokenId].state == State.PRODUCED);\r\n        \r\n        // Emit the appropriate event\r\n        emit ForSale(_tokenId);\r\n        \r\n        tokenIdToBatteryInfo[_tokenId].state = State.FORSALE;\r\n    }\r\n    \r\n    function buyItem(uint _tokenId) forSale(_tokenId) paidEnough(tokenIdToBatteryInfo[_tokenId].price) public payable {\r\n        //require(tokenIdToBatteryInfo[tokenId].state == State.FORSALE);\r\n        \r\n        address buyer = msg.sender;\r\n        uint price = tokenIdToBatteryInfo[_tokenId].price;\r\n\r\n        // Update Buyer\r\n        tokenIdToBatteryInfo[_tokenId].owner = buyer;\r\n\r\n        // Update State\r\n        tokenIdToBatteryInfo[_tokenId].state = State.SOLD;\r\n\r\n        // Transfer money to seller\r\n        batteryProvider.transfer(price);\r\n        //items[sku].seller.transfer(price);\r\n\r\n        // Emit the appropriate event\r\n        emit Sold(_tokenId);\r\n    }\r\n    \r\n    // Used only when the battery is transacted not using ether coins\r\n    // In this case, this function is called only by battery provider after confirming the payment\r\n    function assignBatteryOwner(uint _tokenId, address _address) forSale(_tokenId) onlyProvider public {\r\n\r\n        // Update Buyer\r\n        tokenIdToBatteryInfo[_tokenId].owner = _address;\r\n\r\n        // Update State\r\n        tokenIdToBatteryInfo[_tokenId].state = State.SOLD;\r\n\r\n        // Emit the appropriate event\r\n        emit Sold(_tokenId);\r\n    }\r\n    \r\n    // Once the battery is sold, the onwner needs to install the battery\r\n    function installBattery(uint _tokenId) sold(_tokenId) onlyOwner(tokenIdToBatteryInfo[_tokenId].owner) public {\r\n\r\n        // Update State\r\n        tokenIdToBatteryInfo[_tokenId].state = State.INSTALLED;\r\n        \r\n        // Emit the appropriate event\r\n        emit Installed(_tokenId);\r\n    }\r\n    \r\n    \r\n    function manageBattery(uint _tokenId, address _emsProviderAddress) installed(_tokenId) onlyProvider public {\r\n        \r\n        // If needed, verify if _addrress is recorded as the trustedEMSProvider\r\n        \r\n        // Update EMS Provider\r\n        tokenIdToBatteryInfo[_tokenId].emsProvider = _emsProviderAddress;\r\n        \r\n        // Update State\r\n        tokenIdToBatteryInfo[_tokenId].state = State.MANAGED;\r\n\r\n        // Emit the appropriate event\r\n        emit Managed(_tokenId);\r\n    }\r\n    \r\n    // EMS Provider should change the state of the battery to active when controling it\r\n    function utilizeBattery(uint _tokenId) managed(_tokenId) onlyEMSProvider(tokenIdToBatteryInfo[_tokenId].emsProvider) public {\r\n        \r\n        // Update State\r\n        tokenIdToBatteryInfo[_tokenId].state = State.ACTIVE;\r\n\r\n        // Emit the appropriate event\r\n        emit Activated(_tokenId);\r\n    }\r\n    \r\n    // EMS Provider can record important information for warranty analysis\r\n    function getUsageData(uint _tokenId, uint _year, uint _month, uint _day, uint _hour, uint _socValue, uint _aade, uint _peakDCPower, uint _averageDailyDCPower) activated(_tokenId) onlyEMSProvider(tokenIdToBatteryInfo[_tokenId].emsProvider) public {\r\n        \r\n        tokenIdToBatteryInfo[_tokenId].annualAverageSOC.year = _year;\r\n        tokenIdToBatteryInfo[_tokenId].annualAverageSOC.value = _socValue;\r\n\r\n        tokenIdToBatteryInfo[_tokenId].aade.year = _year;\r\n        tokenIdToBatteryInfo[_tokenId].aade.value = _aade;\r\n\r\n        tokenIdToBatteryInfo[_tokenId].peakDCPower.year = _year;\r\n        tokenIdToBatteryInfo[_tokenId].peakDCPower.month = _month;\r\n        tokenIdToBatteryInfo[_tokenId].peakDCPower.day = _day;\r\n        tokenIdToBatteryInfo[_tokenId].peakDCPower.hour = _hour;\r\n        tokenIdToBatteryInfo[_tokenId].peakDCPower.value = _peakDCPower;\r\n        \r\n        tokenIdToBatteryInfo[_tokenId].dailyAverageDCPower.year = _year;\r\n        tokenIdToBatteryInfo[_tokenId].dailyAverageDCPower.month = _month;\r\n        tokenIdToBatteryInfo[_tokenId].dailyAverageDCPower.day = _day;\r\n        tokenIdToBatteryInfo[_tokenId].dailyAverageDCPower.value = _averageDailyDCPower;\r\n        \r\n        tokenIdToBatteryInfo[_tokenId].isDataReported = true;\r\n    }\r\n    \r\n    // Once the warranty information is provided, the battery provider will check if the conditions are met\r\n    function checkWarranty(uint _tokenId) activated(_tokenId) onlyProvider public {\r\n        require(tokenIdToBatteryInfo[_tokenId].isDataReported == true);\r\n        \r\n        checkAnnualAverageSOCWarranty(_tokenId);\r\n        checkAnnualAccumulatedDischargeEnergyWarranty(_tokenId);\r\n        checkPeakDCPowerPerRackWarranty(_tokenId);\r\n        checkDailyAverageDCPowerWarranty(_tokenId);\r\n        \r\n        tokenIdToBatteryInfo[_tokenId].isWarrantyAnalyzed = true;\r\n    }\r\n    \r\n    // Checking Annual Average SOC Warranty\r\n    function checkAnnualAverageSOCWarranty(uint _tokenId) activated(_tokenId) onlyProvider public {\r\n        require(tokenIdToBatteryInfo[_tokenId].isDataReported == true);\r\n\r\n        bool violationFlag = false;\r\n        uint socValue = tokenIdToBatteryInfo[_tokenId].annualAverageSOC.value;\r\n\r\n        if (socValue > max_average_soc) {\r\n            tokenIdToBatteryInfo[_tokenId].annualAverageSOC.violationFlag = true;\r\n            violationFlag = true;\r\n        }\r\n        \r\n        tokenIdToBatteryInfo[_tokenId].warrantyAnalysisInfo.annualAverageSOCViolation = violationFlag;\r\n    }\r\n    \r\n    // Checking Annual Accumulated Discharge Energy Warranty\r\n    function checkAnnualAccumulatedDischargeEnergyWarranty(uint _tokenId) activated(_tokenId) onlyProvider public {\r\n\r\n        require(tokenIdToBatteryInfo[_tokenId].isDataReported == true);\r\n        \r\n        bool violationFlag = false;\r\n        uint aade = tokenIdToBatteryInfo[_tokenId].aade.value;\r\n        if (aade > tokenIdToBatteryInfo[_tokenId].annual_accum_disch_energy) {\r\n            tokenIdToBatteryInfo[_tokenId].aade.violationFlag = true;\r\n            violationFlag = true;\r\n        }\r\n        \r\n        tokenIdToBatteryInfo[_tokenId].warrantyAnalysisInfo.annualAccumulatedDischargeEnergyViolation = violationFlag;\r\n    }\r\n    \r\n    // Checking Peak DC Power per Rack Warranty\r\n    function checkPeakDCPowerPerRackWarranty(uint _tokenId) activated(_tokenId) onlyProvider public {\r\n        \r\n        require(tokenIdToBatteryInfo[_tokenId].isDataReported == true);\r\n        \r\n        bool violationFlag = false;\r\n        uint peakBatteryPower = tokenIdToBatteryInfo[_tokenId].peakDCPower.value;\r\n        if (peakBatteryPower > peak_dc_rack_power) {\r\n            tokenIdToBatteryInfo[_tokenId].peakDCPower.violationFlag = true;\r\n            violationFlag = true;\r\n        }\r\n        \r\n        tokenIdToBatteryInfo[_tokenId].warrantyAnalysisInfo.peakDCPowerViolation = violationFlag;\r\n    }\r\n    \r\n    // Checking Daily Average DC Power Warranty\r\n    function checkDailyAverageDCPowerWarranty(uint _tokenId) activated(_tokenId) onlyProvider public {\r\n        \r\n        require(tokenIdToBatteryInfo[_tokenId].isDataReported == true);\r\n\r\n        bool violationFlag = false;\r\n        uint dailyAverageDCPower = tokenIdToBatteryInfo[_tokenId].dailyAverageDCPower.value;\r\n        if (dailyAverageDCPower > daily_avg_rack_power) {\r\n            tokenIdToBatteryInfo[_tokenId].dailyAverageDCPower.violationFlag = true;\r\n            violationFlag = true;\r\n        }\r\n        \r\n        tokenIdToBatteryInfo[_tokenId].warrantyAnalysisInfo.dailyAverageDCPowerViolation = violationFlag;\r\n    }\r\n    \r\n    // Update warranty status if any violation is detected\r\n    function updateWarranty(uint _tokenId) activated(_tokenId) onlyProvider public {\r\n        \r\n        require(tokenIdToBatteryInfo[_tokenId].isWarrantyAnalyzed == true);\r\n        \r\n        WarrantyAnalysisInfo wInfo = tokenIdToBatteryInfo[_tokenId].warrantyAnalysisInfo;\r\n        \r\n        bool warrantyViolation = false;\r\n        \r\n        if (wInfo.annualAverageSOCViolation == true || wInfo.annualAccumulatedDischargeEnergyViolation == true || wInfo.peakDCPowerViolation == true || wInfo.dailyAverageDCPowerViolation == true) {\r\n            warrantyViolation = true;\r\n        }\r\n        \r\n        if (warrantyViolation == true) {\r\n            tokenIdToBatteryInfo[_tokenId].warrantyStatus = WarrantyStatus.OUT_OF_WARRANTY;\r\n        } else {\r\n            tokenIdToBatteryInfo[_tokenId].warrantyStatus = WarrantyStatus.UNDER_WARRANTY;\r\n        }\r\n    }\r\n\r\n    function testProduceBatteryAndEMSProvider() public {\r\n        \r\n        registerTrustedEMSProvider(0x14723a09acff6d2a60dcdf7aa4aff308fddc160c);\r\n        \r\n        // 1 eth ~= 130 as of 3/12/2019\r\n        produceBattery(\"testBattery1\", 170, 100, 80, 2019, 3);\r\n\r\n    }\r\n    \r\n    //TODO need modifier\r\n    function modifyWarrantyState(uint _tokenId, WarrantyStatus status) onlyProvider public {\r\n        \r\n        BatteryInfo storage bInfo = tokenIdToBatteryInfo[_tokenId];\r\n        bInfo.warrantyStatus = status;\r\n\r\n    }\r\n\r\n    function showBatteryInfo(uint _tokenId) public constant returns (string batteryID, address owner, address emsProvider, uint price, uint bolCapacity, uint maxPower, string stateIs, string warrantyStatus, uint currentYear, uint warrantyPeriod) {\r\n        BatteryInfo storage bInfo = tokenIdToBatteryInfo[_tokenId];\r\n        uint bstate = uint(bInfo.state);\r\n        uint wstatus = uint(bInfo.warrantyStatus);\r\n\r\n        // PRODUCED, FORSALE, SOLD, INSTALLED, MANAGED, RETURNED}\r\n        if (bstate == 0) {\r\n            stateIs = \"Default\";\r\n        } else if (bstate == 1) {\r\n            stateIs = \"Produced\";\r\n        } else if (bstate == 2) {\r\n            stateIs = \"ForSale\";\r\n        } else if (bstate == 3) {\r\n            stateIs = \"Sold\";\r\n        } else if (bstate == 4) {\r\n            stateIs = \"Installed\";\r\n        } else if (bstate == 5) {\r\n            stateIs = \"Managed\";\r\n        } else if (bstate == 6) {\r\n            stateIs = \"Active\";\r\n        } else if (bstate == 7) {\r\n            stateIs = \"Returned\";\r\n        } else {\r\n            stateIs = \"Undefined\";\r\n        }\r\n        \r\n        if (wstatus == 0) {\r\n            warrantyStatus = \"Under Warranty\";\r\n        } else if (wstatus == 1) {\r\n            warrantyStatus = \"Out of Warranty\";\r\n        } \r\n         \r\n        return (\r\n            bInfo.batteryID, \r\n            bInfo.owner,\r\n            bInfo.emsProvider,\r\n            bInfo.price,\r\n            bInfo.bolCapacity,\r\n            bInfo.maxPower,\r\n            stateIs,\r\n            warrantyStatus,\r\n            bInfo.currentYear,\r\n            bInfo.warrantyPeriod\r\n        );\r\n    }\r\n    \r\n    function showBatteryDataReportStatus(uint _tokenId) public constant returns (bool isDataReported) {\r\n        return ( tokenIdToBatteryInfo[_tokenId].isDataReported );\r\n    }\r\n\r\n    function showBatteryWarrantyAnalyzeStatus(uint _tokenId) public constant returns (bool isWarrantyAnalyzed) {\r\n        return ( tokenIdToBatteryInfo[_tokenId].isWarrantyAnalyzed );\r\n    }\r\n\r\n    function showBatteryViolationInfo(uint _tokenId) public constant returns (string batteryID, address owner, address emsProvider, bool annualAverageSOCViolation, bool annualAccumulatedDischargeEnergyViolation, bool peakDCPowerViolation, bool dailyAverageDCPowerViolation) {\r\n        BatteryInfo storage bInfo = tokenIdToBatteryInfo[_tokenId];\r\n        \r\n        return (\r\n            bInfo.batteryID, \r\n            bInfo.owner,\r\n            bInfo.emsProvider,\r\n            bInfo.warrantyAnalysisInfo.annualAverageSOCViolation,\r\n            bInfo.warrantyAnalysisInfo.annualAccumulatedDischargeEnergyViolation,\r\n            bInfo.warrantyAnalysisInfo.peakDCPowerViolation,\r\n            bInfo.warrantyAnalysisInfo.dailyAverageDCPowerViolation\r\n            //bInfo.warrantyAnalysisInfo.averageHourlyTemperatureViolation,\r\n            //bInfo.test[2013]\r\n        );\r\n    }\r\n\r\n    function showAnnualAverageSOC(uint _tokenId, uint _year) public constant returns (uint TokenID, uint year, uint annualAverageSOC, bool annualAverageSOCViolation) {\r\n        \r\n        //AnnualAverageSOC[] socInfoList = tokenIdToAnnualAverageSOCList[_tokenId];\r\n        AnnualAverageSOC socInfo = tokenIdToBatteryInfo[_tokenId].annualAverageSOC;\r\n        \r\n        return (\r\n            _tokenId,\r\n            socInfo.year,\r\n            socInfo.value,\r\n            socInfo.violationFlag\r\n        );\r\n    }\r\n    \r\n    function showVariables(uint _tokenId) public constant returns (uint Max_Average_Soc, uint Peak_DC_Rack_Power, uint Daily_Avg_Rack_Power, uint Annual_Accum_Disch_Energy) {\r\n        return (\r\n            max_average_soc,\r\n            peak_dc_rack_power,\r\n            daily_avg_rack_power,\r\n            tokenIdToBatteryInfo[_tokenId].annual_accum_disch_energy\r\n        );\r\n    }\r\n}",
  "sourcePath": "C:\\Users\\knakayama\\git\\SmartWarranty_ver1\\smart_contracts\\contracts\\batterybase\\SupplyChain.sol",
  "compiler": {
    "name": "solc",
    "version": "0.4.24+commit.e67f0147.Emscripten.clang"
  },
  "schemaVersion": "2.0.1",
  "updatedAt": "2019-03-16T22:30:43.033Z"
}